{
  "_format": "hh-sol-artifact-1",
  "contractName": "CrowdFund",
  "sourceName": "contracts/Crowdfund.sol",
  "abi": [
    {
      "inputs": [
        {
          "internalType": "address",
          "name": "_token",
          "type": "address"
        },
        {
          "internalType": "uint256",
          "name": "_maxDuration",
          "type": "uint256"
        },
        {
          "internalType": "uint256",
          "name": "_minVotes",
          "type": "uint256"
        },
        {
          "internalType": "address",
          "name": "_feedAggregator",
          "type": "address"
        }
      ],
      "stateMutability": "nonpayable",
      "type": "constructor"
    },
    {
      "anonymous": false,
      "inputs": [
        {
          "indexed": true,
          "internalType": "uint256",
          "name": "id",
          "type": "uint256"
        },
        {
          "indexed": true,
          "internalType": "address",
          "name": "cancelled_by",
          "type": "address"
        }
      ],
      "name": "CampaignCancelled",
      "type": "event"
    },
    {
      "anonymous": false,
      "inputs": [
        {
          "indexed": true,
          "internalType": "uint256",
          "name": "id",
          "type": "uint256"
        },
        {
          "indexed": true,
          "internalType": "address",
          "name": "creator",
          "type": "address"
        }
      ],
      "name": "CampaignCreated",
      "type": "event"
    },
    {
      "anonymous": false,
      "inputs": [
        {
          "indexed": true,
          "internalType": "uint256",
          "name": "id",
          "type": "uint256"
        },
        {
          "indexed": false,
          "internalType": "enum CrowdfundInterface.CampaignStatus",
          "name": "status",
          "type": "uint8"
        }
      ],
      "name": "CampaignUpdated",
      "type": "event"
    },
    {
      "anonymous": false,
      "inputs": [
        {
          "indexed": true,
          "internalType": "uint256",
          "name": "id",
          "type": "uint256"
        },
        {
          "indexed": true,
          "internalType": "address",
          "name": "voter",
          "type": "address"
        }
      ],
      "name": "CampaignVoted",
      "type": "event"
    },
    {
      "anonymous": false,
      "inputs": [
        {
          "indexed": true,
          "internalType": "uint256",
          "name": "id",
          "type": "uint256"
        },
        {
          "indexed": false,
          "internalType": "uint256",
          "name": "votes",
          "type": "uint256"
        }
      ],
      "name": "CampaignVotesUpdated",
      "type": "event"
    },
    {
      "anonymous": false,
      "inputs": [
        {
          "indexed": true,
          "internalType": "uint256",
          "name": "id",
          "type": "uint256"
        },
        {
          "indexed": true,
          "internalType": "uint256",
          "name": "goal_id",
          "type": "uint256"
        },
        {
          "indexed": true,
          "internalType": "address",
          "name": "claimer",
          "type": "address"
        }
      ],
      "name": "GoalClaimed",
      "type": "event"
    },
    {
      "anonymous": false,
      "inputs": [
        {
          "indexed": true,
          "internalType": "uint256",
          "name": "id",
          "type": "uint256"
        },
        {
          "components": [
            {
              "internalType": "uint256",
              "name": "id",
              "type": "uint256"
            },
            {
              "internalType": "uint256",
              "name": "price",
              "type": "uint256"
            }
          ],
          "indexed": false,
          "internalType": "struct CrowdfundInterface.NewGoal[]",
          "name": "goals",
          "type": "tuple[]"
        }
      ],
      "name": "GoalsAdded",
      "type": "event"
    },
    {
      "anonymous": false,
      "inputs": [
        {
          "indexed": true,
          "internalType": "address",
          "name": "previousOwner",
          "type": "address"
        },
        {
          "indexed": true,
          "internalType": "address",
          "name": "newOwner",
          "type": "address"
        }
      ],
      "name": "OwnershipTransferred",
      "type": "event"
    },
    {
      "anonymous": false,
      "inputs": [
        {
          "indexed": false,
          "internalType": "address",
          "name": "account",
          "type": "address"
        }
      ],
      "name": "Paused",
      "type": "event"
    },
    {
      "anonymous": false,
      "inputs": [
        {
          "indexed": true,
          "internalType": "uint256",
          "name": "id",
          "type": "uint256"
        },
        {
          "indexed": true,
          "internalType": "address",
          "name": "pledger",
          "type": "address"
        },
        {
          "indexed": false,
          "internalType": "uint256",
          "name": "amount",
          "type": "uint256"
        }
      ],
      "name": "Pledged",
      "type": "event"
    },
    {
      "anonymous": false,
      "inputs": [
        {
          "indexed": true,
          "internalType": "uint256",
          "name": "id",
          "type": "uint256"
        },
        {
          "indexed": true,
          "internalType": "uint256",
          "name": "goal_id",
          "type": "uint256"
        },
        {
          "indexed": true,
          "internalType": "address",
          "name": "attachBy",
          "type": "address"
        }
      ],
      "name": "ProofAttached",
      "type": "event"
    },
    {
      "anonymous": false,
      "inputs": [
        {
          "indexed": true,
          "internalType": "uint256",
          "name": "id",
          "type": "uint256"
        },
        {
          "indexed": true,
          "internalType": "uint256",
          "name": "goal_id",
          "type": "uint256"
        },
        {
          "indexed": false,
          "internalType": "enum CrowdfundInterface.GoalStatus",
          "name": "status",
          "type": "uint8"
        }
      ],
      "name": "ProofValidated",
      "type": "event"
    },
    {
      "anonymous": false,
      "inputs": [
        {
          "indexed": true,
          "internalType": "bytes32",
          "name": "role",
          "type": "bytes32"
        },
        {
          "indexed": true,
          "internalType": "bytes32",
          "name": "previousAdminRole",
          "type": "bytes32"
        },
        {
          "indexed": true,
          "internalType": "bytes32",
          "name": "newAdminRole",
          "type": "bytes32"
        }
      ],
      "name": "RoleAdminChanged",
      "type": "event"
    },
    {
      "anonymous": false,
      "inputs": [
        {
          "indexed": true,
          "internalType": "bytes32",
          "name": "role",
          "type": "bytes32"
        },
        {
          "indexed": true,
          "internalType": "address",
          "name": "account",
          "type": "address"
        },
        {
          "indexed": true,
          "internalType": "address",
          "name": "sender",
          "type": "address"
        }
      ],
      "name": "RoleGranted",
      "type": "event"
    },
    {
      "anonymous": false,
      "inputs": [
        {
          "indexed": true,
          "internalType": "bytes32",
          "name": "role",
          "type": "bytes32"
        },
        {
          "indexed": true,
          "internalType": "address",
          "name": "account",
          "type": "address"
        },
        {
          "indexed": true,
          "internalType": "address",
          "name": "sender",
          "type": "address"
        }
      ],
      "name": "RoleRevoked",
      "type": "event"
    },
    {
      "anonymous": false,
      "inputs": [
        {
          "indexed": false,
          "internalType": "address",
          "name": "account",
          "type": "address"
        }
      ],
      "name": "Unpaused",
      "type": "event"
    },
    {
      "anonymous": false,
      "inputs": [
        {
          "indexed": true,
          "internalType": "uint256",
          "name": "id",
          "type": "uint256"
        },
        {
          "indexed": true,
          "internalType": "address",
          "name": "pledger",
          "type": "address"
        }
      ],
      "name": "Unpledged",
      "type": "event"
    },
    {
      "inputs": [],
      "name": "DEFAULT_ADMIN_ROLE",
      "outputs": [
        {
          "internalType": "bytes32",
          "name": "",
          "type": "bytes32"
        }
      ],
      "stateMutability": "view",
      "type": "function"
    },
    {
      "inputs": [],
      "name": "VALIDATOR_ROLE",
      "outputs": [
        {
          "internalType": "bytes32",
          "name": "",
          "type": "bytes32"
        }
      ],
      "stateMutability": "view",
      "type": "function"
    },
    {
      "inputs": [],
      "name": "VOTER_ROLE",
      "outputs": [
        {
          "internalType": "bytes32",
          "name": "",
          "type": "bytes32"
        }
      ],
      "stateMutability": "view",
      "type": "function"
    },
    {
      "inputs": [
        {
          "internalType": "uint256",
          "name": "_id",
          "type": "uint256"
        },
        {
          "components": [
            {
              "internalType": "uint256",
              "name": "id",
              "type": "uint256"
            },
            {
              "internalType": "uint256",
              "name": "price",
              "type": "uint256"
            }
          ],
          "internalType": "struct CrowdfundInterface.NewGoal[]",
          "name": "_goals",
          "type": "tuple[]"
        }
      ],
      "name": "addGoals",
      "outputs": [],
      "stateMutability": "nonpayable",
      "type": "function"
    },
    {
      "inputs": [
        {
          "internalType": "uint256",
          "name": "_id",
          "type": "uint256"
        },
        {
          "internalType": "uint256",
          "name": "_goal_id",
          "type": "uint256"
        },
        {
          "internalType": "string",
          "name": "_goal_proof",
          "type": "string"
        }
      ],
      "name": "attachProof",
      "outputs": [],
      "stateMutability": "nonpayable",
      "type": "function"
    },
    {
      "inputs": [
        {
          "internalType": "uint256",
          "name": "",
          "type": "uint256"
        }
      ],
      "name": "campaigns",
      "outputs": [
        {
          "internalType": "address",
          "name": "creator",
          "type": "address"
        },
        {
          "internalType": "enum CrowdfundInterface.CampaignStatus",
          "name": "status",
          "type": "uint8"
        },
        {
          "internalType": "uint256",
          "name": "startAt",
          "type": "uint256"
        },
        {
          "internalType": "uint256",
          "name": "endAt",
          "type": "uint256"
        },
        {
          "internalType": "uint256",
          "name": "votes",
          "type": "uint256"
        },
        {
          "internalType": "uint256",
          "name": "goals",
          "type": "uint256"
        }
      ],
      "stateMutability": "view",
      "type": "function"
    },
    {
      "inputs": [
        {
          "internalType": "uint256",
          "name": "_id",
          "type": "uint256"
        }
      ],
      "name": "cancel",
      "outputs": [],
      "stateMutability": "nonpayable",
      "type": "function"
    },
    {
      "inputs": [
        {
          "internalType": "uint256",
          "name": "_id",
          "type": "uint256"
        },
        {
          "internalType": "uint256",
          "name": "_goalId",
          "type": "uint256"
        }
      ],
      "name": "claimGoal",
      "outputs": [],
      "stateMutability": "nonpayable",
      "type": "function"
    },
    {
      "inputs": [],
      "name": "count",
      "outputs": [
        {
          "internalType": "uint256",
          "name": "",
          "type": "uint256"
        }
      ],
      "stateMutability": "view",
      "type": "function"
    },
    {
      "inputs": [
        {
          "internalType": "uint256",
          "name": "_goals",
          "type": "uint256"
        },
        {
          "internalType": "uint256",
          "name": "_startAt",
          "type": "uint256"
        },
        {
          "internalType": "uint256",
          "name": "_endAt",
          "type": "uint256"
        }
      ],
      "name": "create",
      "outputs": [],
      "stateMutability": "nonpayable",
      "type": "function"
    },
    {
      "inputs": [
        {
          "internalType": "uint256",
          "name": "",
          "type": "uint256"
        }
      ],
      "name": "funds",
      "outputs": [
        {
          "internalType": "uint256",
          "name": "eth",
          "type": "uint256"
        },
        {
          "internalType": "uint256",
          "name": "tokens",
          "type": "uint256"
        }
      ],
      "stateMutability": "view",
      "type": "function"
    },
    {
      "inputs": [],
      "name": "getCampaigns",
      "outputs": [
        {
          "components": [
            {
              "internalType": "address",
              "name": "creator",
              "type": "address"
            },
            {
              "internalType": "enum CrowdfundInterface.CampaignStatus",
              "name": "status",
              "type": "uint8"
            },
            {
              "internalType": "uint256",
              "name": "startAt",
              "type": "uint256"
            },
            {
              "internalType": "uint256",
              "name": "endAt",
              "type": "uint256"
            },
            {
              "internalType": "uint256",
              "name": "votes",
              "type": "uint256"
            },
            {
              "internalType": "uint256",
              "name": "goals",
              "type": "uint256"
            }
          ],
          "internalType": "struct CrowdfundInterface.Campaign[]",
          "name": "",
          "type": "tuple[]"
        }
      ],
      "stateMutability": "view",
      "type": "function"
    },
    {
      "inputs": [
        {
          "internalType": "uint256",
          "name": "_id",
          "type": "uint256"
        }
      ],
      "name": "getGoals",
      "outputs": [
        {
          "components": [
            {
              "internalType": "uint256",
              "name": "id",
              "type": "uint256"
            },
            {
              "internalType": "uint256",
              "name": "price",
              "type": "uint256"
            },
            {
              "internalType": "enum CrowdfundInterface.GoalStatus",
              "name": "status",
              "type": "uint8"
            },
            {
              "internalType": "string",
              "name": "proof",
              "type": "string"
            }
          ],
          "internalType": "struct CrowdfundInterface.Goal[]",
          "name": "",
          "type": "tuple[]"
        }
      ],
      "stateMutability": "view",
      "type": "function"
    },
    {
      "inputs": [
        {
          "internalType": "bytes32",
          "name": "role",
          "type": "bytes32"
        }
      ],
      "name": "getRoleAdmin",
      "outputs": [
        {
          "internalType": "bytes32",
          "name": "",
          "type": "bytes32"
        }
      ],
      "stateMutability": "view",
      "type": "function"
    },
    {
      "inputs": [
        {
          "internalType": "uint256",
          "name": "",
          "type": "uint256"
        },
        {
          "internalType": "uint256",
          "name": "",
          "type": "uint256"
        }
      ],
      "name": "goals",
      "outputs": [
        {
          "internalType": "uint256",
          "name": "id",
          "type": "uint256"
        },
        {
          "internalType": "uint256",
          "name": "price",
          "type": "uint256"
        },
        {
          "internalType": "enum CrowdfundInterface.GoalStatus",
          "name": "status",
          "type": "uint8"
        },
        {
          "internalType": "string",
          "name": "proof",
          "type": "string"
        }
      ],
      "stateMutability": "view",
      "type": "function"
    },
    {
      "inputs": [
        {
          "internalType": "bytes32",
          "name": "role",
          "type": "bytes32"
        },
        {
          "internalType": "address",
          "name": "account",
          "type": "address"
        }
      ],
      "name": "grantRole",
      "outputs": [],
      "stateMutability": "nonpayable",
      "type": "function"
    },
    {
      "inputs": [
        {
          "internalType": "address",
          "name": "_address",
          "type": "address"
        }
      ],
      "name": "grantValidatorRole",
      "outputs": [],
      "stateMutability": "nonpayable",
      "type": "function"
    },
    {
      "inputs": [
        {
          "internalType": "address",
          "name": "_address",
          "type": "address"
        }
      ],
      "name": "grantVoterRole",
      "outputs": [],
      "stateMutability": "nonpayable",
      "type": "function"
    },
    {
      "inputs": [
        {
          "internalType": "bytes32",
          "name": "role",
          "type": "bytes32"
        },
        {
          "internalType": "address",
          "name": "account",
          "type": "address"
        }
      ],
      "name": "hasRole",
      "outputs": [
        {
          "internalType": "bool",
          "name": "",
          "type": "bool"
        }
      ],
      "stateMutability": "view",
      "type": "function"
    },
    {
      "inputs": [],
      "name": "maxDuration",
      "outputs": [
        {
          "internalType": "uint256",
          "name": "",
          "type": "uint256"
        }
      ],
      "stateMutability": "view",
      "type": "function"
    },
    {
      "inputs": [],
      "name": "minVotes",
      "outputs": [
        {
          "internalType": "uint256",
          "name": "",
          "type": "uint256"
        }
      ],
      "stateMutability": "view",
      "type": "function"
    },
    {
      "inputs": [],
      "name": "owner",
      "outputs": [
        {
          "internalType": "address",
          "name": "",
          "type": "address"
        }
      ],
      "stateMutability": "view",
      "type": "function"
    },
    {
      "inputs": [],
      "name": "pause",
      "outputs": [],
      "stateMutability": "nonpayable",
      "type": "function"
    },
    {
      "inputs": [],
      "name": "paused",
      "outputs": [
        {
          "internalType": "bool",
          "name": "",
          "type": "bool"
        }
      ],
      "stateMutability": "view",
      "type": "function"
    },
    {
      "inputs": [
        {
          "internalType": "uint256",
          "name": "_id",
          "type": "uint256"
        },
        {
          "internalType": "uint256",
          "name": "_amount",
          "type": "uint256"
        }
      ],
      "name": "pledge",
      "outputs": [],
      "stateMutability": "payable",
      "type": "function"
    },
    {
      "inputs": [
        {
          "internalType": "uint256",
          "name": "",
          "type": "uint256"
        },
        {
          "internalType": "address",
          "name": "",
          "type": "address"
        }
      ],
      "name": "pledgedAmount",
      "outputs": [
        {
          "internalType": "uint256",
          "name": "eth",
          "type": "uint256"
        },
        {
          "internalType": "uint256",
          "name": "tokens",
          "type": "uint256"
        }
      ],
      "stateMutability": "view",
      "type": "function"
    },
    {
      "inputs": [],
      "name": "renounceOwnership",
      "outputs": [],
      "stateMutability": "nonpayable",
      "type": "function"
    },
    {
      "inputs": [
        {
          "internalType": "bytes32",
          "name": "role",
          "type": "bytes32"
        },
        {
          "internalType": "address",
          "name": "account",
          "type": "address"
        }
      ],
      "name": "renounceRole",
      "outputs": [],
      "stateMutability": "nonpayable",
      "type": "function"
    },
    {
      "inputs": [
        {
          "internalType": "bytes32",
          "name": "role",
          "type": "bytes32"
        },
        {
          "internalType": "address",
          "name": "account",
          "type": "address"
        }
      ],
      "name": "revokeRole",
      "outputs": [],
      "stateMutability": "nonpayable",
      "type": "function"
    },
    {
      "inputs": [
        {
          "internalType": "address",
          "name": "_address",
          "type": "address"
        }
      ],
      "name": "revokeValidatorRole",
      "outputs": [],
      "stateMutability": "nonpayable",
      "type": "function"
    },
    {
      "inputs": [
        {
          "internalType": "address",
          "name": "_address",
          "type": "address"
        }
      ],
      "name": "revokeVoterRole",
      "outputs": [],
      "stateMutability": "nonpayable",
      "type": "function"
    },
    {
      "inputs": [
        {
          "internalType": "bytes4",
          "name": "interfaceId",
          "type": "bytes4"
        }
      ],
      "name": "supportsInterface",
      "outputs": [
        {
          "internalType": "bool",
          "name": "",
          "type": "bool"
        }
      ],
      "stateMutability": "view",
      "type": "function"
    },
    {
      "inputs": [],
      "name": "token",
      "outputs": [
        {
          "internalType": "contract IERC20",
          "name": "",
          "type": "address"
        }
      ],
      "stateMutability": "view",
      "type": "function"
    },
    {
      "inputs": [
        {
          "internalType": "address",
          "name": "newOwner",
          "type": "address"
        }
      ],
      "name": "transferOwnership",
      "outputs": [],
      "stateMutability": "nonpayable",
      "type": "function"
    },
    {
      "inputs": [],
      "name": "unpause",
      "outputs": [],
      "stateMutability": "nonpayable",
      "type": "function"
    },
    {
      "inputs": [
        {
          "internalType": "uint256",
          "name": "_id",
          "type": "uint256"
        }
      ],
      "name": "unpledge",
      "outputs": [],
      "stateMutability": "nonpayable",
      "type": "function"
    },
    {
      "inputs": [],
      "name": "updateCampaigns",
      "outputs": [],
      "stateMutability": "nonpayable",
      "type": "function"
    },
    {
      "inputs": [
        {
          "internalType": "uint256",
          "name": "_id",
          "type": "uint256"
        },
        {
          "internalType": "uint256",
          "name": "_goal_id",
          "type": "uint256"
        },
        {
          "internalType": "enum CrowdfundInterface.GoalStatus",
          "name": "_status",
          "type": "uint8"
        }
      ],
      "name": "validateProof",
      "outputs": [],
      "stateMutability": "nonpayable",
      "type": "function"
    },
    {
      "inputs": [
        {
          "internalType": "uint256",
          "name": "_id",
          "type": "uint256"
        }
      ],
      "name": "voteCampaign",
      "outputs": [],
      "stateMutability": "nonpayable",
      "type": "function"
    },
    {
      "inputs": [
        {
          "internalType": "address",
          "name": "",
          "type": "address"
        },
        {
          "internalType": "uint256",
          "name": "",
          "type": "uint256"
        }
      ],
      "name": "votes",
      "outputs": [
        {
          "internalType": "bool",
          "name": "",
          "type": "bool"
        }
      ],
      "stateMutability": "view",
      "type": "function"
    }
  ],
  "bytecode": "0x60a06040523480156200001157600080fd5b50604051620048a5380380620048a58339810160408190526200003491620000eb565b6200003f336200007e565b6000805460ff60a01b191690556001600160a01b03938416608052600492909255600555600280546001600160a01b0319169190921617905562000136565b600080546001600160a01b038381166001600160a01b0319831681178455604051919092169283917f8be0079c531659141344cd1fd0a4f28419497f9722a3daafe3b4186f6b6457e09190a35050565b80516001600160a01b0381168114620000e657600080fd5b919050565b600080600080608085870312156200010257600080fd5b6200010d85620000ce565b935060208501519250604085015191506200012b60608601620000ce565b905092959194509250565b60805161473e62000167600039600081816108f701528181610ef80152818161272b0152613313015261473e6000f3fe6080604052600436106102bb5760003560e01c80638456cb591161016e578063a94015c8116100cb578063d547741f1161007f578063f6100a9511610064578063f6100a95146108d0578063fc0c546a146108e5578063fde327be1461091957600080fd5b8063d547741f14610890578063f2fde38b146108b057600080fd5b8063c49baebe116100b0578063c49baebe1461081c578063c7258ba614610850578063c97fe94b1461087057600080fd5b8063a94015c8146107a9578063aa4fb63a146107dd57600080fd5b80639f2524ee11610122578063a2ad60c911610107578063a2ad60c91461073a578063a50ef07b1461075a578063a6b036331461078757600080fd5b80639f2524ee146106ea578063a217fddf1461072557600080fd5b80638da5cb5b116101535780638da5cb5b1461062b57806391d14854146106775780639313f554146106ca57600080fd5b80638456cb59146105f65780638ae647df1461060b57600080fd5b80633f4ba83a1161021c5780635d0a8c54116101d05780636db5c8fd116101b55780636db5c8fd14610582578063715018a6146105985780637b8e8895146105ad57600080fd5b80635d0a8c54146105425780635f7ec46d1461056257600080fd5b806351441b6f1161020157806351441b6f146104c257806356e43fcf146104e25780635c975abb1461051257600080fd5b80633f4ba83a1461048d57806340e58ee5146104a257600080fd5b8063248a9ca3116102735780632f2ff15d116102585780632f2ff15d1461043757806336568abe146104575780633cc228fd1461047757600080fd5b8063248a9ca3146103e6578063295142041461041757600080fd5b806306661abd116102a457806306661abd146103175780630d9c6e161461033b578063141961bc1461035b57600080fd5b806301ffc9a7146102c057806302af2b12146102f5575b600080fd5b3480156102cc57600080fd5b506102e06102db366004613c38565b61092c565b60405190151581526020015b60405180910390f35b34801561030157600080fd5b50610315610310366004613c7a565b6109c5565b005b34801561032357600080fd5b5061032d60035481565b6040519081526020016102ec565b34801561034757600080fd5b50610315610356366004613c9c565b611043565b34801561036757600080fd5b506103d4610376366004613cd9565b6006602052600090815260409020805460018201546002830154600384015460049094015473ffffffffffffffffffffffffffffffffffffffff8416947401000000000000000000000000000000000000000090940460ff16939086565b6040516102ec96959493929190613d35565b3480156103f257600080fd5b5061032d610401366004613cd9565b6000908152600160208190526040909120015490565b34801561042357600080fd5b50610315610432366004613dab565b611397565b34801561044357600080fd5b50610315610452366004613dc6565b6113cc565b34801561046357600080fd5b50610315610472366004613dc6565b6113f7565b34801561048357600080fd5b5061032d60055481565b34801561049957600080fd5b506103156114aa565b3480156104ae57600080fd5b506103156104bd366004613cd9565b6114bc565b3480156104ce57600080fd5b506103156104dd366004613dab565b611676565b3480156104ee57600080fd5b506105026104fd366004613c7a565b6116a8565b6040516102ec9493929190613e70565b34801561051e57600080fd5b5060005474010000000000000000000000000000000000000000900460ff166102e0565b34801561054e57600080fd5b5061031561055d366004613ea6565b61176a565b34801561056e57600080fd5b5061031561057d366004613cd9565b611acc565b34801561058e57600080fd5b5061032d60045481565b3480156105a457600080fd5b50610315611d4c565b3480156105b957600080fd5b506105e16105c8366004613cd9565b6007602052600090815260409020805460019091015482565b604080519283526020830191909152016102ec565b34801561060257600080fd5b50610315611d5e565b34801561061757600080fd5b50610315610626366004613dab565b611d6e565b34801561063757600080fd5b5060005473ffffffffffffffffffffffffffffffffffffffff165b60405173ffffffffffffffffffffffffffffffffffffffff90911681526020016102ec565b34801561068357600080fd5b506102e0610692366004613dc6565b600091825260016020908152604080842073ffffffffffffffffffffffffffffffffffffffff93909316845291905290205460ff1690565b3480156106d657600080fd5b506103156106e5366004613f25565b611da0565b3480156106f657600080fd5b506102e0610705366004613fa5565b600960209081526000928352604080842090915290825290205460ff1681565b34801561073157600080fd5b5061032d600081565b34801561074657600080fd5b50610315610755366004613dab565b61203f565b34801561076657600080fd5b5061077a610775366004613cd9565b612071565b6040516102ec9190613fcf565b34801561079357600080fd5b5061079c612230565b6040516102ec9190614080565b3480156107b557600080fd5b5061032d7f72c3eec1760bf69946625c2d4fb8e44e2c806345041960b434674fb9ab3976cf81565b3480156107e957600080fd5b506105e16107f8366004613dc6565b600a6020908152600092835260408084209091529082529020805460019091015482565b34801561082857600080fd5b5061032d7f21702c8af46127c7fa207f89d0b0a8441bb32959a0ac7df790e9ab1a25c9892681565b34801561085c57600080fd5b5061031561086b366004613cd9565b6123bd565b34801561087c57600080fd5b5061031561088b366004614117565b612862565b34801561089c57600080fd5b506103156108ab366004613dc6565b612b24565b3480156108bc57600080fd5b506103156108cb366004613dab565b612b4a565b3480156108dc57600080fd5b50610315612bfe565b3480156108f157600080fd5b506106527f000000000000000000000000000000000000000000000000000000000000000081565b610315610927366004613c7a565b61306a565b60007fffffffff0000000000000000000000000000000000000000000000000000000082167f7965db0b0000000000000000000000000000000000000000000000000000000014806109bf57507f01ffc9a7000000000000000000000000000000000000000000000000000000007fffffffff000000000000000000000000000000000000000000000000000000008316145b92915050565b81600360008281526006602081905260409091205474010000000000000000000000000000000000000000900460ff1690811115610a0557610a05613cf2565b14610a71576040517f08c379a000000000000000000000000000000000000000000000000000000000815260206004820152601b60248201527f43616d706169676e206861736e2774207374617274656420796574000000000060448201526064015b60405180910390fd5b600083815260066020526040902054839073ffffffffffffffffffffffffffffffffffffffff163314610b00576040517f08c379a000000000000000000000000000000000000000000000000000000000815260206004820152601560248201527f4f6e6c792063616d706169676e2063726561746f7200000000000000000000006044820152606401610a68565b610b08613438565b8215610bb9576004600085815260086020526040812090610b2a600187614172565b815260208101919091526040016000206002015460ff166005811115610b5257610b52613cf2565b14610bb9576040517f08c379a000000000000000000000000000000000000000000000000000000000815260206004820152601e60248201527f50726576696f757320676f616c207761736e27742076616c69646174656400006044820152606401610a68565b600254604080517ffeaf968c000000000000000000000000000000000000000000000000000000008152905160009273ffffffffffffffffffffffffffffffffffffffff169163feaf968c9160048083019260a09291908290030181865afa158015610c29573d6000803e3d6000fd5b505050506040513d601f19601f82011682018060405250810190610c4d919061419f565b5050506000878152600760205260408120549193509150610c6f9083906141ef565b600087815260086020908152604080832089845282528083206001908101548b8552600790935292209091015491925090610caa9083614206565b11610d11576040517f08c379a000000000000000000000000000000000000000000000000000000000815260206004820152601060248201527f4e6f7420656e6f756768206d6f6e6579000000000000000000000000000000006044820152606401610a68565b600086815260086020908152604080832088845282528083206001908101548a855260079093529220909101541015610e44576000868152600760209081526040808320600190810154600884528285208a865290935290832001548491610d7891614172565b610d829084614172565b610d8c9190614219565b604051909150600090339083908381818185875af1925050503d8060008114610dd1576040519150601f19603f3d011682016040523d82523d6000602084013e610dd6565b606091505b5050905080610e41576040517f08c379a000000000000000000000000000000000000000000000000000000000815260206004820152601460248201527f457468207472616e73666572206661696c65642e0000000000000000000000006044820152606401610a68565b50505b600086815260086020908152604080832088845282528083206001908101548a8552600790935290832001805491929091610e80908490614172565b909155505060008681526006602090815260408083205460088352818420898552909252918290206001015491517fa9059cbb00000000000000000000000000000000000000000000000000000000815273ffffffffffffffffffffffffffffffffffffffff918216600482015260248101929092527f0000000000000000000000000000000000000000000000000000000000000000169063a9059cbb906044016020604051808303816000875af1158015610f41573d6000803e3d6000fd5b505050506040513d601f19601f82011682018060405250810190610f659190614254565b610fcb576040517f08c379a000000000000000000000000000000000000000000000000000000000815260206004820152600f60248201527f7472616e73666572206661696c656400000000000000000000000000000000006044820152606401610a68565b600086815260086020908152604080832088845290915280822060020180547fffffffffffffffffffffffffffffffffffffffffffffffffffffffffffffff00166005179055513391879189917f7dc52ccc132d69ac5da8c8551b654b8eb69f236992f6cf30c8f63afe0e5f6b7a91a4505050505050565b82600360008281526006602081905260409091205474010000000000000000000000000000000000000000900460ff169081111561108357611083613cf2565b146110ea576040517f08c379a000000000000000000000000000000000000000000000000000000000815260206004820152601b60248201527f43616d706169676e206861736e277420737461727465642079657400000000006044820152606401610a68565b60008481526006602052604090205484903373ffffffffffffffffffffffffffffffffffffffff9091160361117b576040517f08c379a000000000000000000000000000000000000000000000000000000000815260206004820152601560248201527f43726561746f722063616e277420646f207468697300000000000000000000006044820152606401610a68565b7f21702c8af46127c7fa207f89d0b0a8441bb32959a0ac7df790e9ab1a25c989266111a5816134bd565b6111ad613438565b6001600087815260086020908152604080832089845290915290206002015460ff1660058111156111e0576111e0613cf2565b14611247576040517f08c379a000000000000000000000000000000000000000000000000000000000815260206004820152601560248201527f43616e6e6f742076616c69646174652070726f6f6600000000000000000000006044820152606401610a68565b600284600581111561125b5761125b613cf2565b14806112785750600384600581111561127657611276613cf2565b145b806112945750600484600581111561129257611292613cf2565b145b6112fa576040517f08c379a000000000000000000000000000000000000000000000000000000000815260206004820152600d60248201527f496e76616c6964207374617465000000000000000000000000000000000000006044820152606401610a68565b6000868152600860209081526040808320888452909152902060020180548591907fffffffffffffffffffffffffffffffffffffffffffffffffffffffffffffff0016600183600581111561135157611351613cf2565b021790555084867f9b86a44baa47d97fc3dd03f6fc3a9af8de5350c87bc2eaab3ee7e4ac676d0704866040516113879190614276565b60405180910390a3505050505050565b61139f6134c7565b6113c97f21702c8af46127c7fa207f89d0b0a8441bb32959a0ac7df790e9ab1a25c9892682613548565b50565b600082815260016020819052604090912001546113e8816134bd565b6113f28383613603565b505050565b73ffffffffffffffffffffffffffffffffffffffff8116331461149c576040517f08c379a000000000000000000000000000000000000000000000000000000000815260206004820152602f60248201527f416363657373436f6e74726f6c3a2063616e206f6e6c792072656e6f756e636560448201527f20726f6c657320666f722073656c6600000000000000000000000000000000006064820152608401610a68565b6114a68282613548565b5050565b6114b26134c7565b6114ba6136c2565b565b600081815260066020526040902054819073ffffffffffffffffffffffffffffffffffffffff16331461154b576040517f08c379a000000000000000000000000000000000000000000000000000000000815260206004820152601560248201527f4f6e6c792063616d706169676e2063726561746f7200000000000000000000006044820152606401610a68565b611553613438565b600160008381526006602081905260409091205474010000000000000000000000000000000000000000900460ff169081111561159257611592613cf2565b146115f9576040517f08c379a000000000000000000000000000000000000000000000000000000000815260206004820152600d60248201527f43616e6e6f742063616e63656c000000000000000000000000000000000000006044820152606401610a68565b60008281526006602052604080822080547fffffffffffffffffffffff00000000000000000000000000000000000000000016815560018101839055600281018390556003810183905560040182905551339184917f844c792f3d122ddfe76f9173cd5b48de3087f78395e0f62b94f9d471c991dcb29190a35050565b61167e6134c7565b6113c97f72c3eec1760bf69946625c2d4fb8e44e2c806345041960b434674fb9ab3976cf82613603565b600860209081526000928352604080842090915290825290208054600182015460028301546003840180549394929360ff90921692916116e790614284565b80601f016020809104026020016040519081016040528092919081815260200182805461171390614284565b80156117605780601f1061173557610100808354040283529160200191611760565b820191906000526020600020905b81548152906001019060200180831161174357829003601f168201915b5050505050905084565b600083815260066020526040902054839073ffffffffffffffffffffffffffffffffffffffff1633146117f9576040517f08c379a000000000000000000000000000000000000000000000000000000000815260206004820152601560248201527f4f6e6c792063616d706169676e2063726561746f7200000000000000000000006044820152606401610a68565b83600160008281526006602081905260409091205474010000000000000000000000000000000000000000900460ff169081111561183957611839613cf2565b146118a0576040517f08c379a000000000000000000000000000000000000000000000000000000000815260206004820152601760248201527f43616d706169676e206973206e6f7420637265617465640000000000000000006044820152606401610a68565b6118a8613438565b6000858152600660205260409020600401548314611922576040517f08c379a000000000000000000000000000000000000000000000000000000000815260206004820152601760248201527f496e76616c6964206e756d626572206f6620676f616c730000000000000000006044820152606401610a68565b60005b83811015611a3d57604051806080016040528086868481811061194a5761194a6142d1565b90506040020160000135815260200186868481811061196b5761196b6142d1565b9050604002016020013581526020016000600581111561198d5761198d613cf2565b8152604080516020818101835260008083529381019190915289835260088152818320858452815291819020835181559183015160018084019190915590830151600283018054919290917fffffffffffffffffffffffffffffffffffffffffffffffffffffffffffffff001690836005811115611a0d57611a0d613cf2565b021790555060608201516003820190611a26908261437d565b509050508080611a3590614497565b915050611925565b506000858152600660205260409081902080547fffffffffffffffffffffff00ffffffffffffffffffffffffffffffffffffffff16740200000000000000000000000000000000000000001790555185907fa1c4bd19965809686035cfcd1d32d187f953b132ef1a40229e823a93524fa71190611abd90879087906144cf565b60405180910390a25050505050565b80600160008281526006602081905260409091205474010000000000000000000000000000000000000000900460ff1690811115611b0c57611b0c613cf2565b14611b73576040517f08c379a000000000000000000000000000000000000000000000000000000000815260206004820152601760248201527f43616d706169676e206973206e6f7420637265617465640000000000000000006044820152606401610a68565b60008281526006602052604090205482903373ffffffffffffffffffffffffffffffffffffffff90911603611c04576040517f08c379a000000000000000000000000000000000000000000000000000000000815260206004820152601560248201527f43726561746f722063616e277420646f207468697300000000000000000000006044820152606401610a68565b7f72c3eec1760bf69946625c2d4fb8e44e2c806345041960b434674fb9ab3976cf611c2e816134bd565b611c36613438565b33600090815260096020908152604080832087845290915290205460ff1615611cbb576040517f08c379a000000000000000000000000000000000000000000000000000000000815260206004820152600d60248201527f416c726561647920766f746564000000000000000000000000000000000000006044820152606401610a68565b336000908152600960209081526040808320878452825280832080547fffffffffffffffffffffffffffffffffffffffffffffffffffffffffffffff0016600117905560069091528120600301805491611d1483614497565b9091555050604051339085907f793623ac7427b9a1e958f0ada3c4ca2f1fa9d54655b5c2aff2de092e5386bb7e90600090a350505050565b611d546134c7565b6114ba600061373f565b611d666134c7565b6114ba6137b4565b611d766134c7565b6113c97f21702c8af46127c7fa207f89d0b0a8441bb32959a0ac7df790e9ab1a25c9892682613603565b83600360008281526006602081905260409091205474010000000000000000000000000000000000000000900460ff1690811115611de057611de0613cf2565b14611e47576040517f08c379a000000000000000000000000000000000000000000000000000000000815260206004820152601b60248201527f43616d706169676e206861736e277420737461727465642079657400000000006044820152606401610a68565b600085815260066020526040902054859073ffffffffffffffffffffffffffffffffffffffff163314611ed6576040517f08c379a000000000000000000000000000000000000000000000000000000000815260206004820152601560248201527f4f6e6c792063616d706169676e2063726561746f7200000000000000000000006044820152606401610a68565b611ede613438565b6005600087815260086020908152604080832089845290915290206002015460ff166005811115611f1157611f11613cf2565b1480611f4d57506002600087815260086020908152604080832089845290915290206002015460ff166005811115611f4b57611f4b613cf2565b145b611fb3576040517f08c379a000000000000000000000000000000000000000000000000000000000815260206004820152601360248201527f43616e6e6f74206174746163682070726f6f66000000000000000000000000006044820152606401610a68565b600086815260086020908152604080832088845290915290206002810180547fffffffffffffffffffffffffffffffffffffffffffffffffffffffffffffff00166001179055600301612007848683614516565b506040513390869088907f69d8873e2b98296a95fa140fab18bf7ef0ed4e67e63c9f221c8bc2fe1a1df8a890600090a4505050505050565b6120476134c7565b6113c97f72c3eec1760bf69946625c2d4fb8e44e2c806345041960b434674fb9ab3976cf82613548565b6000818152600660205260408120600401546060919067ffffffffffffffff81111561209f5761209f614300565b6040519080825280602002602001820160405280156120d857816020015b6120c5613bff565b8152602001906001900390816120bd5790505b50905060005b60008481526006602052604090206004015481101561222957604080516080810182526000868152600860209081528382208583528082528483208054855260018101548386015292869052905260020154909182019060ff16600581111561214957612149613cf2565b815260008681526008602090815260408083208684528252909120600301805491909201919061217890614284565b80601f01602080910402602001604051908101604052809291908181526020018280546121a490614284565b80156121f15780601f106121c6576101008083540402835291602001916121f1565b820191906000526020600020905b8154815290600101906020018083116121d457829003601f168201915b505050505081525082828151811061220b5761220b6142d1565b6020026020010181905250808061222190614497565b9150506120de565b5092915050565b6060600060035467ffffffffffffffff81111561224f5761224f614300565b6040519080825280602002602001820160405280156122ba57816020015b6122a76040805160c08101909152600080825260208201908152602001600081526020016000815260200160008152602001600081525090565b81526020019060019003908161226d5790505b50905060015b60035481116123b7576040805160c0810182526000838152600660208181529382205473ffffffffffffffffffffffffffffffffffffffff811684529185905280845291928301917401000000000000000000000000000000000000000090910460ff169081111561233457612334613cf2565b8152600083815260066020818152604080842060038101548387015260018082015492870192909252600281015460608701529387905291905260049091015460809092019190915283906123899084614172565b81518110612399576123996142d1565b602002602001018190525080806123af90614497565b9150506122c0565b50919050565b600460008281526006602081905260409091205474010000000000000000000000000000000000000000900460ff16908111156123fc576123fc613cf2565b14806124445750600660008281526006602081905260409091205474010000000000000000000000000000000000000000900460ff169081111561244257612442613cf2565b145b6124aa576040517f08c379a000000000000000000000000000000000000000000000000000000000815260206004820152600e60248201527f43616e277420756e706c656467650000000000000000000000000000000000006044820152606401610a68565b6000818152600a602090815260408083203384529091529020541515806124ec57506000818152600a6020908152604080832033845290915290206001015415155b612552576040517f08c379a000000000000000000000000000000000000000000000000000000000815260206004820152601360248201527f4e6f7468696e6720746f20756e706c65646765000000000000000000000000006044820152606401610a68565b6000818152600a6020908152604080832033845290915290205415612672576000818152600a60209081526040808320338452825280832054848452600790925282208054919290916125a6908490614172565b90915550506000818152600a602090815260408083203380855292528083205490518381818185875af1925050503d8060008114612600576040519150601f19603f3d011682016040523d82523d6000602084013e612605565b606091505b5050905080612670576040517f08c379a000000000000000000000000000000000000000000000000000000000815260206004820152601460248201527f457468207472616e73666572206661696c65642e0000000000000000000000006044820152606401610a68565b505b6000818152600a6020908152604080832033845290915290206001015415612813576000818152600a6020908152604080832033845282528083206001908101548585526007909352908320018054919290916126d0908490614172565b90915550506000818152600a60209081526040808320338085529252918290206001015491517fa9059cbb000000000000000000000000000000000000000000000000000000008152600481019190915260248101919091527f000000000000000000000000000000000000000000000000000000000000000073ffffffffffffffffffffffffffffffffffffffff169063a9059cbb906044016020604051808303816000875af1158015612789573d6000803e3d6000fd5b505050506040513d601f19601f820116820180604052508101906127ad9190614254565b612813576040517f08c379a000000000000000000000000000000000000000000000000000000000815260206004820152600f60248201527f7472616e73666572206661696c656400000000000000000000000000000000006044820152606401610a68565b6000818152600a6020908152604080832033808552925280832083815560010183905551909183917fb32327a436f8c174314a255814ac1ed96df4f05ae8c0a641fc49b9a649e3c5999190a350565b61286a613438565b428210156128d4576040517f08c379a000000000000000000000000000000000000000000000000000000000815260206004820152600d60248201527f496e76616c6964207374617274000000000000000000000000000000000000006044820152606401610a68565b81811161293d576040517f08c379a000000000000000000000000000000000000000000000000000000000815260206004820152600d60248201527f496e76616c69642072616e6765000000000000000000000000000000000000006044820152606401610a68565b60045461294a9042614206565b8111156129b3576040517f08c379a000000000000000000000000000000000000000000000000000000000815260206004820152601660248201527f496e76616c69642072616e6765206475726174696f6e000000000000000000006044820152606401610a68565b6001600360008282546129c69190614206565b90915550506040805160c0810190915233815260208101600181526020808201859052604080830185905260006060840181905260809093018790526003548352600680835292208351815473ffffffffffffffffffffffffffffffffffffffff9091167fffffffffffffffffffffffff0000000000000000000000000000000000000000821681178355928501519193919284927fffffffffffffffffffffff000000000000000000000000000000000000000000909216179074010000000000000000000000000000000000000000908490811115612aa957612aa9613cf2565b021790555060408201518160010155606082015181600201556080820151816003015560a082015181600401559050503373ffffffffffffffffffffffffffffffffffffffff166003547f633109eec20320eded000fc1e2634211aa7e92ba3f5b15faf6dcdafca05094e460405160405180910390a3505050565b60008281526001602081905260409091200154612b40816134bd565b6113f28383613548565b612b526134c7565b73ffffffffffffffffffffffffffffffffffffffff8116612bf5576040517f08c379a000000000000000000000000000000000000000000000000000000000815260206004820152602660248201527f4f776e61626c653a206e6577206f776e657220697320746865207a65726f206160448201527f64647265737300000000000000000000000000000000000000000000000000006064820152608401610a68565b6113c98161373f565b612c06613438565b60015b60035481116113c957600260008281526006602081905260409091205474010000000000000000000000000000000000000000900460ff1690811115612c5157612c51613cf2565b03612dad5760055460008281526006602052604090206003015410801590612c7d5750612c7d81613823565b15612d0d576000818152600660205260409081902080547fffffffffffffffffffffff00ffffffffffffffffffffffffffffffffffffffff16740300000000000000000000000000000000000000001790555181907fcdcab711d0187c599b8e09755a2b0c6d0d274c5ad0fd8fb5a9015da047d18bbb90612d0090600390614631565b60405180910390a2613058565b600081815260066020526040902060020154421115612da857600081815260066020819052604090912080547fffffffffffffffffffffff00ffffffffffffffffffffffffffffffffffffffff1674010000000000000000000000000000000000000000830217905550807fcdcab711d0187c599b8e09755a2b0c6d0d274c5ad0fd8fb5a9015da047d18bbb6006604051612d009190614631565b613058565b600360008281526006602081905260409091205474010000000000000000000000000000000000000000900460ff1690811115612dec57612dec613cf2565b0361305857612dfa81613823565b15612fcd576000818152600860209081526040808320600690925282206004015460059290612e2b90600190614172565b815260208101919091526040016000206002015460ff166005811115612e5357612e53613cf2565b03612ed6576000818152600660205260409081902080547fffffffffffffffffffffff00ffffffffffffffffffffffffffffffffffffffff16740500000000000000000000000000000000000000001790555181907fcdcab711d0187c599b8e09755a2b0c6d0d274c5ad0fd8fb5a9015da047d18bbb90612d0090600590614631565b60005b600082815260066020526040902060040154811015612fc7576003600083815260086020908152604080832085845290915290206002015460ff166005811115612f2557612f25613cf2565b03612fb5576000828152600660205260409081902080547fffffffffffffffffffffff00ffffffffffffffffffffffffffffffffffffffff16740400000000000000000000000000000000000000001790555182907fcdcab711d0187c599b8e09755a2b0c6d0d274c5ad0fd8fb5a9015da047d18bbb90612fa890600490614631565b60405180910390a2612fc7565b80612fbf81614497565b915050612ed9565b50613058565b600081815260066020819052604090912080547fffffffffffffffffffffff00ffffffffffffffffffffffffffffffffffffffff1674010000000000000000000000000000000000000000830217905550807fcdcab711d0187c599b8e09755a2b0c6d0d274c5ad0fd8fb5a9015da047d18bbb600660405161304f9190614631565b60405180910390a25b8061306281614497565b915050612c09565b81600360008281526006602081905260409091205474010000000000000000000000000000000000000000900460ff16908111156130aa576130aa613cf2565b14613111576040517f08c379a000000000000000000000000000000000000000000000000000000000815260206004820152601b60248201527f43616d706169676e206861736e277420737461727465642079657400000000006044820152606401610a68565b613119613438565b600360008481526006602081905260409091205474010000000000000000000000000000000000000000900460ff169081111561315857613158613cf2565b146131bf576040517f08c379a000000000000000000000000000000000000000000000000000000000815260206004820152601260248201527f596f752063616e206e6f7420706c6564676500000000000000000000000000006044820152606401610a68565b60003411806131ce5750600082115b613234576040517f08c379a000000000000000000000000000000000000000000000000000000000815260206004820152601060248201527f496e76616c69647320616d6f756e7473000000000000000000000000000000006044820152606401610a68565b6000838152600a60209081526040808320338452909152902034156132905760008481526007602052604081208054349290613271908490614206565b909155505080543490829060009061328a908490614206565b90915550505b82156132d857600084815260076020526040812060010180548592906132b7908490614206565b92505081905550828160010160008282546132d29190614206565b90915550505b6040517f23b872dd000000000000000000000000000000000000000000000000000000008152336004820152306024820152604481018490527f000000000000000000000000000000000000000000000000000000000000000073ffffffffffffffffffffffffffffffffffffffff16906323b872dd906064016020604051808303816000875af1158015613371573d6000803e3d6000fd5b505050506040513d601f19601f820116820180604052508101906133959190614254565b6133fb576040517f08c379a000000000000000000000000000000000000000000000000000000000815260206004820152600f60248201527f7472616e73666572206661696c656400000000000000000000000000000000006044820152606401610a68565b604051838152339085907f2757ac6a40883f4491cc56930ae964df9034e343e660d5179eb01e198336756b9060200160405180910390a350505050565b60005474010000000000000000000000000000000000000000900460ff16156114ba576040517f08c379a000000000000000000000000000000000000000000000000000000000815260206004820152601060248201527f5061757361626c653a20706175736564000000000000000000000000000000006044820152606401610a68565b6113c98133613858565b60005473ffffffffffffffffffffffffffffffffffffffff1633146114ba576040517f08c379a000000000000000000000000000000000000000000000000000000000815260206004820181905260248201527f4f776e61626c653a2063616c6c6572206973206e6f7420746865206f776e65726044820152606401610a68565b600082815260016020908152604080832073ffffffffffffffffffffffffffffffffffffffff8516845290915290205460ff16156114a657600082815260016020908152604080832073ffffffffffffffffffffffffffffffffffffffff8516808552925280832080547fffffffffffffffffffffffffffffffffffffffffffffffffffffffffffffff0016905551339285917ff6391f5c32d9c69d2a47ea670b442974b53935d1edc7fd64eb21e047a839171b9190a45050565b600082815260016020908152604080832073ffffffffffffffffffffffffffffffffffffffff8516845290915290205460ff166114a657600082815260016020818152604080842073ffffffffffffffffffffffffffffffffffffffff8616808652925280842080547fffffffffffffffffffffffffffffffffffffffffffffffffffffffffffffff00169093179092559051339285917f2f8788117e7eff1d82e926ec794901d17c78024a50270940304540a733656f0d9190a45050565b6136ca613912565b600080547fffffffffffffffffffffff00ffffffffffffffffffffffffffffffffffffffff1690557f5db9ee0a495bf2e6ff9c91a7834c1ba4fdd244a5e8aa4e537bd38aeae4b073aa335b60405173ffffffffffffffffffffffffffffffffffffffff909116815260200160405180910390a1565b6000805473ffffffffffffffffffffffffffffffffffffffff8381167fffffffffffffffffffffffff0000000000000000000000000000000000000000831681178455604051919092169283917f8be0079c531659141344cd1fd0a4f28419497f9722a3daafe3b4186f6b6457e09190a35050565b6137bc613438565b600080547fffffffffffffffffffffff00ffffffffffffffffffffffffffffffffffffffff16740100000000000000000000000000000000000000001790557f62e78cea01bee320cd4e420270b5ea74000d11b0c9f74754ebdbfc544b05a2586137153390565b60008181526006602052604081206002015442118015906109bf57505060009081526006602052604090206001015442101590565b600082815260016020908152604080832073ffffffffffffffffffffffffffffffffffffffff8516845290915290205460ff166114a65761389881613996565b6138a38360206139b5565b6040516020016138b492919061463f565b604080517fffffffffffffffffffffffffffffffffffffffffffffffffffffffffffffffe0818403018152908290527f08c379a0000000000000000000000000000000000000000000000000000000008252610a68916004016146c0565b60005474010000000000000000000000000000000000000000900460ff166114ba576040517f08c379a000000000000000000000000000000000000000000000000000000000815260206004820152601460248201527f5061757361626c653a206e6f74207061757365640000000000000000000000006044820152606401610a68565b60606109bf73ffffffffffffffffffffffffffffffffffffffff831660145b606060006139c48360026141ef565b6139cf906002614206565b67ffffffffffffffff8111156139e7576139e7614300565b6040519080825280601f01601f191660200182016040528015613a11576020820181803683370190505b5090507f300000000000000000000000000000000000000000000000000000000000000081600081518110613a4857613a486142d1565b60200101907effffffffffffffffffffffffffffffffffffffffffffffffffffffffffffff1916908160001a9053507f780000000000000000000000000000000000000000000000000000000000000081600181518110613aab57613aab6142d1565b60200101907effffffffffffffffffffffffffffffffffffffffffffffffffffffffffffff1916908160001a9053506000613ae78460026141ef565b613af2906001614206565b90505b6001811115613b8f577f303132333435363738396162636465660000000000000000000000000000000085600f1660108110613b3357613b336142d1565b1a60f81b828281518110613b4957613b496142d1565b60200101907effffffffffffffffffffffffffffffffffffffffffffffffffffffffffffff1916908160001a90535060049490941c93613b88816146d3565b9050613af5565b508315613bf8576040517f08c379a000000000000000000000000000000000000000000000000000000000815260206004820181905260248201527f537472696e67733a20686578206c656e67746820696e73756666696369656e746044820152606401610a68565b9392505050565b6040518060800160405280600081526020016000815260200160006005811115613c2b57613c2b613cf2565b8152602001606081525090565b600060208284031215613c4a57600080fd5b81357fffffffff0000000000000000000000000000000000000000000000000000000081168114613bf857600080fd5b60008060408385031215613c8d57600080fd5b50508035926020909101359150565b600080600060608486031215613cb157600080fd5b8335925060208401359150604084013560068110613cce57600080fd5b809150509250925092565b600060208284031215613ceb57600080fd5b5035919050565b7f4e487b7100000000000000000000000000000000000000000000000000000000600052602160045260246000fd5b60078110613d3157613d31613cf2565b9052565b73ffffffffffffffffffffffffffffffffffffffff8716815260c08101613d5f6020830188613d21565b8560408301528460608301528360808301528260a0830152979650505050505050565b803573ffffffffffffffffffffffffffffffffffffffff81168114613da657600080fd5b919050565b600060208284031215613dbd57600080fd5b613bf882613d82565b60008060408385031215613dd957600080fd5b82359150613de960208401613d82565b90509250929050565b60068110613d3157613d31613cf2565b60005b83811015613e1d578181015183820152602001613e05565b50506000910152565b60008151808452613e3e816020860160208601613e02565b601f017fffffffffffffffffffffffffffffffffffffffffffffffffffffffffffffffe0169290920160200192915050565b848152836020820152613e866040820184613df2565b608060608201526000613e9c6080830184613e26565b9695505050505050565b600080600060408486031215613ebb57600080fd5b83359250602084013567ffffffffffffffff80821115613eda57600080fd5b818601915086601f830112613eee57600080fd5b813581811115613efd57600080fd5b8760208260061b8501011115613f1257600080fd5b6020830194508093505050509250925092565b60008060008060608587031215613f3b57600080fd5b8435935060208501359250604085013567ffffffffffffffff80821115613f6157600080fd5b818701915087601f830112613f7557600080fd5b813581811115613f8457600080fd5b886020828501011115613f9657600080fd5b95989497505060200194505050565b60008060408385031215613fb857600080fd5b613fc183613d82565b946020939093013593505050565b60006020808301818452808551808352604092508286019150828160051b87010184880160005b83811015614072577fffffffffffffffffffffffffffffffffffffffffffffffffffffffffffffffc0898403018552815160808151855288820151898601528782015161404589870182613df2565b5060609182015191850181905261405e85820183613e26565b968901969450505090860190600101613ff6565b509098975050505050505050565b602080825282518282018190526000919060409081850190868401855b8281101561410a57815173ffffffffffffffffffffffffffffffffffffffff8151168552868101516140d188870182613d21565b508086015185870152606080820151908601526080808201519086015260a0908101519085015260c0909301929085019060010161409d565b5091979650505050505050565b60008060006060848603121561412c57600080fd5b505081359360208301359350604090920135919050565b7f4e487b7100000000000000000000000000000000000000000000000000000000600052601160045260246000fd5b818103818111156109bf576109bf614143565b805169ffffffffffffffffffff81168114613da657600080fd5b600080600080600060a086880312156141b757600080fd5b6141c086614185565b94506020860151935060408601519250606086015191506141e360808701614185565b90509295509295909350565b80820281158282048414176109bf576109bf614143565b808201808211156109bf576109bf614143565b60008261424f577f4e487b7100000000000000000000000000000000000000000000000000000000600052601260045260246000fd5b500490565b60006020828403121561426657600080fd5b81518015158114613bf857600080fd5b602081016109bf8284613df2565b600181811c9082168061429857607f821691505b6020821081036123b7577f4e487b7100000000000000000000000000000000000000000000000000000000600052602260045260246000fd5b7f4e487b7100000000000000000000000000000000000000000000000000000000600052603260045260246000fd5b7f4e487b7100000000000000000000000000000000000000000000000000000000600052604160045260246000fd5b601f8211156113f257600081815260208120601f850160051c810160208610156143565750805b601f850160051c820191505b8181101561437557828155600101614362565b505050505050565b815167ffffffffffffffff81111561439757614397614300565b6143ab816143a58454614284565b8461432f565b602080601f8311600181146143fe57600084156143c85750858301515b7fffffffffffffffffffffffffffffffffffffffffffffffffffffffffffffffff600386901b1c1916600185901b178555614375565b6000858152602081207fffffffffffffffffffffffffffffffffffffffffffffffffffffffffffffffe08616915b8281101561444b5788860151825594840194600190910190840161442c565b508582101561448757878501517fffffffffffffffffffffffffffffffffffffffffffffffffffffffffffffffff600388901b60f8161c191681555b5050505050600190811b01905550565b60007fffffffffffffffffffffffffffffffffffffffffffffffffffffffffffffffff82036144c8576144c8614143565b5060010190565b6020808252818101839052600090604080840186845b878110156145095781358352848201358584015291830191908301906001016144e5565b5090979650505050505050565b67ffffffffffffffff83111561452e5761452e614300565b6145428361453c8354614284565b8361432f565b6000601f841160018114614594576000851561455e5750838201355b7fffffffffffffffffffffffffffffffffffffffffffffffffffffffffffffffff600387901b1c1916600186901b17835561462a565b6000838152602090207fffffffffffffffffffffffffffffffffffffffffffffffffffffffffffffffe0861690835b828110156145e357868501358255602094850194600190920191016145c3565b508682101561461e577fffffffffffffffffffffffffffffffffffffffffffffffffffffffffffffffff60f88860031b161c19848701351681555b505060018560011b0183555b5050505050565b602081016109bf8284613d21565b7f416363657373436f6e74726f6c3a206163636f756e7420000000000000000000815260008351614677816017850160208801613e02565b7f206973206d697373696e6720726f6c652000000000000000000000000000000060179184019182015283516146b4816028840160208801613e02565b01602801949350505050565b602081526000613bf86020830184613e26565b6000816146e2576146e2614143565b507fffffffffffffffffffffffffffffffffffffffffffffffffffffffffffffffff019056fea264697066735822122073a076fb43a9f6690c603d412d67c36342336b75de0164bbcb5f18ead8ec5c3d64736f6c63430008120033",
  "linkReferences": {},
  "deployedLinkReferences": {}
}