{
  "_format": "hh-sol-artifact-1",
  "contractName": "CrowdFund",
  "sourceName": "contracts/Crowdfund.sol",
  "abi": [
    {
      "inputs": [
        {
          "internalType": "address",
          "name": "_token",
          "type": "address"
        },
        {
          "internalType": "uint256",
          "name": "_maxDuration",
          "type": "uint256"
        },
        {
          "internalType": "uint256",
          "name": "_minVotes",
          "type": "uint256"
        },
        {
          "internalType": "address",
          "name": "_feedAggregator",
          "type": "address"
        }
      ],
      "stateMutability": "nonpayable",
      "type": "constructor"
    },
    {
      "anonymous": false,
      "inputs": [
        {
          "indexed": true,
          "internalType": "uint256",
          "name": "id",
          "type": "uint256"
        },
        {
          "indexed": true,
          "internalType": "address",
          "name": "cancelled_by",
          "type": "address"
        }
      ],
      "name": "CampaignCancelled",
      "type": "event"
    },
    {
      "anonymous": false,
      "inputs": [
        {
          "indexed": true,
          "internalType": "uint256",
          "name": "id",
          "type": "uint256"
        },
        {
          "indexed": true,
          "internalType": "address",
          "name": "creator",
          "type": "address"
        }
      ],
      "name": "CampaignCreated",
      "type": "event"
    },
    {
      "anonymous": false,
      "inputs": [
        {
          "indexed": true,
          "internalType": "uint256",
          "name": "id",
          "type": "uint256"
        },
        {
          "indexed": false,
          "internalType": "enum CrowdfundInterface.CampaignStatus",
          "name": "status",
          "type": "uint8"
        }
      ],
      "name": "CampaignUpdated",
      "type": "event"
    },
    {
      "anonymous": false,
      "inputs": [
        {
          "indexed": true,
          "internalType": "uint256",
          "name": "id",
          "type": "uint256"
        },
        {
          "indexed": true,
          "internalType": "address",
          "name": "voter",
          "type": "address"
        }
      ],
      "name": "CampaignVoted",
      "type": "event"
    },
    {
      "anonymous": false,
      "inputs": [
        {
          "indexed": true,
          "internalType": "uint256",
          "name": "id",
          "type": "uint256"
        },
        {
          "indexed": false,
          "internalType": "uint256",
          "name": "votes",
          "type": "uint256"
        }
      ],
      "name": "CampaignVotesUpdated",
      "type": "event"
    },
    {
      "anonymous": false,
      "inputs": [
        {
          "indexed": true,
          "internalType": "uint256",
          "name": "id",
          "type": "uint256"
        },
        {
          "indexed": true,
          "internalType": "uint256",
          "name": "goal_id",
          "type": "uint256"
        },
        {
          "indexed": true,
          "internalType": "address",
          "name": "claimer",
          "type": "address"
        }
      ],
      "name": "GoalClaimed",
      "type": "event"
    },
    {
      "anonymous": false,
      "inputs": [
        {
          "indexed": true,
          "internalType": "uint256",
          "name": "id",
          "type": "uint256"
        },
        {
          "components": [
            {
              "internalType": "uint256",
              "name": "id",
              "type": "uint256"
            },
            {
              "internalType": "uint256",
              "name": "price",
              "type": "uint256"
            }
          ],
          "indexed": false,
          "internalType": "struct CrowdfundInterface.NewGoal[]",
          "name": "goals",
          "type": "tuple[]"
        }
      ],
      "name": "GoalsAdded",
      "type": "event"
    },
    {
      "anonymous": false,
      "inputs": [
        {
          "indexed": true,
          "internalType": "address",
          "name": "previousOwner",
          "type": "address"
        },
        {
          "indexed": true,
          "internalType": "address",
          "name": "newOwner",
          "type": "address"
        }
      ],
      "name": "OwnershipTransferred",
      "type": "event"
    },
    {
      "anonymous": false,
      "inputs": [
        {
          "indexed": false,
          "internalType": "address",
          "name": "account",
          "type": "address"
        }
      ],
      "name": "Paused",
      "type": "event"
    },
    {
      "anonymous": false,
      "inputs": [
        {
          "indexed": true,
          "internalType": "uint256",
          "name": "id",
          "type": "uint256"
        },
        {
          "indexed": true,
          "internalType": "address",
          "name": "pledger",
          "type": "address"
        },
        {
          "indexed": false,
          "internalType": "uint256",
          "name": "amount",
          "type": "uint256"
        }
      ],
      "name": "Pledged",
      "type": "event"
    },
    {
      "anonymous": false,
      "inputs": [
        {
          "indexed": true,
          "internalType": "uint256",
          "name": "id",
          "type": "uint256"
        },
        {
          "indexed": true,
          "internalType": "uint256",
          "name": "goal_id",
          "type": "uint256"
        },
        {
          "indexed": true,
          "internalType": "address",
          "name": "attachBy",
          "type": "address"
        }
      ],
      "name": "ProofAttached",
      "type": "event"
    },
    {
      "anonymous": false,
      "inputs": [
        {
          "indexed": true,
          "internalType": "uint256",
          "name": "id",
          "type": "uint256"
        },
        {
          "indexed": true,
          "internalType": "uint256",
          "name": "goal_id",
          "type": "uint256"
        },
        {
          "indexed": false,
          "internalType": "enum CrowdfundInterface.GoalStatus",
          "name": "status",
          "type": "uint8"
        }
      ],
      "name": "ProofValidated",
      "type": "event"
    },
    {
      "anonymous": false,
      "inputs": [
        {
          "indexed": true,
          "internalType": "bytes32",
          "name": "role",
          "type": "bytes32"
        },
        {
          "indexed": true,
          "internalType": "bytes32",
          "name": "previousAdminRole",
          "type": "bytes32"
        },
        {
          "indexed": true,
          "internalType": "bytes32",
          "name": "newAdminRole",
          "type": "bytes32"
        }
      ],
      "name": "RoleAdminChanged",
      "type": "event"
    },
    {
      "anonymous": false,
      "inputs": [
        {
          "indexed": true,
          "internalType": "bytes32",
          "name": "role",
          "type": "bytes32"
        },
        {
          "indexed": true,
          "internalType": "address",
          "name": "account",
          "type": "address"
        },
        {
          "indexed": true,
          "internalType": "address",
          "name": "sender",
          "type": "address"
        }
      ],
      "name": "RoleGranted",
      "type": "event"
    },
    {
      "anonymous": false,
      "inputs": [
        {
          "indexed": true,
          "internalType": "bytes32",
          "name": "role",
          "type": "bytes32"
        },
        {
          "indexed": true,
          "internalType": "address",
          "name": "account",
          "type": "address"
        },
        {
          "indexed": true,
          "internalType": "address",
          "name": "sender",
          "type": "address"
        }
      ],
      "name": "RoleRevoked",
      "type": "event"
    },
    {
      "anonymous": false,
      "inputs": [
        {
          "indexed": false,
          "internalType": "address",
          "name": "account",
          "type": "address"
        }
      ],
      "name": "Unpaused",
      "type": "event"
    },
    {
      "anonymous": false,
      "inputs": [
        {
          "indexed": true,
          "internalType": "uint256",
          "name": "id",
          "type": "uint256"
        },
        {
          "indexed": true,
          "internalType": "address",
          "name": "pledger",
          "type": "address"
        }
      ],
      "name": "Unpledged",
      "type": "event"
    },
    {
      "inputs": [],
      "name": "DEFAULT_ADMIN_ROLE",
      "outputs": [
        {
          "internalType": "bytes32",
          "name": "",
          "type": "bytes32"
        }
      ],
      "stateMutability": "view",
      "type": "function"
    },
    {
      "inputs": [],
      "name": "VALIDATOR_ROLE",
      "outputs": [
        {
          "internalType": "bytes32",
          "name": "",
          "type": "bytes32"
        }
      ],
      "stateMutability": "view",
      "type": "function"
    },
    {
      "inputs": [],
      "name": "VOTER_ROLE",
      "outputs": [
        {
          "internalType": "bytes32",
          "name": "",
          "type": "bytes32"
        }
      ],
      "stateMutability": "view",
      "type": "function"
    },
    {
      "inputs": [
        {
          "internalType": "uint256",
          "name": "_id",
          "type": "uint256"
        },
        {
          "components": [
            {
              "internalType": "uint256",
              "name": "id",
              "type": "uint256"
            },
            {
              "internalType": "uint256",
              "name": "price",
              "type": "uint256"
            }
          ],
          "internalType": "struct CrowdfundInterface.NewGoal[]",
          "name": "_goals",
          "type": "tuple[]"
        }
      ],
      "name": "addGoals",
      "outputs": [],
      "stateMutability": "nonpayable",
      "type": "function"
    },
    {
      "inputs": [
        {
          "internalType": "uint256",
          "name": "_id",
          "type": "uint256"
        },
        {
          "internalType": "uint256",
          "name": "_goal_id",
          "type": "uint256"
        },
        {
          "internalType": "string",
          "name": "_goal_proof",
          "type": "string"
        }
      ],
      "name": "attachProof",
      "outputs": [],
      "stateMutability": "nonpayable",
      "type": "function"
    },
    {
      "inputs": [
        {
          "internalType": "uint256",
          "name": "",
          "type": "uint256"
        }
      ],
      "name": "campaigns",
      "outputs": [
        {
          "internalType": "uint256",
          "name": "id",
          "type": "uint256"
        },
        {
          "internalType": "address",
          "name": "creator",
          "type": "address"
        },
        {
          "internalType": "enum CrowdfundInterface.CampaignStatus",
          "name": "status",
          "type": "uint8"
        },
        {
          "internalType": "uint256",
          "name": "startAt",
          "type": "uint256"
        },
        {
          "internalType": "uint256",
          "name": "endAt",
          "type": "uint256"
        },
        {
          "internalType": "uint256",
          "name": "votes",
          "type": "uint256"
        },
        {
          "internalType": "uint256",
          "name": "goals",
          "type": "uint256"
        }
      ],
      "stateMutability": "view",
      "type": "function"
    },
    {
      "inputs": [
        {
          "internalType": "uint256",
          "name": "_id",
          "type": "uint256"
        }
      ],
      "name": "cancel",
      "outputs": [],
      "stateMutability": "nonpayable",
      "type": "function"
    },
    {
      "inputs": [
        {
          "internalType": "uint256",
          "name": "_id",
          "type": "uint256"
        },
        {
          "internalType": "uint256",
          "name": "_goalId",
          "type": "uint256"
        }
      ],
      "name": "claimGoal",
      "outputs": [],
      "stateMutability": "nonpayable",
      "type": "function"
    },
    {
      "inputs": [],
      "name": "count",
      "outputs": [
        {
          "internalType": "uint256",
          "name": "",
          "type": "uint256"
        }
      ],
      "stateMutability": "view",
      "type": "function"
    },
    {
      "inputs": [
        {
          "internalType": "uint256",
          "name": "_goals",
          "type": "uint256"
        },
        {
          "internalType": "uint256",
          "name": "_startAt",
          "type": "uint256"
        },
        {
          "internalType": "uint256",
          "name": "_endAt",
          "type": "uint256"
        }
      ],
      "name": "create",
      "outputs": [],
      "stateMutability": "nonpayable",
      "type": "function"
    },
    {
      "inputs": [
        {
          "internalType": "uint256",
          "name": "",
          "type": "uint256"
        }
      ],
      "name": "funds",
      "outputs": [
        {
          "internalType": "uint256",
          "name": "eth",
          "type": "uint256"
        },
        {
          "internalType": "uint256",
          "name": "tokens",
          "type": "uint256"
        }
      ],
      "stateMutability": "view",
      "type": "function"
    },
    {
      "inputs": [],
      "name": "getCampaigns",
      "outputs": [
        {
          "components": [
            {
              "internalType": "uint256",
              "name": "id",
              "type": "uint256"
            },
            {
              "internalType": "address",
              "name": "creator",
              "type": "address"
            },
            {
              "internalType": "enum CrowdfundInterface.CampaignStatus",
              "name": "status",
              "type": "uint8"
            },
            {
              "internalType": "uint256",
              "name": "startAt",
              "type": "uint256"
            },
            {
              "internalType": "uint256",
              "name": "endAt",
              "type": "uint256"
            },
            {
              "internalType": "uint256",
              "name": "votes",
              "type": "uint256"
            },
            {
              "internalType": "uint256",
              "name": "goals",
              "type": "uint256"
            }
          ],
          "internalType": "struct CrowdfundInterface.Campaign[]",
          "name": "",
          "type": "tuple[]"
        }
      ],
      "stateMutability": "view",
      "type": "function"
    },
    {
      "inputs": [
        {
          "internalType": "uint256",
          "name": "_id",
          "type": "uint256"
        }
      ],
      "name": "getGoals",
      "outputs": [
        {
          "components": [
            {
              "internalType": "uint256",
              "name": "id",
              "type": "uint256"
            },
            {
              "internalType": "uint256",
              "name": "price",
              "type": "uint256"
            },
            {
              "internalType": "enum CrowdfundInterface.GoalStatus",
              "name": "status",
              "type": "uint8"
            },
            {
              "internalType": "string",
              "name": "proof",
              "type": "string"
            }
          ],
          "internalType": "struct CrowdfundInterface.Goal[]",
          "name": "",
          "type": "tuple[]"
        }
      ],
      "stateMutability": "view",
      "type": "function"
    },
    {
      "inputs": [
        {
          "internalType": "bytes32",
          "name": "role",
          "type": "bytes32"
        }
      ],
      "name": "getRoleAdmin",
      "outputs": [
        {
          "internalType": "bytes32",
          "name": "",
          "type": "bytes32"
        }
      ],
      "stateMutability": "view",
      "type": "function"
    },
    {
      "inputs": [
        {
          "internalType": "uint256",
          "name": "",
          "type": "uint256"
        },
        {
          "internalType": "uint256",
          "name": "",
          "type": "uint256"
        }
      ],
      "name": "goals",
      "outputs": [
        {
          "internalType": "uint256",
          "name": "id",
          "type": "uint256"
        },
        {
          "internalType": "uint256",
          "name": "price",
          "type": "uint256"
        },
        {
          "internalType": "enum CrowdfundInterface.GoalStatus",
          "name": "status",
          "type": "uint8"
        },
        {
          "internalType": "string",
          "name": "proof",
          "type": "string"
        }
      ],
      "stateMutability": "view",
      "type": "function"
    },
    {
      "inputs": [
        {
          "internalType": "bytes32",
          "name": "role",
          "type": "bytes32"
        },
        {
          "internalType": "address",
          "name": "account",
          "type": "address"
        }
      ],
      "name": "grantRole",
      "outputs": [],
      "stateMutability": "nonpayable",
      "type": "function"
    },
    {
      "inputs": [
        {
          "internalType": "address",
          "name": "_address",
          "type": "address"
        }
      ],
      "name": "grantValidatorRole",
      "outputs": [],
      "stateMutability": "nonpayable",
      "type": "function"
    },
    {
      "inputs": [
        {
          "internalType": "address",
          "name": "_address",
          "type": "address"
        }
      ],
      "name": "grantVoterRole",
      "outputs": [],
      "stateMutability": "nonpayable",
      "type": "function"
    },
    {
      "inputs": [
        {
          "internalType": "bytes32",
          "name": "role",
          "type": "bytes32"
        },
        {
          "internalType": "address",
          "name": "account",
          "type": "address"
        }
      ],
      "name": "hasRole",
      "outputs": [
        {
          "internalType": "bool",
          "name": "",
          "type": "bool"
        }
      ],
      "stateMutability": "view",
      "type": "function"
    },
    {
      "inputs": [],
      "name": "maxDuration",
      "outputs": [
        {
          "internalType": "uint256",
          "name": "",
          "type": "uint256"
        }
      ],
      "stateMutability": "view",
      "type": "function"
    },
    {
      "inputs": [],
      "name": "minVotes",
      "outputs": [
        {
          "internalType": "uint256",
          "name": "",
          "type": "uint256"
        }
      ],
      "stateMutability": "view",
      "type": "function"
    },
    {
      "inputs": [],
      "name": "owner",
      "outputs": [
        {
          "internalType": "address",
          "name": "",
          "type": "address"
        }
      ],
      "stateMutability": "view",
      "type": "function"
    },
    {
      "inputs": [],
      "name": "pause",
      "outputs": [],
      "stateMutability": "nonpayable",
      "type": "function"
    },
    {
      "inputs": [],
      "name": "paused",
      "outputs": [
        {
          "internalType": "bool",
          "name": "",
          "type": "bool"
        }
      ],
      "stateMutability": "view",
      "type": "function"
    },
    {
      "inputs": [
        {
          "internalType": "uint256",
          "name": "_id",
          "type": "uint256"
        },
        {
          "internalType": "uint256",
          "name": "_amount",
          "type": "uint256"
        }
      ],
      "name": "pledge",
      "outputs": [],
      "stateMutability": "payable",
      "type": "function"
    },
    {
      "inputs": [
        {
          "internalType": "uint256",
          "name": "",
          "type": "uint256"
        },
        {
          "internalType": "address",
          "name": "",
          "type": "address"
        }
      ],
      "name": "pledgedAmount",
      "outputs": [
        {
          "internalType": "uint256",
          "name": "eth",
          "type": "uint256"
        },
        {
          "internalType": "uint256",
          "name": "tokens",
          "type": "uint256"
        }
      ],
      "stateMutability": "view",
      "type": "function"
    },
    {
      "inputs": [],
      "name": "renounceOwnership",
      "outputs": [],
      "stateMutability": "nonpayable",
      "type": "function"
    },
    {
      "inputs": [
        {
          "internalType": "bytes32",
          "name": "role",
          "type": "bytes32"
        },
        {
          "internalType": "address",
          "name": "account",
          "type": "address"
        }
      ],
      "name": "renounceRole",
      "outputs": [],
      "stateMutability": "nonpayable",
      "type": "function"
    },
    {
      "inputs": [
        {
          "internalType": "bytes32",
          "name": "role",
          "type": "bytes32"
        },
        {
          "internalType": "address",
          "name": "account",
          "type": "address"
        }
      ],
      "name": "revokeRole",
      "outputs": [],
      "stateMutability": "nonpayable",
      "type": "function"
    },
    {
      "inputs": [
        {
          "internalType": "address",
          "name": "_address",
          "type": "address"
        }
      ],
      "name": "revokeValidatorRole",
      "outputs": [],
      "stateMutability": "nonpayable",
      "type": "function"
    },
    {
      "inputs": [
        {
          "internalType": "address",
          "name": "_address",
          "type": "address"
        }
      ],
      "name": "revokeVoterRole",
      "outputs": [],
      "stateMutability": "nonpayable",
      "type": "function"
    },
    {
      "inputs": [
        {
          "internalType": "bytes4",
          "name": "interfaceId",
          "type": "bytes4"
        }
      ],
      "name": "supportsInterface",
      "outputs": [
        {
          "internalType": "bool",
          "name": "",
          "type": "bool"
        }
      ],
      "stateMutability": "view",
      "type": "function"
    },
    {
      "inputs": [],
      "name": "token",
      "outputs": [
        {
          "internalType": "contract IERC20",
          "name": "",
          "type": "address"
        }
      ],
      "stateMutability": "view",
      "type": "function"
    },
    {
      "inputs": [
        {
          "internalType": "address",
          "name": "newOwner",
          "type": "address"
        }
      ],
      "name": "transferOwnership",
      "outputs": [],
      "stateMutability": "nonpayable",
      "type": "function"
    },
    {
      "inputs": [],
      "name": "unpause",
      "outputs": [],
      "stateMutability": "nonpayable",
      "type": "function"
    },
    {
      "inputs": [
        {
          "internalType": "uint256",
          "name": "_id",
          "type": "uint256"
        }
      ],
      "name": "unpledge",
      "outputs": [],
      "stateMutability": "nonpayable",
      "type": "function"
    },
    {
      "inputs": [],
      "name": "updateCampaigns",
      "outputs": [],
      "stateMutability": "nonpayable",
      "type": "function"
    },
    {
      "inputs": [
        {
          "internalType": "uint256",
          "name": "_id",
          "type": "uint256"
        },
        {
          "internalType": "uint256",
          "name": "_goal_id",
          "type": "uint256"
        },
        {
          "internalType": "enum CrowdfundInterface.GoalStatus",
          "name": "_status",
          "type": "uint8"
        }
      ],
      "name": "validateProof",
      "outputs": [],
      "stateMutability": "nonpayable",
      "type": "function"
    },
    {
      "inputs": [
        {
          "internalType": "uint256",
          "name": "_id",
          "type": "uint256"
        }
      ],
      "name": "voteCampaign",
      "outputs": [],
      "stateMutability": "nonpayable",
      "type": "function"
    },
    {
      "inputs": [
        {
          "internalType": "address",
          "name": "",
          "type": "address"
        },
        {
          "internalType": "uint256",
          "name": "",
          "type": "uint256"
        }
      ],
      "name": "votes",
      "outputs": [
        {
          "internalType": "bool",
          "name": "",
          "type": "bool"
        }
      ],
      "stateMutability": "view",
      "type": "function"
    }
  ],
  "bytecode": "0x60a06040523480156200001157600080fd5b5060405162004913380380620049138339810160408190526200003491620000eb565b6200003f336200007e565b6000805460ff60a01b191690556001600160a01b03938416608052600492909255600555600280546001600160a01b0319169190921617905562000136565b600080546001600160a01b038381166001600160a01b0319831681178455604051919092169283917f8be0079c531659141344cd1fd0a4f28419497f9722a3daafe3b4186f6b6457e09190a35050565b80516001600160a01b0381168114620000e657600080fd5b919050565b600080600080608085870312156200010257600080fd5b6200010d85620000ce565b935060208501519250604085015191506200012b60608601620000ce565b905092959194509250565b6080516147ac62000167600039600081816108fe01528181610f0a01528181612771015261337001526147ac6000f3fe6080604052600436106102bb5760003560e01c80638456cb591161016e578063a94015c8116100cb578063d547741f1161007f578063f6100a9511610064578063f6100a95146108d7578063fc0c546a146108ec578063fde327be1461092057600080fd5b8063d547741f14610897578063f2fde38b146108b757600080fd5b8063c49baebe116100b0578063c49baebe14610823578063c7258ba614610857578063c97fe94b1461087757600080fd5b8063a94015c8146107b0578063aa4fb63a146107e457600080fd5b80639f2524ee11610122578063a2ad60c911610107578063a2ad60c914610741578063a50ef07b14610761578063a6b036331461078e57600080fd5b80639f2524ee146106f1578063a217fddf1461072c57600080fd5b80638da5cb5b116101535780638da5cb5b1461063257806391d148541461067e5780639313f554146106d157600080fd5b80638456cb59146105fd5780638ae647df1461061257600080fd5b80633f4ba83a1161021c5780635d0a8c54116101d05780636db5c8fd116101b55780636db5c8fd14610589578063715018a61461059f5780637b8e8895146105b457600080fd5b80635d0a8c54146105495780635f7ec46d1461056957600080fd5b806351441b6f1161020157806351441b6f146104c957806356e43fcf146104e95780635c975abb1461051957600080fd5b80633f4ba83a1461049457806340e58ee5146104a957600080fd5b8063248a9ca3116102735780632f2ff15d116102585780632f2ff15d1461043e57806336568abe1461045e5780633cc228fd1461047e57600080fd5b8063248a9ca3146103ed578063295142041461041e57600080fd5b806306661abd116102a457806306661abd146103175780630d9c6e161461033b578063141961bc1461035b57600080fd5b806301ffc9a7146102c057806302af2b12146102f5575b600080fd5b3480156102cc57600080fd5b506102e06102db366004613c95565b610933565b60405190151581526020015b60405180910390f35b34801561030157600080fd5b50610315610310366004613cd7565b6109cc565b005b34801561032357600080fd5b5061032d60035481565b6040519081526020016102ec565b34801561034757600080fd5b50610315610356366004613cf9565b611055565b34801561036757600080fd5b506103da610376366004613d36565b600660205260009081526040902080546001820154600283015460038401546004850154600590950154939473ffffffffffffffffffffffffffffffffffffffff8416947401000000000000000000000000000000000000000090940460ff169387565b6040516102ec9796959493929190613d92565b3480156103f957600080fd5b5061032d610408366004613d36565b6000908152600160208190526040909120015490565b34801561042a57600080fd5b50610315610439366004613e0f565b6113af565b34801561044a57600080fd5b50610315610459366004613e2a565b6113e4565b34801561046a57600080fd5b50610315610479366004613e2a565b61140f565b34801561048a57600080fd5b5061032d60055481565b3480156104a057600080fd5b506103156114c2565b3480156104b557600080fd5b506103156104c4366004613d36565b6114d4565b3480156104d557600080fd5b506103156104e4366004613e0f565b61169b565b3480156104f557600080fd5b50610509610504366004613cd7565b6116cd565b6040516102ec9493929190613ed4565b34801561052557600080fd5b5060005474010000000000000000000000000000000000000000900460ff166102e0565b34801561055557600080fd5b50610315610564366004613f0a565b61178f565b34801561057557600080fd5b50610315610584366004613d36565b611afa565b34801561059557600080fd5b5061032d60045481565b3480156105ab57600080fd5b50610315611d80565b3480156105c057600080fd5b506105e86105cf366004613d36565b6007602052600090815260409020805460019091015482565b604080519283526020830191909152016102ec565b34801561060957600080fd5b50610315611d92565b34801561061e57600080fd5b5061031561062d366004613e0f565b611da2565b34801561063e57600080fd5b5060005473ffffffffffffffffffffffffffffffffffffffff165b60405173ffffffffffffffffffffffffffffffffffffffff90911681526020016102ec565b34801561068a57600080fd5b506102e0610699366004613e2a565b600091825260016020908152604080842073ffffffffffffffffffffffffffffffffffffffff93909316845291905290205460ff1690565b3480156106dd57600080fd5b506103156106ec366004613f89565b611dd4565b3480156106fd57600080fd5b506102e061070c366004614009565b600960209081526000928352604080842090915290825290205460ff1681565b34801561073857600080fd5b5061032d600081565b34801561074d57600080fd5b5061031561075c366004613e0f565b612079565b34801561076d57600080fd5b5061078161077c366004613d36565b6120ab565b6040516102ec9190614033565b34801561079a57600080fd5b506107a361226a565b6040516102ec91906140e4565b3480156107bc57600080fd5b5061032d7f72c3eec1760bf69946625c2d4fb8e44e2c806345041960b434674fb9ab3976cf81565b3480156107f057600080fd5b506105e86107ff366004613e2a565b600a6020908152600092835260408084209091529082529020805460019091015482565b34801561082f57600080fd5b5061032d7f21702c8af46127c7fa207f89d0b0a8441bb32959a0ac7df790e9ab1a25c9892681565b34801561086357600080fd5b50610315610872366004613d36565b6123fd565b34801561088357600080fd5b50610315610892366004614185565b6128a8565b3480156108a357600080fd5b506103156108b2366004613e2a565b612b65565b3480156108c357600080fd5b506103156108d2366004613e0f565b612b8b565b3480156108e357600080fd5b50610315612c3f565b3480156108f857600080fd5b506106597f000000000000000000000000000000000000000000000000000000000000000081565b61031561092e366004613cd7565b6130c1565b60007fffffffff0000000000000000000000000000000000000000000000000000000082167f7965db0b0000000000000000000000000000000000000000000000000000000014806109c657507f01ffc9a7000000000000000000000000000000000000000000000000000000007fffffffff000000000000000000000000000000000000000000000000000000008316145b92915050565b81600360008281526006602081905260409091206001015474010000000000000000000000000000000000000000900460ff1690811115610a0f57610a0f613d4f565b14610a7b576040517f08c379a000000000000000000000000000000000000000000000000000000000815260206004820152601b60248201527f43616d706169676e206861736e2774207374617274656420796574000000000060448201526064015b60405180910390fd5b600083815260066020526040902060010154839073ffffffffffffffffffffffffffffffffffffffff163314610b0d576040517f08c379a000000000000000000000000000000000000000000000000000000000815260206004820152601560248201527f4f6e6c792063616d706169676e2063726561746f7200000000000000000000006044820152606401610a72565b610b15613495565b8215610bc6576004600085815260086020526040812090610b376001876141e0565b815260208101919091526040016000206002015460ff166005811115610b5f57610b5f613d4f565b14610bc6576040517f08c379a000000000000000000000000000000000000000000000000000000000815260206004820152601e60248201527f50726576696f757320676f616c207761736e27742076616c69646174656400006044820152606401610a72565b600254604080517ffeaf968c000000000000000000000000000000000000000000000000000000008152905160009273ffffffffffffffffffffffffffffffffffffffff169163feaf968c9160048083019260a09291908290030181865afa158015610c36573d6000803e3d6000fd5b505050506040513d601f19601f82011682018060405250810190610c5a919061420d565b5050506000878152600760205260408120549193509150610c7c90839061425d565b600087815260086020908152604080832089845282528083206001908101548b8552600790935292209091015491925090610cb79083614274565b11610d1e576040517f08c379a000000000000000000000000000000000000000000000000000000000815260206004820152601060248201527f4e6f7420656e6f756768206d6f6e6579000000000000000000000000000000006044820152606401610a72565b600086815260086020908152604080832088845282528083206001908101548a855260079093529220909101541015610e51576000868152600760209081526040808320600190810154600884528285208a865290935290832001548491610d85916141e0565b610d8f90846141e0565b610d999190614287565b604051909150600090339083908381818185875af1925050503d8060008114610dde576040519150601f19603f3d011682016040523d82523d6000602084013e610de3565b606091505b5050905080610e4e576040517f08c379a000000000000000000000000000000000000000000000000000000000815260206004820152601460248201527f457468207472616e73666572206661696c65642e0000000000000000000000006044820152606401610a72565b50505b600086815260086020908152604080832088845282528083206001908101548a8552600790935290832001805491929091610e8d9084906141e0565b90915550506000868152600660209081526040808320600190810154600884528285208a8652909352928190209092015491517fa9059cbb00000000000000000000000000000000000000000000000000000000815273ffffffffffffffffffffffffffffffffffffffff918216600482015260248101929092527f0000000000000000000000000000000000000000000000000000000000000000169063a9059cbb906044016020604051808303816000875af1158015610f53573d6000803e3d6000fd5b505050506040513d601f19601f82011682018060405250810190610f7791906142c2565b610fdd576040517f08c379a000000000000000000000000000000000000000000000000000000000815260206004820152600f60248201527f7472616e73666572206661696c656400000000000000000000000000000000006044820152606401610a72565b600086815260086020908152604080832088845290915280822060020180547fffffffffffffffffffffffffffffffffffffffffffffffffffffffffffffff00166005179055513391879189917f7dc52ccc132d69ac5da8c8551b654b8eb69f236992f6cf30c8f63afe0e5f6b7a91a4505050505050565b82600360008281526006602081905260409091206001015474010000000000000000000000000000000000000000900460ff169081111561109857611098613d4f565b146110ff576040517f08c379a000000000000000000000000000000000000000000000000000000000815260206004820152601b60248201527f43616d706169676e206861736e277420737461727465642079657400000000006044820152606401610a72565b60008481526006602052604090206001015484903373ffffffffffffffffffffffffffffffffffffffff90911603611193576040517f08c379a000000000000000000000000000000000000000000000000000000000815260206004820152601560248201527f43726561746f722063616e277420646f207468697300000000000000000000006044820152606401610a72565b7f21702c8af46127c7fa207f89d0b0a8441bb32959a0ac7df790e9ab1a25c989266111bd8161351a565b6111c5613495565b6001600087815260086020908152604080832089845290915290206002015460ff1660058111156111f8576111f8613d4f565b1461125f576040517f08c379a000000000000000000000000000000000000000000000000000000000815260206004820152601560248201527f43616e6e6f742076616c69646174652070726f6f6600000000000000000000006044820152606401610a72565b600284600581111561127357611273613d4f565b14806112905750600384600581111561128e5761128e613d4f565b145b806112ac575060048460058111156112aa576112aa613d4f565b145b611312576040517f08c379a000000000000000000000000000000000000000000000000000000000815260206004820152600d60248201527f496e76616c6964207374617465000000000000000000000000000000000000006044820152606401610a72565b6000868152600860209081526040808320888452909152902060020180548591907fffffffffffffffffffffffffffffffffffffffffffffffffffffffffffffff0016600183600581111561136957611369613d4f565b021790555084867f9b86a44baa47d97fc3dd03f6fc3a9af8de5350c87bc2eaab3ee7e4ac676d07048660405161139f91906142e4565b60405180910390a3505050505050565b6113b7613524565b6113e17f21702c8af46127c7fa207f89d0b0a8441bb32959a0ac7df790e9ab1a25c98926826135a5565b50565b600082815260016020819052604090912001546114008161351a565b61140a8383613660565b505050565b73ffffffffffffffffffffffffffffffffffffffff811633146114b4576040517f08c379a000000000000000000000000000000000000000000000000000000000815260206004820152602f60248201527f416363657373436f6e74726f6c3a2063616e206f6e6c792072656e6f756e636560448201527f20726f6c657320666f722073656c6600000000000000000000000000000000006064820152608401610a72565b6114be82826135a5565b5050565b6114ca613524565b6114d261371f565b565b600081815260066020526040902060010154819073ffffffffffffffffffffffffffffffffffffffff163314611566576040517f08c379a000000000000000000000000000000000000000000000000000000000815260206004820152601560248201527f4f6e6c792063616d706169676e2063726561746f7200000000000000000000006044820152606401610a72565b61156e613495565b600160008381526006602081905260409091206001015474010000000000000000000000000000000000000000900460ff16908111156115b0576115b0613d4f565b14611617576040517f08c379a000000000000000000000000000000000000000000000000000000000815260206004820152600d60248201527f43616e6e6f742063616e63656c000000000000000000000000000000000000006044820152606401610a72565b6000828152600660205260408082208281556001810180547fffffffffffffffffffffff00000000000000000000000000000000000000000016905560028101839055600381018390556004810183905560050182905551339184917f844c792f3d122ddfe76f9173cd5b48de3087f78395e0f62b94f9d471c991dcb29190a35050565b6116a3613524565b6113e17f72c3eec1760bf69946625c2d4fb8e44e2c806345041960b434674fb9ab3976cf82613660565b600860209081526000928352604080842090915290825290208054600182015460028301546003840180549394929360ff909216929161170c906142f2565b80601f0160208091040260200160405190810160405280929190818152602001828054611738906142f2565b80156117855780601f1061175a57610100808354040283529160200191611785565b820191906000526020600020905b81548152906001019060200180831161176857829003601f168201915b5050505050905084565b600083815260066020526040902060010154839073ffffffffffffffffffffffffffffffffffffffff163314611821576040517f08c379a000000000000000000000000000000000000000000000000000000000815260206004820152601560248201527f4f6e6c792063616d706169676e2063726561746f7200000000000000000000006044820152606401610a72565b83600160008281526006602081905260409091206001015474010000000000000000000000000000000000000000900460ff169081111561186457611864613d4f565b146118cb576040517f08c379a000000000000000000000000000000000000000000000000000000000815260206004820152601760248201527f43616d706169676e206973206e6f7420637265617465640000000000000000006044820152606401610a72565b6118d3613495565b600085815260066020526040902060050154831461194d576040517f08c379a000000000000000000000000000000000000000000000000000000000815260206004820152601760248201527f496e76616c6964206e756d626572206f6620676f616c730000000000000000006044820152606401610a72565b60005b83811015611a685760405180608001604052808686848181106119755761197561433f565b9050604002016000013581526020018686848181106119965761199661433f565b905060400201602001358152602001600060058111156119b8576119b8613d4f565b8152604080516020818101835260008083529381019190915289835260088152818320858452815291819020835181559183015160018084019190915590830151600283018054919290917fffffffffffffffffffffffffffffffffffffffffffffffffffffffffffffff001690836005811115611a3857611a38613d4f565b021790555060608201516003820190611a5190826143eb565b509050508080611a6090614505565b915050611950565b506000858152600660205260409081902060010180547fffffffffffffffffffffff00ffffffffffffffffffffffffffffffffffffffff16740200000000000000000000000000000000000000001790555185907fa1c4bd19965809686035cfcd1d32d187f953b132ef1a40229e823a93524fa71190611aeb908790879061453d565b60405180910390a25050505050565b80600160008281526006602081905260409091206001015474010000000000000000000000000000000000000000900460ff1690811115611b3d57611b3d613d4f565b14611ba4576040517f08c379a000000000000000000000000000000000000000000000000000000000815260206004820152601760248201527f43616d706169676e206973206e6f7420637265617465640000000000000000006044820152606401610a72565b60008281526006602052604090206001015482903373ffffffffffffffffffffffffffffffffffffffff90911603611c38576040517f08c379a000000000000000000000000000000000000000000000000000000000815260206004820152601560248201527f43726561746f722063616e277420646f207468697300000000000000000000006044820152606401610a72565b7f72c3eec1760bf69946625c2d4fb8e44e2c806345041960b434674fb9ab3976cf611c628161351a565b611c6a613495565b33600090815260096020908152604080832087845290915290205460ff1615611cef576040517f08c379a000000000000000000000000000000000000000000000000000000000815260206004820152600d60248201527f416c726561647920766f746564000000000000000000000000000000000000006044820152606401610a72565b336000908152600960209081526040808320878452825280832080547fffffffffffffffffffffffffffffffffffffffffffffffffffffffffffffff0016600117905560069091528120600401805491611d4883614505565b9091555050604051339085907f793623ac7427b9a1e958f0ada3c4ca2f1fa9d54655b5c2aff2de092e5386bb7e90600090a350505050565b611d88613524565b6114d2600061379c565b611d9a613524565b6114d2613811565b611daa613524565b6113e17f21702c8af46127c7fa207f89d0b0a8441bb32959a0ac7df790e9ab1a25c9892682613660565b83600360008281526006602081905260409091206001015474010000000000000000000000000000000000000000900460ff1690811115611e1757611e17613d4f565b14611e7e576040517f08c379a000000000000000000000000000000000000000000000000000000000815260206004820152601b60248201527f43616d706169676e206861736e277420737461727465642079657400000000006044820152606401610a72565b600085815260066020526040902060010154859073ffffffffffffffffffffffffffffffffffffffff163314611f10576040517f08c379a000000000000000000000000000000000000000000000000000000000815260206004820152601560248201527f4f6e6c792063616d706169676e2063726561746f7200000000000000000000006044820152606401610a72565b611f18613495565b6005600087815260086020908152604080832089845290915290206002015460ff166005811115611f4b57611f4b613d4f565b1480611f8757506002600087815260086020908152604080832089845290915290206002015460ff166005811115611f8557611f85613d4f565b145b611fed576040517f08c379a000000000000000000000000000000000000000000000000000000000815260206004820152601360248201527f43616e6e6f74206174746163682070726f6f66000000000000000000000000006044820152606401610a72565b600086815260086020908152604080832088845290915290206002810180547fffffffffffffffffffffffffffffffffffffffffffffffffffffffffffffff00166001179055600301612041848683614584565b506040513390869088907f69d8873e2b98296a95fa140fab18bf7ef0ed4e67e63c9f221c8bc2fe1a1df8a890600090a4505050505050565b612081613524565b6113e17f72c3eec1760bf69946625c2d4fb8e44e2c806345041960b434674fb9ab3976cf826135a5565b6000818152600660205260408120600501546060919067ffffffffffffffff8111156120d9576120d961436e565b60405190808252806020026020018201604052801561211257816020015b6120ff613c5c565b8152602001906001900390816120f75790505b50905060005b60008481526006602052604090206005015481101561226357604080516080810182526000868152600860209081528382208583528082528483208054855260018101548386015292869052905260020154909182019060ff16600581111561218357612183613d4f565b81526000868152600860209081526040808320868452825290912060030180549190920191906121b2906142f2565b80601f01602080910402602001604051908101604052809291908181526020018280546121de906142f2565b801561222b5780601f106122005761010080835404028352916020019161222b565b820191906000526020600020905b81548152906001019060200180831161220e57829003601f168201915b50505050508152508282815181106122455761224561433f565b6020026020010181905250808061225b90614505565b915050612118565b5092915050565b6060600060035467ffffffffffffffff8111156122895761228961436e565b6040519080825280602002602001820160405280156122fa57816020015b6122e76040805160e08101825260008082526020820181905290918201908152602001600081526020016000815260200160008152602001600081525090565b8152602001906001900390816122a75790505b50905060015b60035481116123f7576040805160e0810182528281526000838152600660208181528483206001015473ffffffffffffffffffffffffffffffffffffffff8116828601529286905281905291928301917401000000000000000000000000000000000000000090910460ff169081111561237c5761237c613d4f565b8152600083815260066020818152604080842060048101548387015260028101549186019190915260038101546060860152928690525260050154608090910152826123c96001846141e0565b815181106123d9576123d961433f565b602002602001018190525080806123ef90614505565b915050612300565b50919050565b600460008281526006602081905260409091206001015474010000000000000000000000000000000000000000900460ff169081111561243f5761243f613d4f565b148061248a5750600660008281526006602081905260409091206001015474010000000000000000000000000000000000000000900460ff169081111561248857612488613d4f565b145b6124f0576040517f08c379a000000000000000000000000000000000000000000000000000000000815260206004820152600e60248201527f43616e277420756e706c656467650000000000000000000000000000000000006044820152606401610a72565b6000818152600a6020908152604080832033845290915290205415158061253257506000818152600a6020908152604080832033845290915290206001015415155b612598576040517f08c379a000000000000000000000000000000000000000000000000000000000815260206004820152601360248201527f4e6f7468696e6720746f20756e706c65646765000000000000000000000000006044820152606401610a72565b6000818152600a60209081526040808320338452909152902054156126b8576000818152600a60209081526040808320338452825280832054848452600790925282208054919290916125ec9084906141e0565b90915550506000818152600a602090815260408083203380855292528083205490518381818185875af1925050503d8060008114612646576040519150601f19603f3d011682016040523d82523d6000602084013e61264b565b606091505b50509050806126b6576040517f08c379a000000000000000000000000000000000000000000000000000000000815260206004820152601460248201527f457468207472616e73666572206661696c65642e0000000000000000000000006044820152606401610a72565b505b6000818152600a6020908152604080832033845290915290206001015415612859576000818152600a6020908152604080832033845282528083206001908101548585526007909352908320018054919290916127169084906141e0565b90915550506000818152600a60209081526040808320338085529252918290206001015491517fa9059cbb000000000000000000000000000000000000000000000000000000008152600481019190915260248101919091527f000000000000000000000000000000000000000000000000000000000000000073ffffffffffffffffffffffffffffffffffffffff169063a9059cbb906044016020604051808303816000875af11580156127cf573d6000803e3d6000fd5b505050506040513d601f19601f820116820180604052508101906127f391906142c2565b612859576040517f08c379a000000000000000000000000000000000000000000000000000000000815260206004820152600f60248201527f7472616e73666572206661696c656400000000000000000000000000000000006044820152606401610a72565b6000818152600a6020908152604080832033808552925280832083815560010183905551909183917fb32327a436f8c174314a255814ac1ed96df4f05ae8c0a641fc49b9a649e3c5999190a350565b6128b0613495565b4282101561291a576040517f08c379a000000000000000000000000000000000000000000000000000000000815260206004820152600d60248201527f496e76616c6964207374617274000000000000000000000000000000000000006044820152606401610a72565b818111612983576040517f08c379a000000000000000000000000000000000000000000000000000000000815260206004820152600d60248201527f496e76616c69642072616e6765000000000000000000000000000000000000006044820152606401610a72565b6004546129909042614274565b8111156129f9576040517f08c379a000000000000000000000000000000000000000000000000000000000815260206004820152601660248201527f496e76616c69642072616e6765206475726174696f6e000000000000000000006044820152606401610a72565b600160036000828254612a0c9190614274565b90915550506040805160e081018252600354815233602082015290810160018152602080820185905260408083018590526000606084018190526080909301879052600354835260068083529281902084518155918401516001830180547fffffffffffffffffffffffff0000000000000000000000000000000000000000811673ffffffffffffffffffffffffffffffffffffffff909316928317825592860151939490927fffffffffffffffffffffff000000000000000000000000000000000000000000169091179074010000000000000000000000000000000000000000908490811115612b0057612b00613d4f565b021790555060608201516002820155608082015160038083019190915560a0830151600483015560c090920151600590910155546040513391907f633109eec20320eded000fc1e2634211aa7e92ba3f5b15faf6dcdafca05094e490600090a3505050565b60008281526001602081905260409091200154612b818161351a565b61140a83836135a5565b612b93613524565b73ffffffffffffffffffffffffffffffffffffffff8116612c36576040517f08c379a000000000000000000000000000000000000000000000000000000000815260206004820152602660248201527f4f776e61626c653a206e6577206f776e657220697320746865207a65726f206160448201527f64647265737300000000000000000000000000000000000000000000000000006064820152608401610a72565b6113e18161379c565b612c47613495565b60015b60035481116113e157600260008281526006602081905260409091206001015474010000000000000000000000000000000000000000900460ff1690811115612c9557612c95613d4f565b03612df75760055460008281526006602052604090206004015410801590612cc15750612cc181613880565b15612d54576000818152600660205260409081902060010180547fffffffffffffffffffffff00ffffffffffffffffffffffffffffffffffffffff16740300000000000000000000000000000000000000001790555181907fcdcab711d0187c599b8e09755a2b0c6d0d274c5ad0fd8fb5a9015da047d18bbb90612d479060039061469f565b60405180910390a26130af565b600081815260066020526040902060030154421115612df257600081815260066020819052604090912060010180547fffffffffffffffffffffff00ffffffffffffffffffffffffffffffffffffffff1674010000000000000000000000000000000000000000830217905550807fcdcab711d0187c599b8e09755a2b0c6d0d274c5ad0fd8fb5a9015da047d18bbb6006604051612d47919061469f565b6130af565b600360008281526006602081905260409091206001015474010000000000000000000000000000000000000000900460ff1690811115612e3957612e39613d4f565b036130af57612e4781613880565b1561302157600560008281526008602090815260408083206006909252822060050154909190612e79906001906141e0565b815260208101919091526040016000206002015460ff166005811115612ea157612ea1613d4f565b03612f27576000818152600660205260409081902060010180547fffffffffffffffffffffff00ffffffffffffffffffffffffffffffffffffffff16740500000000000000000000000000000000000000001790555181907fcdcab711d0187c599b8e09755a2b0c6d0d274c5ad0fd8fb5a9015da047d18bbb90612d479060059061469f565b60005b60008281526006602052604090206005015481101561301b576003600083815260086020908152604080832085845290915290206002015460ff166005811115612f7657612f76613d4f565b03613009576000828152600660205260409081902060010180547fffffffffffffffffffffff00ffffffffffffffffffffffffffffffffffffffff16740400000000000000000000000000000000000000001790555182907fcdcab711d0187c599b8e09755a2b0c6d0d274c5ad0fd8fb5a9015da047d18bbb90612ffc9060049061469f565b60405180910390a261301b565b8061301381614505565b915050612f2a565b506130af565b600081815260066020819052604090912060010180547fffffffffffffffffffffff00ffffffffffffffffffffffffffffffffffffffff1674010000000000000000000000000000000000000000830217905550807fcdcab711d0187c599b8e09755a2b0c6d0d274c5ad0fd8fb5a9015da047d18bbb60066040516130a6919061469f565b60405180910390a25b806130b981614505565b915050612c4a565b81600360008281526006602081905260409091206001015474010000000000000000000000000000000000000000900460ff169081111561310457613104613d4f565b1461316b576040517f08c379a000000000000000000000000000000000000000000000000000000000815260206004820152601b60248201527f43616d706169676e206861736e277420737461727465642079657400000000006044820152606401610a72565b613173613495565b600360008481526006602081905260409091206001015474010000000000000000000000000000000000000000900460ff16908111156131b5576131b5613d4f565b1461321c576040517f08c379a000000000000000000000000000000000000000000000000000000000815260206004820152601260248201527f596f752063616e206e6f7420706c6564676500000000000000000000000000006044820152606401610a72565b600034118061322b5750600082115b613291576040517f08c379a000000000000000000000000000000000000000000000000000000000815260206004820152601060248201527f496e76616c69647320616d6f756e7473000000000000000000000000000000006044820152606401610a72565b6000838152600a60209081526040808320338452909152902034156132ed57600084815260076020526040812080543492906132ce908490614274565b90915550508054349082906000906132e7908490614274565b90915550505b82156133355760008481526007602052604081206001018054859290613314908490614274565b925050819055508281600101600082825461332f9190614274565b90915550505b6040517f23b872dd000000000000000000000000000000000000000000000000000000008152336004820152306024820152604481018490527f000000000000000000000000000000000000000000000000000000000000000073ffffffffffffffffffffffffffffffffffffffff16906323b872dd906064016020604051808303816000875af11580156133ce573d6000803e3d6000fd5b505050506040513d601f19601f820116820180604052508101906133f291906142c2565b613458576040517f08c379a000000000000000000000000000000000000000000000000000000000815260206004820152600f60248201527f7472616e73666572206661696c656400000000000000000000000000000000006044820152606401610a72565b604051838152339085907f2757ac6a40883f4491cc56930ae964df9034e343e660d5179eb01e198336756b9060200160405180910390a350505050565b60005474010000000000000000000000000000000000000000900460ff16156114d2576040517f08c379a000000000000000000000000000000000000000000000000000000000815260206004820152601060248201527f5061757361626c653a20706175736564000000000000000000000000000000006044820152606401610a72565b6113e181336138b5565b60005473ffffffffffffffffffffffffffffffffffffffff1633146114d2576040517f08c379a000000000000000000000000000000000000000000000000000000000815260206004820181905260248201527f4f776e61626c653a2063616c6c6572206973206e6f7420746865206f776e65726044820152606401610a72565b600082815260016020908152604080832073ffffffffffffffffffffffffffffffffffffffff8516845290915290205460ff16156114be57600082815260016020908152604080832073ffffffffffffffffffffffffffffffffffffffff8516808552925280832080547fffffffffffffffffffffffffffffffffffffffffffffffffffffffffffffff0016905551339285917ff6391f5c32d9c69d2a47ea670b442974b53935d1edc7fd64eb21e047a839171b9190a45050565b600082815260016020908152604080832073ffffffffffffffffffffffffffffffffffffffff8516845290915290205460ff166114be57600082815260016020818152604080842073ffffffffffffffffffffffffffffffffffffffff8616808652925280842080547fffffffffffffffffffffffffffffffffffffffffffffffffffffffffffffff00169093179092559051339285917f2f8788117e7eff1d82e926ec794901d17c78024a50270940304540a733656f0d9190a45050565b61372761396f565b600080547fffffffffffffffffffffff00ffffffffffffffffffffffffffffffffffffffff1690557f5db9ee0a495bf2e6ff9c91a7834c1ba4fdd244a5e8aa4e537bd38aeae4b073aa335b60405173ffffffffffffffffffffffffffffffffffffffff909116815260200160405180910390a1565b6000805473ffffffffffffffffffffffffffffffffffffffff8381167fffffffffffffffffffffffff0000000000000000000000000000000000000000831681178455604051919092169283917f8be0079c531659141344cd1fd0a4f28419497f9722a3daafe3b4186f6b6457e09190a35050565b613819613495565b600080547fffffffffffffffffffffff00ffffffffffffffffffffffffffffffffffffffff16740100000000000000000000000000000000000000001790557f62e78cea01bee320cd4e420270b5ea74000d11b0c9f74754ebdbfc544b05a2586137723390565b60008181526006602052604081206003015442118015906109c657505060009081526006602052604090206002015442101590565b600082815260016020908152604080832073ffffffffffffffffffffffffffffffffffffffff8516845290915290205460ff166114be576138f5816139f3565b613900836020613a12565b6040516020016139119291906146ad565b604080517fffffffffffffffffffffffffffffffffffffffffffffffffffffffffffffffe0818403018152908290527f08c379a0000000000000000000000000000000000000000000000000000000008252610a729160040161472e565b60005474010000000000000000000000000000000000000000900460ff166114d2576040517f08c379a000000000000000000000000000000000000000000000000000000000815260206004820152601460248201527f5061757361626c653a206e6f74207061757365640000000000000000000000006044820152606401610a72565b60606109c673ffffffffffffffffffffffffffffffffffffffff831660145b60606000613a2183600261425d565b613a2c906002614274565b67ffffffffffffffff811115613a4457613a4461436e565b6040519080825280601f01601f191660200182016040528015613a6e576020820181803683370190505b5090507f300000000000000000000000000000000000000000000000000000000000000081600081518110613aa557613aa561433f565b60200101907effffffffffffffffffffffffffffffffffffffffffffffffffffffffffffff1916908160001a9053507f780000000000000000000000000000000000000000000000000000000000000081600181518110613b0857613b0861433f565b60200101907effffffffffffffffffffffffffffffffffffffffffffffffffffffffffffff1916908160001a9053506000613b4484600261425d565b613b4f906001614274565b90505b6001811115613bec577f303132333435363738396162636465660000000000000000000000000000000085600f1660108110613b9057613b9061433f565b1a60f81b828281518110613ba657613ba661433f565b60200101907effffffffffffffffffffffffffffffffffffffffffffffffffffffffffffff1916908160001a90535060049490941c93613be581614741565b9050613b52565b508315613c55576040517f08c379a000000000000000000000000000000000000000000000000000000000815260206004820181905260248201527f537472696e67733a20686578206c656e67746820696e73756666696369656e746044820152606401610a72565b9392505050565b6040518060800160405280600081526020016000815260200160006005811115613c8857613c88613d4f565b8152602001606081525090565b600060208284031215613ca757600080fd5b81357fffffffff0000000000000000000000000000000000000000000000000000000081168114613c5557600080fd5b60008060408385031215613cea57600080fd5b50508035926020909101359150565b600080600060608486031215613d0e57600080fd5b8335925060208401359150604084013560068110613d2b57600080fd5b809150509250925092565b600060208284031215613d4857600080fd5b5035919050565b7f4e487b7100000000000000000000000000000000000000000000000000000000600052602160045260246000fd5b60078110613d8e57613d8e613d4f565b9052565b87815273ffffffffffffffffffffffffffffffffffffffff8716602082015260e08101613dc26040830188613d7e565b8560608301528460808301528360a08301528260c083015298975050505050505050565b803573ffffffffffffffffffffffffffffffffffffffff81168114613e0a57600080fd5b919050565b600060208284031215613e2157600080fd5b613c5582613de6565b60008060408385031215613e3d57600080fd5b82359150613e4d60208401613de6565b90509250929050565b60068110613d8e57613d8e613d4f565b60005b83811015613e81578181015183820152602001613e69565b50506000910152565b60008151808452613ea2816020860160208601613e66565b601f017fffffffffffffffffffffffffffffffffffffffffffffffffffffffffffffffe0169290920160200192915050565b848152836020820152613eea6040820184613e56565b608060608201526000613f006080830184613e8a565b9695505050505050565b600080600060408486031215613f1f57600080fd5b83359250602084013567ffffffffffffffff80821115613f3e57600080fd5b818601915086601f830112613f5257600080fd5b813581811115613f6157600080fd5b8760208260061b8501011115613f7657600080fd5b6020830194508093505050509250925092565b60008060008060608587031215613f9f57600080fd5b8435935060208501359250604085013567ffffffffffffffff80821115613fc557600080fd5b818701915087601f830112613fd957600080fd5b813581811115613fe857600080fd5b886020828501011115613ffa57600080fd5b95989497505060200194505050565b6000806040838503121561401c57600080fd5b61402583613de6565b946020939093013593505050565b60006020808301818452808551808352604092508286019150828160051b87010184880160005b838110156140d6577fffffffffffffffffffffffffffffffffffffffffffffffffffffffffffffffc089840301855281516080815185528882015189860152878201516140a989870182613e56565b506060918201519185018190526140c285820183613e8a565b96890196945050509086019060010161405a565b509098975050505050505050565b602080825282518282018190526000919060409081850190868401855b828110156141785781518051855273ffffffffffffffffffffffffffffffffffffffff8782015116878601528581015161413d87870182613d7e565b50606081810151908601526080808201519086015260a0808201519086015260c0908101519085015260e09093019290850190600101614101565b5091979650505050505050565b60008060006060848603121561419a57600080fd5b505081359360208301359350604090920135919050565b7f4e487b7100000000000000000000000000000000000000000000000000000000600052601160045260246000fd5b818103818111156109c6576109c66141b1565b805169ffffffffffffffffffff81168114613e0a57600080fd5b600080600080600060a0868803121561422557600080fd5b61422e866141f3565b9450602086015193506040860151925060608601519150614251608087016141f3565b90509295509295909350565b80820281158282048414176109c6576109c66141b1565b808201808211156109c6576109c66141b1565b6000826142bd577f4e487b7100000000000000000000000000000000000000000000000000000000600052601260045260246000fd5b500490565b6000602082840312156142d457600080fd5b81518015158114613c5557600080fd5b602081016109c68284613e56565b600181811c9082168061430657607f821691505b6020821081036123f7577f4e487b7100000000000000000000000000000000000000000000000000000000600052602260045260246000fd5b7f4e487b7100000000000000000000000000000000000000000000000000000000600052603260045260246000fd5b7f4e487b7100000000000000000000000000000000000000000000000000000000600052604160045260246000fd5b601f82111561140a57600081815260208120601f850160051c810160208610156143c45750805b601f850160051c820191505b818110156143e3578281556001016143d0565b505050505050565b815167ffffffffffffffff8111156144055761440561436e565b6144198161441384546142f2565b8461439d565b602080601f83116001811461446c57600084156144365750858301515b7fffffffffffffffffffffffffffffffffffffffffffffffffffffffffffffffff600386901b1c1916600185901b1785556143e3565b6000858152602081207fffffffffffffffffffffffffffffffffffffffffffffffffffffffffffffffe08616915b828110156144b95788860151825594840194600190910190840161449a565b50858210156144f557878501517fffffffffffffffffffffffffffffffffffffffffffffffffffffffffffffffff600388901b60f8161c191681555b5050505050600190811b01905550565b60007fffffffffffffffffffffffffffffffffffffffffffffffffffffffffffffffff8203614536576145366141b1565b5060010190565b6020808252818101839052600090604080840186845b87811015614577578135835284820135858401529183019190830190600101614553565b5090979650505050505050565b67ffffffffffffffff83111561459c5761459c61436e565b6145b0836145aa83546142f2565b8361439d565b6000601f84116001811461460257600085156145cc5750838201355b7fffffffffffffffffffffffffffffffffffffffffffffffffffffffffffffffff600387901b1c1916600186901b178355614698565b6000838152602090207fffffffffffffffffffffffffffffffffffffffffffffffffffffffffffffffe0861690835b828110156146515786850135825560209485019460019092019101614631565b508682101561468c577fffffffffffffffffffffffffffffffffffffffffffffffffffffffffffffffff60f88860031b161c19848701351681555b505060018560011b0183555b5050505050565b602081016109c68284613d7e565b7f416363657373436f6e74726f6c3a206163636f756e74200000000000000000008152600083516146e5816017850160208801613e66565b7f206973206d697373696e6720726f6c65200000000000000000000000000000006017918401918201528351614722816028840160208801613e66565b01602801949350505050565b602081526000613c556020830184613e8a565b600081614750576147506141b1565b507fffffffffffffffffffffffffffffffffffffffffffffffffffffffffffffffff019056fea2646970667358221220509af8564fe0340717c86fb8c31c854122880e78e033f8a6587a17766674ca0864736f6c63430008120033",
  "linkReferences": {},
  "deployedLinkReferences": {}
}