{
  "_format": "hh-sol-artifact-1",
  "contractName": "CrowdFund",
  "sourceName": "contracts/Crowdfund.sol",
  "abi": [
    {
      "inputs": [
        {
          "internalType": "address",
          "name": "_token",
          "type": "address"
        },
        {
          "internalType": "uint256",
          "name": "_maxDuration",
          "type": "uint256"
        },
        {
          "internalType": "uint256",
          "name": "_minVotes",
          "type": "uint256"
        }
      ],
      "stateMutability": "nonpayable",
      "type": "constructor"
    },
    {
      "anonymous": false,
      "inputs": [
        {
          "indexed": false,
          "internalType": "uint256",
          "name": "id",
          "type": "uint256"
        }
      ],
      "name": "Cancel",
      "type": "event"
    },
    {
      "anonymous": false,
      "inputs": [
        {
          "indexed": false,
          "internalType": "uint256",
          "name": "id",
          "type": "uint256"
        },
        {
          "indexed": false,
          "internalType": "uint256[]",
          "name": "goals",
          "type": "uint256[]"
        }
      ],
      "name": "Claim",
      "type": "event"
    },
    {
      "anonymous": false,
      "inputs": [
        {
          "indexed": true,
          "internalType": "address",
          "name": "creator",
          "type": "address"
        },
        {
          "indexed": false,
          "internalType": "uint256",
          "name": "id",
          "type": "uint256"
        }
      ],
      "name": "Create",
      "type": "event"
    },
    {
      "anonymous": false,
      "inputs": [
        {
          "indexed": true,
          "internalType": "address",
          "name": "previousOwner",
          "type": "address"
        },
        {
          "indexed": true,
          "internalType": "address",
          "name": "newOwner",
          "type": "address"
        }
      ],
      "name": "OwnershipTransferred",
      "type": "event"
    },
    {
      "anonymous": false,
      "inputs": [
        {
          "indexed": true,
          "internalType": "uint256",
          "name": "id",
          "type": "uint256"
        },
        {
          "indexed": true,
          "internalType": "address",
          "name": "caller",
          "type": "address"
        },
        {
          "indexed": false,
          "internalType": "uint256",
          "name": "amount",
          "type": "uint256"
        }
      ],
      "name": "Pledge",
      "type": "event"
    },
    {
      "anonymous": false,
      "inputs": [
        {
          "indexed": false,
          "internalType": "uint256",
          "name": "id",
          "type": "uint256"
        },
        {
          "indexed": true,
          "internalType": "address",
          "name": "caller",
          "type": "address"
        },
        {
          "indexed": false,
          "internalType": "uint256",
          "name": "amount",
          "type": "uint256"
        }
      ],
      "name": "Refund",
      "type": "event"
    },
    {
      "anonymous": false,
      "inputs": [
        {
          "indexed": true,
          "internalType": "uint256",
          "name": "id",
          "type": "uint256"
        },
        {
          "indexed": true,
          "internalType": "address",
          "name": "caller",
          "type": "address"
        },
        {
          "indexed": false,
          "internalType": "uint256",
          "name": "amount",
          "type": "uint256"
        }
      ],
      "name": "Unpledge",
      "type": "event"
    },
    {
      "inputs": [
        {
          "internalType": "uint256",
          "name": "_id",
          "type": "uint256"
        },
        {
          "components": [
            {
              "internalType": "uint256",
              "name": "id",
              "type": "uint256"
            },
            {
              "internalType": "uint256",
              "name": "price",
              "type": "uint256"
            }
          ],
          "internalType": "struct CrowdFund.NewGoal[]",
          "name": "_goals",
          "type": "tuple[]"
        }
      ],
      "name": "addGoals",
      "outputs": [],
      "stateMutability": "nonpayable",
      "type": "function"
    },
    {
      "inputs": [
        {
          "internalType": "uint256",
          "name": "_id",
          "type": "uint256"
        },
        {
          "internalType": "uint256",
          "name": "_goal_id",
          "type": "uint256"
        },
        {
          "internalType": "string",
          "name": "_goal_proof",
          "type": "string"
        }
      ],
      "name": "attachProof",
      "outputs": [],
      "stateMutability": "nonpayable",
      "type": "function"
    },
    {
      "inputs": [
        {
          "internalType": "uint256",
          "name": "",
          "type": "uint256"
        }
      ],
      "name": "campaigns",
      "outputs": [
        {
          "internalType": "address",
          "name": "creator",
          "type": "address"
        },
        {
          "internalType": "enum CrowdFund.CampaignStatus",
          "name": "status",
          "type": "uint8"
        },
        {
          "internalType": "uint256",
          "name": "pledged",
          "type": "uint256"
        },
        {
          "internalType": "uint256",
          "name": "votes",
          "type": "uint256"
        },
        {
          "internalType": "uint256",
          "name": "startAt",
          "type": "uint256"
        },
        {
          "internalType": "uint256",
          "name": "endAt",
          "type": "uint256"
        },
        {
          "internalType": "uint256",
          "name": "goals",
          "type": "uint256"
        }
      ],
      "stateMutability": "view",
      "type": "function"
    },
    {
      "inputs": [
        {
          "internalType": "uint256",
          "name": "_id",
          "type": "uint256"
        }
      ],
      "name": "cancel",
      "outputs": [],
      "stateMutability": "nonpayable",
      "type": "function"
    },
    {
      "inputs": [
        {
          "internalType": "uint256",
          "name": "_id",
          "type": "uint256"
        },
        {
          "internalType": "uint256",
          "name": "_goalId",
          "type": "uint256"
        }
      ],
      "name": "claimGoal",
      "outputs": [],
      "stateMutability": "nonpayable",
      "type": "function"
    },
    {
      "inputs": [],
      "name": "count",
      "outputs": [
        {
          "internalType": "uint256",
          "name": "",
          "type": "uint256"
        }
      ],
      "stateMutability": "view",
      "type": "function"
    },
    {
      "inputs": [
        {
          "internalType": "uint32",
          "name": "_goals",
          "type": "uint32"
        },
        {
          "internalType": "uint32",
          "name": "_startAt",
          "type": "uint32"
        },
        {
          "internalType": "uint32",
          "name": "_endAt",
          "type": "uint32"
        }
      ],
      "name": "create",
      "outputs": [],
      "stateMutability": "nonpayable",
      "type": "function"
    },
    {
      "inputs": [],
      "name": "finishCampaigns",
      "outputs": [],
      "stateMutability": "nonpayable",
      "type": "function"
    },
    {
      "inputs": [],
      "name": "getCampaigns",
      "outputs": [
        {
          "components": [
            {
              "internalType": "address",
              "name": "creator",
              "type": "address"
            },
            {
              "internalType": "enum CrowdFund.CampaignStatus",
              "name": "status",
              "type": "uint8"
            },
            {
              "internalType": "uint256",
              "name": "pledged",
              "type": "uint256"
            },
            {
              "internalType": "uint256",
              "name": "votes",
              "type": "uint256"
            },
            {
              "internalType": "uint256",
              "name": "startAt",
              "type": "uint256"
            },
            {
              "internalType": "uint256",
              "name": "endAt",
              "type": "uint256"
            },
            {
              "internalType": "uint256",
              "name": "goals",
              "type": "uint256"
            }
          ],
          "internalType": "struct CrowdFund.Campaign[]",
          "name": "",
          "type": "tuple[]"
        }
      ],
      "stateMutability": "view",
      "type": "function"
    },
    {
      "inputs": [
        {
          "internalType": "uint256",
          "name": "_id",
          "type": "uint256"
        }
      ],
      "name": "getGoals",
      "outputs": [
        {
          "components": [
            {
              "internalType": "uint256",
              "name": "id",
              "type": "uint256"
            },
            {
              "internalType": "uint256",
              "name": "price",
              "type": "uint256"
            },
            {
              "internalType": "enum CrowdFund.GoalStatus",
              "name": "status",
              "type": "uint8"
            },
            {
              "internalType": "string",
              "name": "proof",
              "type": "string"
            }
          ],
          "internalType": "struct CrowdFund.Goal[]",
          "name": "",
          "type": "tuple[]"
        }
      ],
      "stateMutability": "view",
      "type": "function"
    },
    {
      "inputs": [
        {
          "internalType": "uint256",
          "name": "",
          "type": "uint256"
        },
        {
          "internalType": "uint256",
          "name": "",
          "type": "uint256"
        }
      ],
      "name": "goals",
      "outputs": [
        {
          "internalType": "uint256",
          "name": "id",
          "type": "uint256"
        },
        {
          "internalType": "uint256",
          "name": "price",
          "type": "uint256"
        },
        {
          "internalType": "enum CrowdFund.GoalStatus",
          "name": "status",
          "type": "uint8"
        },
        {
          "internalType": "string",
          "name": "proof",
          "type": "string"
        }
      ],
      "stateMutability": "view",
      "type": "function"
    },
    {
      "inputs": [],
      "name": "maxDuration",
      "outputs": [
        {
          "internalType": "uint256",
          "name": "",
          "type": "uint256"
        }
      ],
      "stateMutability": "view",
      "type": "function"
    },
    {
      "inputs": [],
      "name": "minVotes",
      "outputs": [
        {
          "internalType": "uint256",
          "name": "",
          "type": "uint256"
        }
      ],
      "stateMutability": "view",
      "type": "function"
    },
    {
      "inputs": [],
      "name": "owner",
      "outputs": [
        {
          "internalType": "address",
          "name": "",
          "type": "address"
        }
      ],
      "stateMutability": "view",
      "type": "function"
    },
    {
      "inputs": [
        {
          "internalType": "uint256",
          "name": "_id",
          "type": "uint256"
        },
        {
          "internalType": "uint256",
          "name": "_amount",
          "type": "uint256"
        }
      ],
      "name": "pledge",
      "outputs": [],
      "stateMutability": "nonpayable",
      "type": "function"
    },
    {
      "inputs": [
        {
          "internalType": "uint256",
          "name": "",
          "type": "uint256"
        },
        {
          "internalType": "address",
          "name": "",
          "type": "address"
        }
      ],
      "name": "pledgedAmount",
      "outputs": [
        {
          "internalType": "uint256",
          "name": "",
          "type": "uint256"
        }
      ],
      "stateMutability": "view",
      "type": "function"
    },
    {
      "inputs": [
        {
          "internalType": "uint256",
          "name": "_id",
          "type": "uint256"
        }
      ],
      "name": "refund",
      "outputs": [],
      "stateMutability": "nonpayable",
      "type": "function"
    },
    {
      "inputs": [],
      "name": "renounceOwnership",
      "outputs": [],
      "stateMutability": "nonpayable",
      "type": "function"
    },
    {
      "inputs": [
        {
          "internalType": "address",
          "name": "",
          "type": "address"
        }
      ],
      "name": "reputation",
      "outputs": [
        {
          "internalType": "uint256",
          "name": "",
          "type": "uint256"
        }
      ],
      "stateMutability": "view",
      "type": "function"
    },
    {
      "inputs": [],
      "name": "startCampaigns",
      "outputs": [],
      "stateMutability": "nonpayable",
      "type": "function"
    },
    {
      "inputs": [],
      "name": "token",
      "outputs": [
        {
          "internalType": "contract IERC20",
          "name": "",
          "type": "address"
        }
      ],
      "stateMutability": "view",
      "type": "function"
    },
    {
      "inputs": [
        {
          "internalType": "address",
          "name": "newOwner",
          "type": "address"
        }
      ],
      "name": "transferOwnership",
      "outputs": [],
      "stateMutability": "nonpayable",
      "type": "function"
    },
    {
      "inputs": [
        {
          "internalType": "uint256",
          "name": "_id",
          "type": "uint256"
        }
      ],
      "name": "unPledge",
      "outputs": [],
      "stateMutability": "nonpayable",
      "type": "function"
    },
    {
      "inputs": [
        {
          "internalType": "uint256",
          "name": "_id",
          "type": "uint256"
        },
        {
          "internalType": "uint256",
          "name": "_goal_id",
          "type": "uint256"
        },
        {
          "internalType": "enum CrowdFund.GoalStatus",
          "name": "_status",
          "type": "uint8"
        }
      ],
      "name": "validateProof",
      "outputs": [],
      "stateMutability": "nonpayable",
      "type": "function"
    }
  ],
  "bytecode": "0x60a06040523480156200001157600080fd5b506040516200487738038062004877833981810160405281019062000037919062000213565b620000576200004b620000a260201b60201c565b620000aa60201b60201c565b8273ffffffffffffffffffffffffffffffffffffffff1660808173ffffffffffffffffffffffffffffffffffffffff168152505081600281905550806003819055505050506200026f565b600033905090565b60008060009054906101000a900473ffffffffffffffffffffffffffffffffffffffff169050816000806101000a81548173ffffffffffffffffffffffffffffffffffffffff021916908373ffffffffffffffffffffffffffffffffffffffff1602179055508173ffffffffffffffffffffffffffffffffffffffff168173ffffffffffffffffffffffffffffffffffffffff167f8be0079c531659141344cd1fd0a4f28419497f9722a3daafe3b4186f6b6457e060405160405180910390a35050565b600080fd5b600073ffffffffffffffffffffffffffffffffffffffff82169050919050565b6000620001a08262000173565b9050919050565b620001b28162000193565b8114620001be57600080fd5b50565b600081519050620001d281620001a7565b92915050565b6000819050919050565b620001ed81620001d8565b8114620001f957600080fd5b50565b6000815190506200020d81620001e2565b92915050565b6000806000606084860312156200022f576200022e6200016e565b5b60006200023f86828701620001c1565b93505060206200025286828701620001fc565b92505060406200026586828701620001fc565b9150509250925092565b6080516145d0620002a76000396000818161085c01528181610ed401528181612403015281816129250152612bab01526145d06000f3fe608060405234801561001057600080fd5b50600436106101585760003560e01c80639313f554116100c3578063b9f794511161007c578063b9f79451146103a6578063c5f06e28146103d6578063d9cf33ee146103e0578063f2fde38b146103ea578063fc0c546a14610406578063fde327be1461042457610158565b80639313f554146102d457806399db2c8e146102f0578063a50ef07b1461030c578063a6b036331461033c578063aa4fb63a1461035a578063b761f24b1461038a57610158565b806340e58ee51161011557806340e58ee51461022357806356e43fcf1461023f5780635d0a8c54146102725780636db5c8fd1461028e578063715018a6146102ac5780638da5cb5b146102b657610158565b806302af2b121461015d57806306661abd146101795780630d9c6e1614610197578063141961bc146101b3578063278ecde1146101e95780633cc228fd14610205575b600080fd5b61017760048036038101906101729190612e2a565b610440565b005b61018161092a565b60405161018e9190612e79565b60405180910390f35b6101b160048036038101906101ac9190612eb9565b610930565b005b6101cd60048036038101906101c89190612f0c565b610c36565b6040516101e09796959493929190612ff1565b60405180910390f35b61020360048036038101906101fe9190612f0c565b610ca5565b005b61020d610fc6565b60405161021a9190612e79565b60405180910390f35b61023d60048036038101906102389190612f0c565b610fcc565b005b61025960048036038101906102549190612e2a565b61132a565b6040516102699493929190613138565b60405180910390f35b61028c600480360381019061028791906131e9565b6113fc565b005b61029661172c565b6040516102a39190612e79565b60405180910390f35b6102b4611732565b005b6102be611746565b6040516102cb9190613249565b60405180910390f35b6102ee60048036038101906102e991906132ba565b61176f565b005b61030a6004803603810190610305919061336a565b611b44565b005b61032660048036038101906103219190612f0c565b611dd0565b604051610333919061354a565b60405180910390f35b610344612067565b60405161035191906136c7565b60405180910390f35b610374600480360381019061036f9190613715565b6121d2565b6040516103819190612e79565b60405180910390f35b6103a4600480360381019061039f9190612f0c565b6121f7565b005b6103c060048036038101906103bb9190613755565b6124f4565b6040516103cd9190612e79565b60405180910390f35b6103de61250c565b005b6103e86126d6565b005b61040460048036038101906103ff9190613755565b6128a0565b005b61040e612923565b60405161041b91906137e1565b60405180910390f35b61043e60048036038101906104399190612e2a565b612947565b005b816000600460008381526020019081526020016000206040518060e00160405290816000820160009054906101000a900473ffffffffffffffffffffffffffffffffffffffff1673ffffffffffffffffffffffffffffffffffffffff1673ffffffffffffffffffffffffffffffffffffffff1681526020016000820160149054906101000a900460ff1660058111156104dc576104db612f7a565b5b60058111156104ee576104ed612f7a565b5b81526020016001820154815260200160028201548152602001600382015481526020016004820154815260200160058201548152505090506002600581111561053a57610539612f7a565b5b8160200151600581111561055157610550612f7a565b5b14610591576040517f08c379a000000000000000000000000000000000000000000000000000000000815260040161058890613848565b60405180910390fd5b836000600460008381526020019081526020016000206040518060e00160405290816000820160009054906101000a900473ffffffffffffffffffffffffffffffffffffffff1673ffffffffffffffffffffffffffffffffffffffff1673ffffffffffffffffffffffffffffffffffffffff1681526020016000820160149054906101000a900460ff16600581111561062d5761062c612f7a565b5b600581111561063f5761063e612f7a565b5b81526020016001820154815260200160028201548152602001600382015481526020016004820154815260200160058201548152505090503373ffffffffffffffffffffffffffffffffffffffff16816000015173ffffffffffffffffffffffffffffffffffffffff16146106e9576040517f08c379a00000000000000000000000000000000000000000000000000000000081526004016106e0906138b4565b60405180910390fd5b600060046000888152602001908152602001600020905060008611156107a9576004600681111561071d5761071c612f7a565b5b60056000898152602001908152602001600020600088815260200190815260200160002060020160009054906101000a900460ff16600681111561076457610763612f7a565b5b146107a4576040517f08c379a000000000000000000000000000000000000000000000000000000000815260040161079b90613920565b60405180910390fd5b6107aa565b5b6005600088815260200190815260200160002060008781526020019081526020016000206001015481600101541015610818576040517f08c379a000000000000000000000000000000000000000000000000000000000815260040161080f9061398c565b60405180910390fd5b6005600088815260200190815260200160002060008781526020019081526020016000206001015481600101600082825461085391906139db565b925050819055507f000000000000000000000000000000000000000000000000000000000000000073ffffffffffffffffffffffffffffffffffffffff1663a9059cbb8260000160009054906101000a900473ffffffffffffffffffffffffffffffffffffffff1683600101546040518363ffffffff1660e01b81526004016108dd929190613a0f565b6020604051808303816000875af11580156108fc573d6000803e3d6000fd5b505050506040513d601f19601f820116820180604052508101906109209190613a70565b5050505050505050565b60015481565b826000600460008381526020019081526020016000206040518060e00160405290816000820160009054906101000a900473ffffffffffffffffffffffffffffffffffffffff1673ffffffffffffffffffffffffffffffffffffffff1673ffffffffffffffffffffffffffffffffffffffff1681526020016000820160149054906101000a900460ff1660058111156109cc576109cb612f7a565b5b60058111156109de576109dd612f7a565b5b815260200160018201548152602001600282015481526020016003820154815260200160048201548152602001600582015481525050905060026005811115610a2a57610a29612f7a565b5b81602001516005811115610a4157610a40612f7a565b5b14610a81576040517f08c379a0000000000000000000000000000000000000000000000000000000008152600401610a7890613848565b60405180910390fd5b60036006811115610a9557610a94612f7a565b5b60056000878152602001908152602001600020600086815260200190815260200160002060020160009054906101000a900460ff166006811115610adc57610adb612f7a565b5b14610b1c576040517f08c379a0000000000000000000000000000000000000000000000000000000008152600401610b1390613ae9565b60405180910390fd5b600680811115610b2f57610b2e612f7a565b5b836006811115610b4257610b41612f7a565b5b1480610b72575060056006811115610b5d57610b5c612f7a565b5b836006811115610b7057610b6f612f7a565b5b145b80610ba1575060046006811115610b8c57610b8b612f7a565b5b836006811115610b9f57610b9e612f7a565b5b145b610be0576040517f08c379a0000000000000000000000000000000000000000000000000000000008152600401610bd790613b55565b60405180910390fd5b8260056000878152602001908152602001600020600086815260200190815260200160002060020160006101000a81548160ff02191690836006811115610c2a57610c29612f7a565b5b02179055505050505050565b60046020528060005260406000206000915090508060000160009054906101000a900473ffffffffffffffffffffffffffffffffffffffff16908060000160149054906101000a900460ff16908060010154908060020154908060030154908060040154908060050154905087565b6000600460008381526020019081526020016000206040518060e00160405290816000820160009054906101000a900473ffffffffffffffffffffffffffffffffffffffff1673ffffffffffffffffffffffffffffffffffffffff1673ffffffffffffffffffffffffffffffffffffffff1681526020016000820160149054906101000a900460ff166005811115610d4057610d3f612f7a565b5b6005811115610d5257610d51612f7a565b5b815260200160018201548152602001600282015481526020016003820154815260200160048201548152602001600582015481525050905060036005811115610d9e57610d9d612f7a565b5b81602001516005811115610db557610db4612f7a565b5b1480610de85750600580811115610dcf57610dce612f7a565b5b81602001516005811115610de657610de5612f7a565b5b145b610e27576040517f08c379a0000000000000000000000000000000000000000000000000000000008152600401610e1e90613bc1565b60405180910390fd5b60006006600084815260200190815260200160002060003373ffffffffffffffffffffffffffffffffffffffff1673ffffffffffffffffffffffffffffffffffffffff16815260200190815260200160002054905060006006600085815260200190815260200160002060003373ffffffffffffffffffffffffffffffffffffffff1673ffffffffffffffffffffffffffffffffffffffff168152602001908152602001600020819055507f000000000000000000000000000000000000000000000000000000000000000073ffffffffffffffffffffffffffffffffffffffff1663a9059cbb33836040518363ffffffff1660e01b8152600401610f2d929190613a0f565b6020604051808303816000875af1158015610f4c573d6000803e3d6000fd5b505050506040513d601f19601f82011682018060405250810190610f709190613a70565b503373ffffffffffffffffffffffffffffffffffffffff167f21e12a7cad0da5928167e1084ea4d5fdf8d9af66657a2543a9ac76a0ca0814778483604051610fb9929190613be1565b60405180910390a2505050565b60035481565b806000600460008381526020019081526020016000206040518060e00160405290816000820160009054906101000a900473ffffffffffffffffffffffffffffffffffffffff1673ffffffffffffffffffffffffffffffffffffffff1673ffffffffffffffffffffffffffffffffffffffff1681526020016000820160149054906101000a900460ff16600581111561106857611067612f7a565b5b600581111561107a57611079612f7a565b5b81526020016001820154815260200160028201548152602001600382015481526020016004820154815260200160058201548152505090503373ffffffffffffffffffffffffffffffffffffffff16816000015173ffffffffffffffffffffffffffffffffffffffff1614611124576040517f08c379a000000000000000000000000000000000000000000000000000000000815260040161111b906138b4565b60405180910390fd5b6000600460008581526020019081526020016000206040518060e00160405290816000820160009054906101000a900473ffffffffffffffffffffffffffffffffffffffff1673ffffffffffffffffffffffffffffffffffffffff1673ffffffffffffffffffffffffffffffffffffffff1681526020016000820160149054906101000a900460ff1660058111156111bf576111be612f7a565b5b60058111156111d1576111d0612f7a565b5b81526020016001820154815260200160028201548152602001600382015481526020016004820154815260200160058201548152505090506000600581111561121d5761121c612f7a565b5b8160200151600581111561123457611233612f7a565b5b14611274576040517f08c379a000000000000000000000000000000000000000000000000000000000815260040161126b90613c56565b60405180910390fd5b60046000858152602001908152602001600020600080820160006101000a81549073ffffffffffffffffffffffffffffffffffffffff02191690556000820160146101000a81549060ff02191690556001820160009055600282016000905560038201600090556004820160009055600582016000905550507f8bf30e7ff26833413be5f69e1d373744864d600b664204b4a2f9844a8eedb9ed8460405161131c9190612e79565b60405180910390a150505050565b6005602052816000526040600020602052806000526040600020600091509150508060000154908060010154908060020160009054906101000a900460ff169080600301805461137990613ca5565b80601f01602080910402602001604051908101604052809291908181526020018280546113a590613ca5565b80156113f25780601f106113c7576101008083540402835291602001916113f2565b820191906000526020600020905b8154815290600101906020018083116113d557829003601f168201915b5050505050905084565b826000600460008381526020019081526020016000206040518060e00160405290816000820160009054906101000a900473ffffffffffffffffffffffffffffffffffffffff1673ffffffffffffffffffffffffffffffffffffffff1673ffffffffffffffffffffffffffffffffffffffff1681526020016000820160149054906101000a900460ff16600581111561149857611497612f7a565b5b60058111156114aa576114a9612f7a565b5b81526020016001820154815260200160028201548152602001600382015481526020016004820154815260200160058201548152505090503373ffffffffffffffffffffffffffffffffffffffff16816000015173ffffffffffffffffffffffffffffffffffffffff1614611554576040517f08c379a000000000000000000000000000000000000000000000000000000000815260040161154b906138b4565b60405180910390fd5b60005b84849050811015611677576000604051806080016040528087878581811061158257611581613cd6565b5b9050604002016000013581526020018787858181106115a4576115a3613cd6565b5b905060400201602001358152602001600160068111156115c7576115c6612f7a565b5b815260200160405180602001604052806000815250815250905080600560008981526020019081526020016000206000848152602001908152602001600020600082015181600001556020820151816001015560408201518160020160006101000a81548160ff0219169083600681111561164557611644612f7a565b5b0217905550606082015181600301908161165f9190613ed6565b5090505050808061166f90613fa8565b915050611557565b50600060056000878152602001908152602001600020600080815260200190815260200160002060020160006101000a81548160ff021916908360068111156116c3576116c2612f7a565b5b021790555060016004600087815260200190815260200160002060000160146101000a81548160ff0219169083600581111561170257611701612f7a565b5b02179055508383905060046000878152602001908152602001600020600501819055505050505050565b60025481565b61173a612ca0565b6117446000612d1e565b565b60008060009054906101000a900473ffffffffffffffffffffffffffffffffffffffff16905090565b836000600460008381526020019081526020016000206040518060e00160405290816000820160009054906101000a900473ffffffffffffffffffffffffffffffffffffffff1673ffffffffffffffffffffffffffffffffffffffff1673ffffffffffffffffffffffffffffffffffffffff1681526020016000820160149054906101000a900460ff16600581111561180b5761180a612f7a565b5b600581111561181d5761181c612f7a565b5b81526020016001820154815260200160028201548152602001600382015481526020016004820154815260200160058201548152505090506002600581111561186957611868612f7a565b5b816020015160058111156118805761187f612f7a565b5b146118c0576040517f08c379a00000000000000000000000000000000000000000000000000000000081526004016118b790613848565b60405180910390fd5b856000600460008381526020019081526020016000206040518060e00160405290816000820160009054906101000a900473ffffffffffffffffffffffffffffffffffffffff1673ffffffffffffffffffffffffffffffffffffffff1673ffffffffffffffffffffffffffffffffffffffff1681526020016000820160149054906101000a900460ff16600581111561195c5761195b612f7a565b5b600581111561196e5761196d612f7a565b5b81526020016001820154815260200160028201548152602001600382015481526020016004820154815260200160058201548152505090503373ffffffffffffffffffffffffffffffffffffffff16816000015173ffffffffffffffffffffffffffffffffffffffff1614611a18576040517f08c379a0000000000000000000000000000000000000000000000000000000008152600401611a0f906138b4565b60405180910390fd5b60026006811115611a2c57611a2b612f7a565b5b600560008a8152602001908152602001600020600089815260200190815260200160002060020160009054906101000a900460ff166006811115611a7357611a72612f7a565b5b14611ab3576040517f08c379a0000000000000000000000000000000000000000000000000000000008152600401611aaa9061403c565b60405180910390fd5b6003600560008a8152602001908152602001600020600089815260200190815260200160002060020160006101000a81548160ff02191690836006811115611afe57611afd612f7a565b5b02179055508585600560008b815260200190815260200160002060008a81526020019081526020016000206003019182611b39929190614067565b505050505050505050565b428263ffffffff161015611b8d576040517f08c379a0000000000000000000000000000000000000000000000000000000008152600401611b84906141a9565b60405180910390fd5b8163ffffffff168163ffffffff1611611bdb576040517f08c379a0000000000000000000000000000000000000000000000000000000008152600401611bd290614215565b60405180910390fd5b60025442611be99190614235565b8163ffffffff161115611c31576040517f08c379a0000000000000000000000000000000000000000000000000000000008152600401611c28906142db565b60405180910390fd5b6001806000828254611c439190614235565b925050819055506040518060e001604052803373ffffffffffffffffffffffffffffffffffffffff16815260200160006005811115611c8557611c84612f7a565b5b815260200160008152602001600081526020018363ffffffff1681526020018263ffffffff1681526020018463ffffffff1681525060046000600154815260200190815260200160002060008201518160000160006101000a81548173ffffffffffffffffffffffffffffffffffffffff021916908373ffffffffffffffffffffffffffffffffffffffff16021790555060208201518160000160146101000a81548160ff02191690836005811115611d4157611d40612f7a565b5b021790555060408201518160010155606082015181600201556080820151816003015560a0820151816004015560c082015181600501559050503373ffffffffffffffffffffffffffffffffffffffff167fcc9018de05b5f497ee7618d8830568d8ac2d45d0671b73d8f71c67e824122ec7600154604051611dc39190612e79565b60405180910390a2505050565b6060806000600460008581526020019081526020016000206040518060e00160405290816000820160009054906101000a900473ffffffffffffffffffffffffffffffffffffffff1673ffffffffffffffffffffffffffffffffffffffff1673ffffffffffffffffffffffffffffffffffffffff1681526020016000820160149054906101000a900460ff166005811115611e6e57611e6d612f7a565b5b6005811115611e8057611e7f612f7a565b5b815260200160018201548152602001600282015481526020016003820154815260200160048201548152602001600582015481525050905060005b8160c0015181101561205c57604051806080016040528060056000888152602001908152602001600020600084815260200190815260200160002060000154815260200160056000888152602001908152602001600020600084815260200190815260200160002060010154815260200160056000888152602001908152602001600020600084815260200190815260200160002060020160009054906101000a900460ff166006811115611f7357611f72612f7a565b5b81526020016005600088815260200190815260200160002060008481526020019081526020016000206003018054611faa90613ca5565b80601f0160208091040260200160405190810160405280929190818152602001828054611fd690613ca5565b80156120235780601f10611ff857610100808354040283529160200191612023565b820191906000526020600020905b81548152906001019060200180831161200657829003601f168201915b505050505081525083828151811061203e5761203d613cd6565b5b6020026020010181905250808061205490613fa8565b915050611ebb565b508192505050919050565b60608060005b6001548110156121ca576040518060e001604052806004600084815260200190815260200160002060000160009054906101000a900473ffffffffffffffffffffffffffffffffffffffff1673ffffffffffffffffffffffffffffffffffffffff1681526020016004600084815260200190815260200160002060000160149054906101000a900460ff16600581111561210a57612109612f7a565b5b81526020016004600084815260200190815260200160002060010154815260200160046000848152602001908152602001600020600201548152602001600460008481526020019081526020016000206003015481526020016004600084815260200190815260200160002060040154815260200160046000848152602001908152602001600020600501548152508282815181106121ac576121ab613cd6565b5b602002602001018190525080806121c290613fa8565b91505061206d565b508091505090565b6006602052816000526040600020602052806000526040600020600091509150505481565b600060046000838152602001908152602001600020905060058081111561222157612220612f7a565b5b8160000160149054906101000a900460ff16600581111561224557612244612f7a565b5b14806122865750600360058111156122605761225f612f7a565b5b8160000160149054906101000a900460ff16600581111561228457612283612f7a565b5b145b6122c5576040517f08c379a00000000000000000000000000000000000000000000000000000000081526004016122bc90614347565b60405180910390fd5b60006006600084815260200190815260200160002060003373ffffffffffffffffffffffffffffffffffffffff1673ffffffffffffffffffffffffffffffffffffffff1681526020019081526020016000205411612358576040517f08c379a000000000000000000000000000000000000000000000000000000000815260040161234f906143d9565b60405180910390fd5b60006006600084815260200190815260200160002060003373ffffffffffffffffffffffffffffffffffffffff1673ffffffffffffffffffffffffffffffffffffffff1681526020019081526020016000205490506006600084815260200190815260200160002060003373ffffffffffffffffffffffffffffffffffffffff1673ffffffffffffffffffffffffffffffffffffffff168152602001908152602001600020600090557f000000000000000000000000000000000000000000000000000000000000000073ffffffffffffffffffffffffffffffffffffffff1663a9059cbb33836040518363ffffffff1660e01b815260040161245c929190613a0f565b6020604051808303816000875af115801561247b573d6000803e3d6000fd5b505050506040513d601f19601f8201168201806040525081019061249f9190613a70565b503373ffffffffffffffffffffffffffffffffffffffff16837f2eeeab891b26a214d1b25749f88a406bdea852bd8c9bfda977e0ef8114c180ba836040516124e79190612e79565b60405180910390a3505050565b60076020528060005260406000206000915090505481565b60005b6001548110156126d3576003546004600083815260200190815260200160002060020154101580156125885750600160058111156125505761254f612f7a565b5b6004600083815260200190815260200160002060000160149054906101000a900460ff16600581111561258657612585612f7a565b5b145b156126c057600060046000838152602001908152602001600020905060028160000160146101000a81548160ff021916908360058111156125cc576125cb612f7a565b5b021790555080600460008481526020019081526020016000206000820160009054906101000a900473ffffffffffffffffffffffffffffffffffffffff168160000160006101000a81548173ffffffffffffffffffffffffffffffffffffffff021916908373ffffffffffffffffffffffffffffffffffffffff1602179055506000820160149054906101000a900460ff168160000160146101000a81548160ff0219169083600581111561268457612683612f7a565b5b02179055506001820154816001015560028201548160020155600382015481600301556004820154816004015560058201548160050155905050505b80806126cb90613fa8565b91505061250f565b50565b60005b60015481101561289d5760035460046000838152602001908152602001600020600201541015801561275257506000600581111561271a57612719612f7a565b5b6004600083815260200190815260200160002060000160149054906101000a900460ff1660058111156127505761274f612f7a565b5b145b1561288a57600060046000838152602001908152602001600020905060028160000160146101000a81548160ff0219169083600581111561279657612795612f7a565b5b021790555080600460008481526020019081526020016000206000820160009054906101000a900473ffffffffffffffffffffffffffffffffffffffff168160000160006101000a81548173ffffffffffffffffffffffffffffffffffffffff021916908373ffffffffffffffffffffffffffffffffffffffff1602179055506000820160149054906101000a900460ff168160000160146101000a81548160ff0219169083600581111561284e5761284d612f7a565b5b02179055506001820154816001015560028201548160020155600382015481600301556004820154816004015560058201548160050155905050505b808061289590613fa8565b9150506126d9565b50565b6128a8612ca0565b600073ffffffffffffffffffffffffffffffffffffffff168173ffffffffffffffffffffffffffffffffffffffff1603612917576040517f08c379a000000000000000000000000000000000000000000000000000000000815260040161290e9061446b565b60405180910390fd5b61292081612d1e565b50565b7f000000000000000000000000000000000000000000000000000000000000000081565b816000600460008381526020019081526020016000206040518060e00160405290816000820160009054906101000a900473ffffffffffffffffffffffffffffffffffffffff1673ffffffffffffffffffffffffffffffffffffffff1673ffffffffffffffffffffffffffffffffffffffff1681526020016000820160149054906101000a900460ff1660058111156129e3576129e2612f7a565b5b60058111156129f5576129f4612f7a565b5b815260200160018201548152602001600282015481526020016003820154815260200160048201548152602001600582015481525050905060026005811115612a4157612a40612f7a565b5b81602001516005811115612a5857612a57612f7a565b5b14612a98576040517f08c379a0000000000000000000000000000000000000000000000000000000008152600401612a8f90613848565b60405180910390fd5b600060046000868152602001908152602001600020905060026005811115612ac357612ac2612f7a565b5b8160000160149054906101000a900460ff166005811115612ae757612ae6612f7a565b5b14612b27576040517f08c379a0000000000000000000000000000000000000000000000000000000008152600401612b1e906144d7565b60405180910390fd5b83816001016000828254612b3b9190614235565b92505081905550836006600087815260200190815260200160002060003373ffffffffffffffffffffffffffffffffffffffff1673ffffffffffffffffffffffffffffffffffffffff1681526020019081526020016000206000828254612ba29190614235565b925050819055507f000000000000000000000000000000000000000000000000000000000000000073ffffffffffffffffffffffffffffffffffffffff166323b872dd3330876040518463ffffffff1660e01b8152600401612c06939291906144f7565b6020604051808303816000875af1158015612c25573d6000803e3d6000fd5b505050506040513d601f19601f82011682018060405250810190612c499190613a70565b503373ffffffffffffffffffffffffffffffffffffffff16857f06bdb975df800a73232998e71ed585d536222f1dfeaa622d7f62a23ada686c8286604051612c919190612e79565b60405180910390a35050505050565b612ca8612de2565b73ffffffffffffffffffffffffffffffffffffffff16612cc6611746565b73ffffffffffffffffffffffffffffffffffffffff1614612d1c576040517f08c379a0000000000000000000000000000000000000000000000000000000008152600401612d139061457a565b60405180910390fd5b565b60008060009054906101000a900473ffffffffffffffffffffffffffffffffffffffff169050816000806101000a81548173ffffffffffffffffffffffffffffffffffffffff021916908373ffffffffffffffffffffffffffffffffffffffff1602179055508173ffffffffffffffffffffffffffffffffffffffff168173ffffffffffffffffffffffffffffffffffffffff167f8be0079c531659141344cd1fd0a4f28419497f9722a3daafe3b4186f6b6457e060405160405180910390a35050565b600033905090565b600080fd5b600080fd5b6000819050919050565b612e0781612df4565b8114612e1257600080fd5b50565b600081359050612e2481612dfe565b92915050565b60008060408385031215612e4157612e40612dea565b5b6000612e4f85828601612e15565b9250506020612e6085828601612e15565b9150509250929050565b612e7381612df4565b82525050565b6000602082019050612e8e6000830184612e6a565b92915050565b60078110612ea157600080fd5b50565b600081359050612eb381612e94565b92915050565b600080600060608486031215612ed257612ed1612dea565b5b6000612ee086828701612e15565b9350506020612ef186828701612e15565b9250506040612f0286828701612ea4565b9150509250925092565b600060208284031215612f2257612f21612dea565b5b6000612f3084828501612e15565b91505092915050565b600073ffffffffffffffffffffffffffffffffffffffff82169050919050565b6000612f6482612f39565b9050919050565b612f7481612f59565b82525050565b7f4e487b7100000000000000000000000000000000000000000000000000000000600052602160045260246000fd5b60068110612fba57612fb9612f7a565b5b50565b6000819050612fcb82612fa9565b919050565b6000612fdb82612fbd565b9050919050565b612feb81612fd0565b82525050565b600060e082019050613006600083018a612f6b565b6130136020830189612fe2565b6130206040830188612e6a565b61302d6060830187612e6a565b61303a6080830186612e6a565b61304760a0830185612e6a565b61305460c0830184612e6a565b98975050505050505050565b6007811061307157613070612f7a565b5b50565b600081905061308282613060565b919050565b600061309282613074565b9050919050565b6130a281613087565b82525050565b600081519050919050565b600082825260208201905092915050565b60005b838110156130e25780820151818401526020810190506130c7565b60008484015250505050565b6000601f19601f8301169050919050565b600061310a826130a8565b61311481856130b3565b93506131248185602086016130c4565b61312d816130ee565b840191505092915050565b600060808201905061314d6000830187612e6a565b61315a6020830186612e6a565b6131676040830185613099565b818103606083015261317981846130ff565b905095945050505050565b600080fd5b600080fd5b600080fd5b60008083601f8401126131a9576131a8613184565b5b8235905067ffffffffffffffff8111156131c6576131c5613189565b5b6020830191508360408202830111156131e2576131e161318e565b5b9250929050565b60008060006040848603121561320257613201612dea565b5b600061321086828701612e15565b935050602084013567ffffffffffffffff81111561323157613230612def565b5b61323d86828701613193565b92509250509250925092565b600060208201905061325e6000830184612f6b565b92915050565b60008083601f84011261327a57613279613184565b5b8235905067ffffffffffffffff81111561329757613296613189565b5b6020830191508360018202830111156132b3576132b261318e565b5b9250929050565b600080600080606085870312156132d4576132d3612dea565b5b60006132e287828801612e15565b94505060206132f387828801612e15565b935050604085013567ffffffffffffffff81111561331457613313612def565b5b61332087828801613264565b925092505092959194509250565b600063ffffffff82169050919050565b6133478161332e565b811461335257600080fd5b50565b6000813590506133648161333e565b92915050565b60008060006060848603121561338357613382612dea565b5b600061339186828701613355565b93505060206133a286828701613355565b92505060406133b386828701613355565b9150509250925092565b600081519050919050565b600082825260208201905092915050565b6000819050602082019050919050565b6133f281612df4565b82525050565b61340181613087565b82525050565b600082825260208201905092915050565b6000613423826130a8565b61342d8185613407565b935061343d8185602086016130c4565b613446816130ee565b840191505092915050565b600060808301600083015161346960008601826133e9565b50602083015161347c60208601826133e9565b50604083015161348f60408601826133f8565b50606083015184820360608601526134a78282613418565b9150508091505092915050565b60006134c08383613451565b905092915050565b6000602082019050919050565b60006134e0826133bd565b6134ea81856133c8565b9350836020820285016134fc856133d9565b8060005b85811015613538578484038952815161351985826134b4565b9450613524836134c8565b925060208a01995050600181019050613500565b50829750879550505050505092915050565b6000602082019050818103600083015261356481846134d5565b905092915050565b600081519050919050565b600082825260208201905092915050565b6000819050602082019050919050565b6135a181612f59565b82525050565b6135b081612fd0565b82525050565b60e0820160008201516135cc6000850182613598565b5060208201516135df60208501826135a7565b5060408201516135f260408501826133e9565b50606082015161360560608501826133e9565b50608082015161361860808501826133e9565b5060a082015161362b60a08501826133e9565b5060c082015161363e60c08501826133e9565b50505050565b600061365083836135b6565b60e08301905092915050565b6000602082019050919050565b60006136748261356c565b61367e8185613577565b935061368983613588565b8060005b838110156136ba5781516136a18882613644565b97506136ac8361365c565b92505060018101905061368d565b5085935050505092915050565b600060208201905081810360008301526136e18184613669565b905092915050565b6136f281612f59565b81146136fd57600080fd5b50565b60008135905061370f816136e9565b92915050565b6000806040838503121561372c5761372b612dea565b5b600061373a85828601612e15565b925050602061374b85828601613700565b9150509250929050565b60006020828403121561376b5761376a612dea565b5b600061377984828501613700565b91505092915050565b6000819050919050565b60006137a76137a261379d84612f39565b613782565b612f39565b9050919050565b60006137b98261378c565b9050919050565b60006137cb826137ae565b9050919050565b6137db816137c0565b82525050565b60006020820190506137f660008301846137d2565b92915050565b7f43616d706169676e206861736e27742073746172746564207965740000000000600082015250565b6000613832601b836130b3565b915061383d826137fc565b602082019050919050565b6000602082019050818103600083015261386181613825565b9050919050565b7f596f7520646964206e6f742063726561746520746869732043616d706169676e600082015250565b600061389e6020836130b3565b91506138a982613868565b602082019050919050565b600060208201905081810360008301526138cd81613891565b9050919050565b7f50726576696f7573206974656d206973206e6f742076616c6964207965740000600082015250565b600061390a601e836130b3565b9150613915826138d4565b602082019050919050565b60006020820190508181036000830152613939816138fd565b9050919050565b7f4e6f7420656e6f756768206d6f6e657900000000000000000000000000000000600082015250565b60006139766010836130b3565b915061398182613940565b602082019050919050565b600060208201905081810360008301526139a581613969565b9050919050565b7f4e487b7100000000000000000000000000000000000000000000000000000000600052601160045260246000fd5b60006139e682612df4565b91506139f183612df4565b9250828203905081811115613a0957613a086139ac565b5b92915050565b6000604082019050613a246000830185612f6b565b613a316020830184612e6a565b9392505050565b60008115159050919050565b613a4d81613a38565b8114613a5857600080fd5b50565b600081519050613a6a81613a44565b92915050565b600060208284031215613a8657613a85612dea565b5b6000613a9484828501613a5b565b91505092915050565b7f43616e6e6f742076616c69646174652070726f6f660000000000000000000000600082015250565b6000613ad36015836130b3565b9150613ade82613a9d565b602082019050919050565b60006020820190508181036000830152613b0281613ac6565b9050919050565b7f496e76616c696420737461746500000000000000000000000000000000000000600082015250565b6000613b3f600d836130b3565b9150613b4a82613b09565b602082019050919050565b60006020820190508181036000830152613b6e81613b32565b9050919050565b7f6e6f7420656e6465640000000000000000000000000000000000000000000000600082015250565b6000613bab6009836130b3565b9150613bb682613b75565b602082019050919050565b60006020820190508181036000830152613bda81613b9e565b9050919050565b6000604082019050613bf66000830185612e6a565b613c036020830184612e6a565b9392505050565b7f43616e6e6f742063616e63656c00000000000000000000000000000000000000600082015250565b6000613c40600d836130b3565b9150613c4b82613c0a565b602082019050919050565b60006020820190508181036000830152613c6f81613c33565b9050919050565b7f4e487b7100000000000000000000000000000000000000000000000000000000600052602260045260246000fd5b60006002820490506001821680613cbd57607f821691505b602082108103613cd057613ccf613c76565b5b50919050565b7f4e487b7100000000000000000000000000000000000000000000000000000000600052603260045260246000fd5b7f4e487b7100000000000000000000000000000000000000000000000000000000600052604160045260246000fd5b60008190508160005260206000209050919050565b60006020601f8301049050919050565b600082821b905092915050565b600060088302613d967fffffffffffffffffffffffffffffffffffffffffffffffffffffffffffffffff82613d59565b613da08683613d59565b95508019841693508086168417925050509392505050565b6000613dd3613dce613dc984612df4565b613782565b612df4565b9050919050565b6000819050919050565b613ded83613db8565b613e01613df982613dda565b848454613d66565b825550505050565b600090565b613e16613e09565b613e21818484613de4565b505050565b5b81811015613e4557613e3a600082613e0e565b600181019050613e27565b5050565b601f821115613e8a57613e5b81613d34565b613e6484613d49565b81016020851015613e73578190505b613e87613e7f85613d49565b830182613e26565b50505b505050565b600082821c905092915050565b6000613ead60001984600802613e8f565b1980831691505092915050565b6000613ec68383613e9c565b9150826002028217905092915050565b613edf826130a8565b67ffffffffffffffff811115613ef857613ef7613d05565b5b613f028254613ca5565b613f0d828285613e49565b600060209050601f831160018114613f405760008415613f2e578287015190505b613f388582613eba565b865550613fa0565b601f198416613f4e86613d34565b60005b82811015613f7657848901518255600182019150602085019450602081019050613f51565b86831015613f935784890151613f8f601f891682613e9c565b8355505b6001600288020188555050505b505050505050565b6000613fb382612df4565b91507fffffffffffffffffffffffffffffffffffffffffffffffffffffffffffffffff8203613fe557613fe46139ac565b5b600182019050919050565b7f43616e6e6f74206174746163682070726f6f6600000000000000000000000000600082015250565b60006140266013836130b3565b915061403182613ff0565b602082019050919050565b6000602082019050818103600083015261405581614019565b9050919050565b600082905092915050565b614071838361405c565b67ffffffffffffffff81111561408a57614089613d05565b5b6140948254613ca5565b61409f828285613e49565b6000601f8311600181146140ce57600084156140bc578287013590505b6140c68582613eba565b86555061412e565b601f1984166140dc86613d34565b60005b82811015614104578489013582556001820191506020850194506020810190506140df565b86831015614121578489013561411d601f891682613e9c565b8355505b6001600288020188555050505b50505050505050565b7f53746172742074696d65206973206c657373207468616e2063757272656e742060008201527f426c6f636b2054696d657374616d700000000000000000000000000000000000602082015250565b6000614193602f836130b3565b915061419e82614137565b604082019050919050565b600060208201905081810360008301526141c281614186565b9050919050565b7f456e642074696d65206973206c657373207468616e2053746172742074696d65600082015250565b60006141ff6020836130b3565b915061420a826141c9565b602082019050919050565b6000602082019050818103600083015261422e816141f2565b9050919050565b600061424082612df4565b915061424b83612df4565b9250828201905080821115614263576142626139ac565b5b92915050565b7f456e642074696d65206578636565647320746865206d6178696d756d2044757260008201527f6174696f6e000000000000000000000000000000000000000000000000000000602082015250565b60006142c56025836130b3565b91506142d082614269565b604082019050919050565b600060208201905081810360008301526142f4816142b8565b9050919050565b7f596f752063616e206e6f7420756e706c65646765000000000000000000000000600082015250565b60006143316014836130b3565b915061433c826142fb565b602082019050919050565b6000602082019050818103600083015261436081614324565b9050919050565b7f596f7520646f206e6f74206861766520656e6f75676820746f6b656e7320506c60008201527f656467656420746f207769746872617700000000000000000000000000000000602082015250565b60006143c36030836130b3565b91506143ce82614367565b604082019050919050565b600060208201905081810360008301526143f2816143b6565b9050919050565b7f4f776e61626c653a206e6577206f776e657220697320746865207a65726f206160008201527f6464726573730000000000000000000000000000000000000000000000000000602082015250565b60006144556026836130b3565b9150614460826143f9565b604082019050919050565b6000602082019050818103600083015261448481614448565b9050919050565b7f596f752063616e206e6f7420706c656467650000000000000000000000000000600082015250565b60006144c16012836130b3565b91506144cc8261448b565b602082019050919050565b600060208201905081810360008301526144f0816144b4565b9050919050565b600060608201905061450c6000830186612f6b565b6145196020830185612f6b565b6145266040830184612e6a565b949350505050565b7f4f776e61626c653a2063616c6c6572206973206e6f7420746865206f776e6572600082015250565b60006145646020836130b3565b915061456f8261452e565b602082019050919050565b6000602082019050818103600083015261459381614557565b905091905056fea26469706673582212200624cb0bfff71bfaed3a2d08b01ccdc2b525a3eea34c7a9caa14ac3c01bd23a464736f6c63430008120033",
  "linkReferences": {},
  "deployedLinkReferences": {}
}