{
  "_format": "hh-sol-artifact-1",
  "contractName": "CrowdFund",
  "sourceName": "contracts/Crowdfund.sol",
  "abi": [
    {
      "inputs": [
        {
          "internalType": "address",
          "name": "_token",
          "type": "address"
        },
        {
          "internalType": "uint256",
          "name": "_maxDuration",
          "type": "uint256"
        },
        {
          "internalType": "uint256",
          "name": "_minVotes",
          "type": "uint256"
        }
      ],
      "stateMutability": "nonpayable",
      "type": "constructor"
    },
    {
      "anonymous": false,
      "inputs": [
        {
          "indexed": false,
          "internalType": "uint256",
          "name": "id",
          "type": "uint256"
        }
      ],
      "name": "Cancel",
      "type": "event"
    },
    {
      "anonymous": false,
      "inputs": [
        {
          "indexed": false,
          "internalType": "uint256",
          "name": "id",
          "type": "uint256"
        },
        {
          "indexed": false,
          "internalType": "uint256[]",
          "name": "goals",
          "type": "uint256[]"
        }
      ],
      "name": "Claim",
      "type": "event"
    },
    {
      "anonymous": false,
      "inputs": [
        {
          "indexed": true,
          "internalType": "address",
          "name": "creator",
          "type": "address"
        },
        {
          "indexed": false,
          "internalType": "uint256",
          "name": "id",
          "type": "uint256"
        }
      ],
      "name": "Create",
      "type": "event"
    },
    {
      "anonymous": false,
      "inputs": [
        {
          "indexed": true,
          "internalType": "address",
          "name": "previousOwner",
          "type": "address"
        },
        {
          "indexed": true,
          "internalType": "address",
          "name": "newOwner",
          "type": "address"
        }
      ],
      "name": "OwnershipTransferred",
      "type": "event"
    },
    {
      "anonymous": false,
      "inputs": [
        {
          "indexed": false,
          "internalType": "address",
          "name": "account",
          "type": "address"
        }
      ],
      "name": "Paused",
      "type": "event"
    },
    {
      "anonymous": false,
      "inputs": [
        {
          "indexed": true,
          "internalType": "uint256",
          "name": "id",
          "type": "uint256"
        },
        {
          "indexed": true,
          "internalType": "address",
          "name": "caller",
          "type": "address"
        },
        {
          "indexed": false,
          "internalType": "uint256",
          "name": "amount",
          "type": "uint256"
        }
      ],
      "name": "Pledge",
      "type": "event"
    },
    {
      "anonymous": false,
      "inputs": [
        {
          "indexed": false,
          "internalType": "uint256",
          "name": "id",
          "type": "uint256"
        },
        {
          "indexed": true,
          "internalType": "address",
          "name": "caller",
          "type": "address"
        },
        {
          "indexed": false,
          "internalType": "uint256",
          "name": "amount",
          "type": "uint256"
        }
      ],
      "name": "Refund",
      "type": "event"
    },
    {
      "anonymous": false,
      "inputs": [
        {
          "indexed": true,
          "internalType": "bytes32",
          "name": "role",
          "type": "bytes32"
        },
        {
          "indexed": true,
          "internalType": "bytes32",
          "name": "previousAdminRole",
          "type": "bytes32"
        },
        {
          "indexed": true,
          "internalType": "bytes32",
          "name": "newAdminRole",
          "type": "bytes32"
        }
      ],
      "name": "RoleAdminChanged",
      "type": "event"
    },
    {
      "anonymous": false,
      "inputs": [
        {
          "indexed": true,
          "internalType": "bytes32",
          "name": "role",
          "type": "bytes32"
        },
        {
          "indexed": true,
          "internalType": "address",
          "name": "account",
          "type": "address"
        },
        {
          "indexed": true,
          "internalType": "address",
          "name": "sender",
          "type": "address"
        }
      ],
      "name": "RoleGranted",
      "type": "event"
    },
    {
      "anonymous": false,
      "inputs": [
        {
          "indexed": true,
          "internalType": "bytes32",
          "name": "role",
          "type": "bytes32"
        },
        {
          "indexed": true,
          "internalType": "address",
          "name": "account",
          "type": "address"
        },
        {
          "indexed": true,
          "internalType": "address",
          "name": "sender",
          "type": "address"
        }
      ],
      "name": "RoleRevoked",
      "type": "event"
    },
    {
      "anonymous": false,
      "inputs": [
        {
          "indexed": false,
          "internalType": "address",
          "name": "account",
          "type": "address"
        }
      ],
      "name": "Unpaused",
      "type": "event"
    },
    {
      "anonymous": false,
      "inputs": [
        {
          "indexed": true,
          "internalType": "uint256",
          "name": "id",
          "type": "uint256"
        },
        {
          "indexed": true,
          "internalType": "address",
          "name": "caller",
          "type": "address"
        },
        {
          "indexed": false,
          "internalType": "uint256",
          "name": "amount",
          "type": "uint256"
        }
      ],
      "name": "Unpledge",
      "type": "event"
    },
    {
      "inputs": [],
      "name": "DEFAULT_ADMIN_ROLE",
      "outputs": [
        {
          "internalType": "bytes32",
          "name": "",
          "type": "bytes32"
        }
      ],
      "stateMutability": "view",
      "type": "function"
    },
    {
      "inputs": [],
      "name": "UPDATER_ROLE",
      "outputs": [
        {
          "internalType": "bytes32",
          "name": "",
          "type": "bytes32"
        }
      ],
      "stateMutability": "view",
      "type": "function"
    },
    {
      "inputs": [],
      "name": "VALIDATOR_ROLE",
      "outputs": [
        {
          "internalType": "bytes32",
          "name": "",
          "type": "bytes32"
        }
      ],
      "stateMutability": "view",
      "type": "function"
    },
    {
      "inputs": [],
      "name": "VOTER_ROLE",
      "outputs": [
        {
          "internalType": "bytes32",
          "name": "",
          "type": "bytes32"
        }
      ],
      "stateMutability": "view",
      "type": "function"
    },
    {
      "inputs": [
        {
          "internalType": "uint256",
          "name": "_id",
          "type": "uint256"
        },
        {
          "components": [
            {
              "internalType": "uint256",
              "name": "id",
              "type": "uint256"
            },
            {
              "internalType": "uint256",
              "name": "price",
              "type": "uint256"
            }
          ],
          "internalType": "struct CrowdfundInterface.NewGoal[]",
          "name": "_goals",
          "type": "tuple[]"
        }
      ],
      "name": "addGoals",
      "outputs": [],
      "stateMutability": "nonpayable",
      "type": "function"
    },
    {
      "inputs": [
        {
          "internalType": "uint256",
          "name": "_id",
          "type": "uint256"
        },
        {
          "internalType": "uint256",
          "name": "_goal_id",
          "type": "uint256"
        },
        {
          "internalType": "string",
          "name": "_goal_proof",
          "type": "string"
        }
      ],
      "name": "attachProof",
      "outputs": [],
      "stateMutability": "nonpayable",
      "type": "function"
    },
    {
      "inputs": [
        {
          "internalType": "uint256",
          "name": "",
          "type": "uint256"
        }
      ],
      "name": "campaigns",
      "outputs": [
        {
          "internalType": "address",
          "name": "creator",
          "type": "address"
        },
        {
          "internalType": "enum CrowdfundInterface.CampaignStatus",
          "name": "status",
          "type": "uint8"
        },
        {
          "internalType": "uint256",
          "name": "votes",
          "type": "uint256"
        },
        {
          "internalType": "uint256",
          "name": "startAt",
          "type": "uint256"
        },
        {
          "internalType": "uint256",
          "name": "endAt",
          "type": "uint256"
        },
        {
          "internalType": "uint256",
          "name": "goals",
          "type": "uint256"
        }
      ],
      "stateMutability": "view",
      "type": "function"
    },
    {
      "inputs": [
        {
          "internalType": "uint256",
          "name": "_id",
          "type": "uint256"
        }
      ],
      "name": "cancel",
      "outputs": [],
      "stateMutability": "nonpayable",
      "type": "function"
    },
    {
      "inputs": [
        {
          "internalType": "uint256",
          "name": "_id",
          "type": "uint256"
        },
        {
          "internalType": "uint256",
          "name": "_goalId",
          "type": "uint256"
        }
      ],
      "name": "claimGoal",
      "outputs": [],
      "stateMutability": "nonpayable",
      "type": "function"
    },
    {
      "inputs": [],
      "name": "count",
      "outputs": [
        {
          "internalType": "uint256",
          "name": "",
          "type": "uint256"
        }
      ],
      "stateMutability": "view",
      "type": "function"
    },
    {
      "inputs": [
        {
          "internalType": "uint32",
          "name": "_goals",
          "type": "uint32"
        },
        {
          "internalType": "uint32",
          "name": "_startAt",
          "type": "uint32"
        },
        {
          "internalType": "uint32",
          "name": "_endAt",
          "type": "uint32"
        }
      ],
      "name": "create",
      "outputs": [],
      "stateMutability": "nonpayable",
      "type": "function"
    },
    {
      "inputs": [
        {
          "internalType": "uint256",
          "name": "",
          "type": "uint256"
        }
      ],
      "name": "funds",
      "outputs": [
        {
          "internalType": "uint256",
          "name": "tokens",
          "type": "uint256"
        },
        {
          "internalType": "uint256",
          "name": "eth",
          "type": "uint256"
        }
      ],
      "stateMutability": "view",
      "type": "function"
    },
    {
      "inputs": [],
      "name": "getCampaigns",
      "outputs": [
        {
          "components": [
            {
              "internalType": "address",
              "name": "creator",
              "type": "address"
            },
            {
              "internalType": "enum CrowdfundInterface.CampaignStatus",
              "name": "status",
              "type": "uint8"
            },
            {
              "internalType": "uint256",
              "name": "votes",
              "type": "uint256"
            },
            {
              "internalType": "uint256",
              "name": "startAt",
              "type": "uint256"
            },
            {
              "internalType": "uint256",
              "name": "endAt",
              "type": "uint256"
            },
            {
              "internalType": "uint256",
              "name": "goals",
              "type": "uint256"
            }
          ],
          "internalType": "struct CrowdfundInterface.Campaign[]",
          "name": "",
          "type": "tuple[]"
        }
      ],
      "stateMutability": "view",
      "type": "function"
    },
    {
      "inputs": [
        {
          "internalType": "uint256",
          "name": "_id",
          "type": "uint256"
        }
      ],
      "name": "getGoals",
      "outputs": [
        {
          "components": [
            {
              "internalType": "uint256",
              "name": "id",
              "type": "uint256"
            },
            {
              "internalType": "uint256",
              "name": "price",
              "type": "uint256"
            },
            {
              "internalType": "enum CrowdfundInterface.GoalStatus",
              "name": "status",
              "type": "uint8"
            },
            {
              "internalType": "string",
              "name": "proof",
              "type": "string"
            }
          ],
          "internalType": "struct CrowdfundInterface.Goal[]",
          "name": "",
          "type": "tuple[]"
        }
      ],
      "stateMutability": "view",
      "type": "function"
    },
    {
      "inputs": [
        {
          "internalType": "bytes32",
          "name": "role",
          "type": "bytes32"
        }
      ],
      "name": "getRoleAdmin",
      "outputs": [
        {
          "internalType": "bytes32",
          "name": "",
          "type": "bytes32"
        }
      ],
      "stateMutability": "view",
      "type": "function"
    },
    {
      "inputs": [
        {
          "internalType": "uint256",
          "name": "",
          "type": "uint256"
        },
        {
          "internalType": "uint256",
          "name": "",
          "type": "uint256"
        }
      ],
      "name": "goals",
      "outputs": [
        {
          "internalType": "uint256",
          "name": "id",
          "type": "uint256"
        },
        {
          "internalType": "uint256",
          "name": "price",
          "type": "uint256"
        },
        {
          "internalType": "enum CrowdfundInterface.GoalStatus",
          "name": "status",
          "type": "uint8"
        },
        {
          "internalType": "string",
          "name": "proof",
          "type": "string"
        }
      ],
      "stateMutability": "view",
      "type": "function"
    },
    {
      "inputs": [
        {
          "internalType": "bytes32",
          "name": "role",
          "type": "bytes32"
        },
        {
          "internalType": "address",
          "name": "account",
          "type": "address"
        }
      ],
      "name": "grantRole",
      "outputs": [],
      "stateMutability": "nonpayable",
      "type": "function"
    },
    {
      "inputs": [
        {
          "internalType": "address",
          "name": "_address",
          "type": "address"
        }
      ],
      "name": "grantUpdaterRole",
      "outputs": [],
      "stateMutability": "nonpayable",
      "type": "function"
    },
    {
      "inputs": [
        {
          "internalType": "address",
          "name": "_address",
          "type": "address"
        }
      ],
      "name": "grantValidatorRole",
      "outputs": [],
      "stateMutability": "nonpayable",
      "type": "function"
    },
    {
      "inputs": [
        {
          "internalType": "address",
          "name": "_address",
          "type": "address"
        }
      ],
      "name": "grantVoterRole",
      "outputs": [],
      "stateMutability": "nonpayable",
      "type": "function"
    },
    {
      "inputs": [
        {
          "internalType": "bytes32",
          "name": "role",
          "type": "bytes32"
        },
        {
          "internalType": "address",
          "name": "account",
          "type": "address"
        }
      ],
      "name": "hasRole",
      "outputs": [
        {
          "internalType": "bool",
          "name": "",
          "type": "bool"
        }
      ],
      "stateMutability": "view",
      "type": "function"
    },
    {
      "inputs": [],
      "name": "maxDuration",
      "outputs": [
        {
          "internalType": "uint256",
          "name": "",
          "type": "uint256"
        }
      ],
      "stateMutability": "view",
      "type": "function"
    },
    {
      "inputs": [],
      "name": "minVotes",
      "outputs": [
        {
          "internalType": "uint256",
          "name": "",
          "type": "uint256"
        }
      ],
      "stateMutability": "view",
      "type": "function"
    },
    {
      "inputs": [],
      "name": "owner",
      "outputs": [
        {
          "internalType": "address",
          "name": "",
          "type": "address"
        }
      ],
      "stateMutability": "view",
      "type": "function"
    },
    {
      "inputs": [],
      "name": "pause",
      "outputs": [],
      "stateMutability": "nonpayable",
      "type": "function"
    },
    {
      "inputs": [],
      "name": "paused",
      "outputs": [
        {
          "internalType": "bool",
          "name": "",
          "type": "bool"
        }
      ],
      "stateMutability": "view",
      "type": "function"
    },
    {
      "inputs": [
        {
          "internalType": "uint256",
          "name": "_id",
          "type": "uint256"
        },
        {
          "internalType": "uint256",
          "name": "_amount",
          "type": "uint256"
        }
      ],
      "name": "pledge",
      "outputs": [],
      "stateMutability": "payable",
      "type": "function"
    },
    {
      "inputs": [
        {
          "internalType": "uint256",
          "name": "",
          "type": "uint256"
        },
        {
          "internalType": "address",
          "name": "",
          "type": "address"
        }
      ],
      "name": "pledgedAmount",
      "outputs": [
        {
          "internalType": "uint256",
          "name": "",
          "type": "uint256"
        }
      ],
      "stateMutability": "view",
      "type": "function"
    },
    {
      "inputs": [],
      "name": "renounceOwnership",
      "outputs": [],
      "stateMutability": "nonpayable",
      "type": "function"
    },
    {
      "inputs": [
        {
          "internalType": "bytes32",
          "name": "role",
          "type": "bytes32"
        },
        {
          "internalType": "address",
          "name": "account",
          "type": "address"
        }
      ],
      "name": "renounceRole",
      "outputs": [],
      "stateMutability": "nonpayable",
      "type": "function"
    },
    {
      "inputs": [
        {
          "internalType": "bytes32",
          "name": "role",
          "type": "bytes32"
        },
        {
          "internalType": "address",
          "name": "account",
          "type": "address"
        }
      ],
      "name": "revokeRole",
      "outputs": [],
      "stateMutability": "nonpayable",
      "type": "function"
    },
    {
      "inputs": [
        {
          "internalType": "address",
          "name": "_address",
          "type": "address"
        }
      ],
      "name": "revokeUpdaterRole",
      "outputs": [],
      "stateMutability": "nonpayable",
      "type": "function"
    },
    {
      "inputs": [
        {
          "internalType": "address",
          "name": "_address",
          "type": "address"
        }
      ],
      "name": "revokeValidatorRole",
      "outputs": [],
      "stateMutability": "nonpayable",
      "type": "function"
    },
    {
      "inputs": [
        {
          "internalType": "address",
          "name": "_address",
          "type": "address"
        }
      ],
      "name": "revokeVoterRole",
      "outputs": [],
      "stateMutability": "nonpayable",
      "type": "function"
    },
    {
      "inputs": [
        {
          "internalType": "bytes4",
          "name": "interfaceId",
          "type": "bytes4"
        }
      ],
      "name": "supportsInterface",
      "outputs": [
        {
          "internalType": "bool",
          "name": "",
          "type": "bool"
        }
      ],
      "stateMutability": "view",
      "type": "function"
    },
    {
      "inputs": [],
      "name": "token",
      "outputs": [
        {
          "internalType": "contract IERC20",
          "name": "",
          "type": "address"
        }
      ],
      "stateMutability": "view",
      "type": "function"
    },
    {
      "inputs": [
        {
          "internalType": "address",
          "name": "newOwner",
          "type": "address"
        }
      ],
      "name": "transferOwnership",
      "outputs": [],
      "stateMutability": "nonpayable",
      "type": "function"
    },
    {
      "inputs": [],
      "name": "unpause",
      "outputs": [],
      "stateMutability": "nonpayable",
      "type": "function"
    },
    {
      "inputs": [
        {
          "internalType": "uint256",
          "name": "_id",
          "type": "uint256"
        }
      ],
      "name": "unpledge",
      "outputs": [],
      "stateMutability": "nonpayable",
      "type": "function"
    },
    {
      "inputs": [],
      "name": "updateCampaigns",
      "outputs": [],
      "stateMutability": "nonpayable",
      "type": "function"
    },
    {
      "inputs": [
        {
          "internalType": "uint256",
          "name": "_id",
          "type": "uint256"
        },
        {
          "internalType": "uint256",
          "name": "_goal_id",
          "type": "uint256"
        },
        {
          "internalType": "enum CrowdfundInterface.GoalStatus",
          "name": "_status",
          "type": "uint8"
        }
      ],
      "name": "validateProof",
      "outputs": [],
      "stateMutability": "nonpayable",
      "type": "function"
    },
    {
      "inputs": [
        {
          "internalType": "uint256",
          "name": "_id",
          "type": "uint256"
        }
      ],
      "name": "voteCampaign",
      "outputs": [],
      "stateMutability": "nonpayable",
      "type": "function"
    }
  ],
  "bytecode": "0x60a06040523480156200001157600080fd5b5060405162005cb438038062005cb4833981810160405281019062000037919062000282565b620000576200004b6200011160201b60201c565b6200011960201b60201c565b60008060146101000a81548160ff0219169083151502179055508273ffffffffffffffffffffffffffffffffffffffff1660808173ffffffffffffffffffffffffffffffffffffffff16815250508160048190555080600581905550731b44f3514812d835eb1bdb0acb33d3fa3351ee43600260006101000a81548173ffffffffffffffffffffffffffffffffffffffff021916908373ffffffffffffffffffffffffffffffffffffffff160217905550505050620002de565b600033905090565b60008060009054906101000a900473ffffffffffffffffffffffffffffffffffffffff169050816000806101000a81548173ffffffffffffffffffffffffffffffffffffffff021916908373ffffffffffffffffffffffffffffffffffffffff1602179055508173ffffffffffffffffffffffffffffffffffffffff168173ffffffffffffffffffffffffffffffffffffffff167f8be0079c531659141344cd1fd0a4f28419497f9722a3daafe3b4186f6b6457e060405160405180910390a35050565b600080fd5b600073ffffffffffffffffffffffffffffffffffffffff82169050919050565b60006200020f82620001e2565b9050919050565b620002218162000202565b81146200022d57600080fd5b50565b600081519050620002418162000216565b92915050565b6000819050919050565b6200025c8162000247565b81146200026857600080fd5b50565b6000815190506200027c8162000251565b92915050565b6000806000606084860312156200029e576200029d620001dd565b5b6000620002ae8682870162000230565b9350506020620002c1868287016200026b565b9250506040620002d4868287016200026b565b9150509250925092565b6080516159a56200030f60003960008181610ecb015281816128d501528181612e6501526130c101526159a56000f3fe6080604052600436106102515760003560e01c80637b8e889511610139578063a6b03633116100b6578063c7258ba61161007a578063c7258ba6146108a1578063d547741f146108ca578063f2fde38b146108f3578063f6100a951461091c578063fc0c546a14610933578063fde327be1461095e57610251565b8063a6b03633146107ba578063a94015c8146107e5578063aa4fb63a14610810578063ad4e0c281461084d578063c49baebe1461087657610251565b80639313f554116100fd5780639313f554146106d757806399db2c8e14610700578063a217fddf14610729578063a2ad60c914610754578063a50ef07b1461077d57610251565b80637b8e8895146105f15780638456cb591461062f5780638ae647df146106465780638da5cb5b1461066f57806391d148541461069a57610251565b80633f4ba83a116101d257806356e43fcf1161019657806356e43fcf146104f25780635c975abb146105325780635d0a8c541461055d5780635f7ec46d146105865780636db5c8fd146105af578063715018a6146105da57610251565b80633f4ba83a1461043557806340e58ee51461044c57806347e633801461047557806350882f6d146104a057806351441b6f146104c957610251565b8063248a9ca311610219578063248a9ca314610352578063295142041461038f5780632f2ff15d146103b857806336568abe146103e15780633cc228fd1461040a57610251565b806301ffc9a71461025657806302af2b121461029357806306661abd146102bc5780630d9c6e16146102e7578063141961bc14610310575b600080fd5b34801561026257600080fd5b5061027d60048036038101906102789190613a69565b61097a565b60405161028a9190613ab1565b60405180910390f35b34801561029f57600080fd5b506102ba60048036038101906102b59190613b02565b6109f4565b005b3480156102c857600080fd5b506102d161105b565b6040516102de9190613b51565b60405180910390f35b3480156102f357600080fd5b5061030e60048036038101906103099190613b91565b611061565b005b34801561031c57600080fd5b5061033760048036038101906103329190613be4565b611371565b60405161034996959493929190613cc9565b60405180910390f35b34801561035e57600080fd5b5061037960048036038101906103749190613d60565b6113da565b6040516103869190613d9c565b60405180910390f35b34801561039b57600080fd5b506103b660048036038101906103b19190613de3565b6113fa565b005b3480156103c457600080fd5b506103df60048036038101906103da9190613e10565b61142f565b005b3480156103ed57600080fd5b5061040860048036038101906104039190613e10565b611450565b005b34801561041657600080fd5b5061041f6114d3565b60405161042c9190613b51565b60405180910390f35b34801561044157600080fd5b5061044a6114d9565b005b34801561045857600080fd5b50610473600480360381019061046e9190613be4565b6114eb565b005b34801561048157600080fd5b5061048a6116c6565b6040516104979190613d9c565b60405180910390f35b3480156104ac57600080fd5b506104c760048036038101906104c29190613de3565b6116ea565b005b3480156104d557600080fd5b506104f060048036038101906104eb9190613de3565b61171f565b005b3480156104fe57600080fd5b5061051960048036038101906105149190613b02565b611754565b6040516105299493929190613f28565b60405180910390f35b34801561053e57600080fd5b50610547611826565b6040516105549190613ab1565b60405180910390f35b34801561056957600080fd5b50610584600480360381019061057f9190613fd9565b61183c565b005b34801561059257600080fd5b506105ad60048036038101906105a89190613be4565b611aee565b005b3480156105bb57600080fd5b506105c4611c7a565b6040516105d19190613b51565b60405180910390f35b3480156105e657600080fd5b506105ef611c80565b005b3480156105fd57600080fd5b5061061860048036038101906106139190613be4565b611c94565b604051610626929190614039565b60405180910390f35b34801561063b57600080fd5b50610644611cb8565b005b34801561065257600080fd5b5061066d60048036038101906106689190613de3565b611cca565b005b34801561067b57600080fd5b50610684611cff565b6040516106919190614062565b60405180910390f35b3480156106a657600080fd5b506106c160048036038101906106bc9190613e10565b611d28565b6040516106ce9190613ab1565b60405180910390f35b3480156106e357600080fd5b506106fe60048036038101906106f991906140d3565b611d93565b005b34801561070c57600080fd5b5061072760048036038101906107229190614183565b61204f565b005b34801561073557600080fd5b5061073e6122cb565b60405161074b9190613d9c565b60405180910390f35b34801561076057600080fd5b5061077b60048036038101906107769190613de3565b6122d2565b005b34801561078957600080fd5b506107a4600480360381019061079f9190613be4565b612307565b6040516107b19190614363565b60405180910390f35b3480156107c657600080fd5b506107cf6124ca565b6040516107dc91906144cd565b60405180910390f35b3480156107f157600080fd5b506107fa612619565b6040516108079190613d9c565b60405180910390f35b34801561081c57600080fd5b50610837600480360381019061083291906144ef565b61263d565b6040516108449190613b51565b60405180910390f35b34801561085957600080fd5b50610874600480360381019061086f9190613de3565b612662565b005b34801561088257600080fd5b5061088b612697565b6040516108989190613d9c565b60405180910390f35b3480156108ad57600080fd5b506108c860048036038101906108c39190613be4565b6126bb565b005b3480156108d657600080fd5b506108f160048036038101906108ec9190613e10565b612a04565b005b3480156108ff57600080fd5b5061091a60048036038101906109159190613de3565b612a25565b005b34801561092857600080fd5b50610931612aa8565b005b34801561093f57600080fd5b50610948612e63565b604051610955919061458e565b60405180910390f35b61097860048036038101906109739190613b02565b612e87565b005b60007f7965db0b000000000000000000000000000000000000000000000000000000007bffffffffffffffffffffffffffffffffffffffffffffffffffffffff1916827bffffffffffffffffffffffffffffffffffffffffffffffffffffffff191614806109ed57506109ec826131f2565b5b9050919050565b8160026005811115610a0957610a08613c52565b5b6006600083815260200190815260200160002060000160149054906101000a900460ff166005811115610a3f57610a3e613c52565b5b14610a7f576040517f08c379a0000000000000000000000000000000000000000000000000000000008152600401610a76906145f5565b60405180910390fd5b823373ffffffffffffffffffffffffffffffffffffffff166006600083815260200190815260200160002060000160009054906101000a900473ffffffffffffffffffffffffffffffffffffffff1673ffffffffffffffffffffffffffffffffffffffff1614610b24576040517f08c379a0000000000000000000000000000000000000000000000000000000008152600401610b1b90614661565b60405180910390fd5b6000831115610bd55760036005811115610b4157610b40613c52565b5b600860008681526020019081526020016000206000600186610b6391906146b0565b815260200190815260200160002060020160009054906101000a900460ff166005811115610b9457610b93613c52565b5b14610bd4576040517f08c379a0000000000000000000000000000000000000000000000000000000008152600401610bcb90614730565b60405180910390fd5b5b6000600260009054906101000a900473ffffffffffffffffffffffffffffffffffffffff1673ffffffffffffffffffffffffffffffffffffffff1663feaf968c6040518163ffffffff1660e01b815260040160a060405180830381865afa158015610c44573d6000803e3d6000fd5b505050506040513d601f19601f82011682018060405250810190610c6891906147dd565b5050509150506000816007600088815260200190815260200160002060010154610c929190614858565b905060086000878152602001908152602001600020600086815260200190815260200160002060010154600760008881526020019081526020016000206000015482610cde919061489a565b11610d1e576040517f08c379a0000000000000000000000000000000000000000000000000000000008152600401610d159061491a565b60405180910390fd5b6008600087815260200190815260200160002060008681526020019081526020016000206001015460076000888152602001908152602001600020600001541015610e75576000826007600089815260200190815260200160002060000154600860008a8152602001908152602001600020600089815260200190815260200160002060010154610daf91906146b0565b83610dba91906146b0565b610dc49190614969565b905060003373ffffffffffffffffffffffffffffffffffffffff1682604051610dec906149cb565b60006040518083038185875af1925050503d8060008114610e29576040519150601f19603f3d011682016040523d82523d6000602084013e610e2e565b606091505b5050905080610e72576040517f08c379a0000000000000000000000000000000000000000000000000000000008152600401610e6990614a2c565b60405180910390fd5b50505b60086000878152602001908152602001600020600086815260200190815260200160002060010154600760008881526020019081526020016000206000016000828254610ec291906146b0565b925050819055507f000000000000000000000000000000000000000000000000000000000000000073ffffffffffffffffffffffffffffffffffffffff1663a9059cbb6006600089815260200190815260200160002060000160009054906101000a900473ffffffffffffffffffffffffffffffffffffffff16600860008a81526020019081526020016000206000898152602001908152602001600020600101546040518363ffffffff1660e01b8152600401610f81929190614a4c565b6020604051808303816000875af1158015610fa0573d6000803e3d6000fd5b505050506040513d601f19601f82011682018060405250810190610fc49190614aa1565b611003576040517f08c379a0000000000000000000000000000000000000000000000000000000008152600401610ffa90614b1a565b60405180910390fd5b600160086000888152602001908152602001600020600087815260200190815260200160002060020160006101000a81548160ff0219169083600581111561104e5761104d613c52565b5b0217905550505050505050565b60035481565b826002600581111561107657611075613c52565b5b6006600083815260200190815260200160002060000160149054906101000a900460ff1660058111156110ac576110ab613c52565b5b146110ec576040517f08c379a00000000000000000000000000000000000000000000000000000000081526004016110e3906145f5565b60405180910390fd5b833373ffffffffffffffffffffffffffffffffffffffff166006600083815260200190815260200160002060000160009054906101000a900473ffffffffffffffffffffffffffffffffffffffff1673ffffffffffffffffffffffffffffffffffffffff1603611191576040517f08c379a000000000000000000000000000000000000000000000000000000000815260040161118890614661565b60405180910390fd5b7f21702c8af46127c7fa207f89d0b0a8441bb32959a0ac7df790e9ab1a25c989266111bb8161325c565b600260058111156111cf576111ce613c52565b5b60086000888152602001908152602001600020600087815260200190815260200160002060020160009054906101000a900460ff16600581111561121657611215613c52565b5b14611256576040517f08c379a000000000000000000000000000000000000000000000000000000000815260040161124d90614b86565b60405180910390fd5b60058081111561126957611268613c52565b5b84600581111561127c5761127b613c52565b5b14806112ac57506004600581111561129757611296613c52565b5b8460058111156112aa576112a9613c52565b5b145b806112db5750600360058111156112c6576112c5613c52565b5b8460058111156112d9576112d8613c52565b5b145b61131a576040517f08c379a000000000000000000000000000000000000000000000000000000000815260040161131190614bf2565b60405180910390fd5b8360086000888152602001908152602001600020600087815260200190815260200160002060020160006101000a81548160ff0219169083600581111561136457611363613c52565b5b0217905550505050505050565b60066020528060005260406000206000915090508060000160009054906101000a900473ffffffffffffffffffffffffffffffffffffffff16908060000160149054906101000a900460ff16908060010154908060020154908060030154908060040154905086565b600060016000838152602001908152602001600020600101549050919050565b611402613270565b61142c7f21702c8af46127c7fa207f89d0b0a8441bb32959a0ac7df790e9ab1a25c98926826132ee565b50565b611438826113da565b6114418161325c565b61144b83836133d0565b505050565b6114586134b0565b73ffffffffffffffffffffffffffffffffffffffff168173ffffffffffffffffffffffffffffffffffffffff16146114c5576040517f08c379a00000000000000000000000000000000000000000000000000000000081526004016114bc90614c84565b60405180910390fd5b6114cf82826132ee565b5050565b60055481565b6114e1613270565b6114e96134b8565b565b803373ffffffffffffffffffffffffffffffffffffffff166006600083815260200190815260200160002060000160009054906101000a900473ffffffffffffffffffffffffffffffffffffffff1673ffffffffffffffffffffffffffffffffffffffff1614611590576040517f08c379a000000000000000000000000000000000000000000000000000000000815260040161158790614661565b60405180910390fd5b600060058111156115a4576115a3613c52565b5b6006600084815260200190815260200160002060000160149054906101000a900460ff1660058111156115da576115d9613c52565b5b1461161a576040517f08c379a000000000000000000000000000000000000000000000000000000000815260040161161190614cf0565b60405180910390fd5b60066000838152602001908152602001600020600080820160006101000a81549073ffffffffffffffffffffffffffffffffffffffff02191690556000820160146101000a81549060ff0219169055600182016000905560028201600090556003820160009055600482016000905550507f8bf30e7ff26833413be5f69e1d373744864d600b664204b4a2f9844a8eedb9ed826040516116ba9190613b51565b60405180910390a15050565b7f73e573f9566d61418a34d5de3ff49360f9c51fec37f7486551670290f6285dab81565b6116f2613270565b61171c7f73e573f9566d61418a34d5de3ff49360f9c51fec37f7486551670290f6285dab826133d0565b50565b611727613270565b6117517f72c3eec1760bf69946625c2d4fb8e44e2c806345041960b434674fb9ab3976cf826133d0565b50565b6008602052816000526040600020602052806000526040600020600091509150508060000154908060010154908060020160009054906101000a900460ff16908060030180546117a390614d3f565b80601f01602080910402602001604051908101604052809291908181526020018280546117cf90614d3f565b801561181c5780601f106117f15761010080835404028352916020019161181c565b820191906000526020600020905b8154815290600101906020018083116117ff57829003601f168201915b5050505050905084565b60008060149054906101000a900460ff16905090565b823373ffffffffffffffffffffffffffffffffffffffff166006600083815260200190815260200160002060000160009054906101000a900473ffffffffffffffffffffffffffffffffffffffff1673ffffffffffffffffffffffffffffffffffffffff16146118e1576040517f08c379a00000000000000000000000000000000000000000000000000000000081526004016118d890614661565b60405180910390fd5b83600060058111156118f6576118f5613c52565b5b6006600083815260200190815260200160002060000160149054906101000a900460ff16600581111561192c5761192b613c52565b5b1461196c576040517f08c379a000000000000000000000000000000000000000000000000000000000815260040161196390614dbc565b60405180910390fd5b60005b84849050811015611a8957604051806080016040528086868481811061199857611997614ddc565b5b9050604002016000013581526020018686848181106119ba576119b9614ddc565b5b905060400201602001358152602001600060058111156119dd576119dc613c52565b5b815260200160405180602001604052806000815250815250600860008881526020019081526020016000206000838152602001908152602001600020600082015181600001556020820151816001015560408201518160020160006101000a81548160ff02191690836005811115611a5857611a57613c52565b5b02179055506060820151816003019081611a729190614fdc565b509050508080611a81906150ae565b91505061196f565b5060016006600087815260200190815260200160002060000160146101000a81548160ff02191690836005811115611ac457611ac3613c52565b5b02179055508383905060066000878152602001908152602001600020600401819055505050505050565b8060006005811115611b0357611b02613c52565b5b6006600083815260200190815260200160002060000160149054906101000a900460ff166005811115611b3957611b38613c52565b5b14611b79576040517f08c379a0000000000000000000000000000000000000000000000000000000008152600401611b7090614dbc565b60405180910390fd5b813373ffffffffffffffffffffffffffffffffffffffff166006600083815260200190815260200160002060000160009054906101000a900473ffffffffffffffffffffffffffffffffffffffff1673ffffffffffffffffffffffffffffffffffffffff1603611c1e576040517f08c379a0000000000000000000000000000000000000000000000000000000008152600401611c1590614661565b60405180910390fd5b7f72c3eec1760bf69946625c2d4fb8e44e2c806345041960b434674fb9ab3976cf611c488161325c565b600660008581526020019081526020016000206001016000815480929190611c6f906150ae565b919050555050505050565b60045481565b611c88613270565b611c92600061351a565b565b60076020528060005260406000206000915090508060000154908060010154905082565b611cc0613270565b611cc86135de565b565b611cd2613270565b611cfc7f21702c8af46127c7fa207f89d0b0a8441bb32959a0ac7df790e9ab1a25c98926826133d0565b50565b60008060009054906101000a900473ffffffffffffffffffffffffffffffffffffffff16905090565b60006001600084815260200190815260200160002060000160008373ffffffffffffffffffffffffffffffffffffffff1673ffffffffffffffffffffffffffffffffffffffff16815260200190815260200160002060009054906101000a900460ff16905092915050565b8360026005811115611da857611da7613c52565b5b6006600083815260200190815260200160002060000160149054906101000a900460ff166005811115611dde57611ddd613c52565b5b14611e1e576040517f08c379a0000000000000000000000000000000000000000000000000000000008152600401611e15906145f5565b60405180910390fd5b843373ffffffffffffffffffffffffffffffffffffffff166006600083815260200190815260200160002060000160009054906101000a900473ffffffffffffffffffffffffffffffffffffffff1673ffffffffffffffffffffffffffffffffffffffff1614611ec3576040517f08c379a0000000000000000000000000000000000000000000000000000000008152600401611eba90614661565b60405180910390fd5b60016005811115611ed757611ed6613c52565b5b60086000888152602001908152602001600020600087815260200190815260200160002060020160009054906101000a900460ff166005811115611f1e57611f1d613c52565b5b1480611f815750600580811115611f3857611f37613c52565b5b60086000888152602001908152602001600020600087815260200190815260200160002060020160009054906101000a900460ff166005811115611f7f57611f7e613c52565b5b145b611fc0576040517f08c379a0000000000000000000000000000000000000000000000000000000008152600401611fb790615142565b60405180910390fd5b600260086000888152602001908152602001600020600087815260200190815260200160002060020160006101000a81548160ff0219169083600581111561200b5761200a613c52565b5b02179055508383600860008981526020019081526020016000206000888152602001908152602001600020600301918261204692919061516d565b50505050505050565b428263ffffffff161015612098576040517f08c379a000000000000000000000000000000000000000000000000000000000815260040161208f90615289565b60405180910390fd5b8163ffffffff168163ffffffff16116120e6576040517f08c379a00000000000000000000000000000000000000000000000000000000081526004016120dd906152f5565b60405180910390fd5b600454426120f4919061489a565b8163ffffffff16111561213c576040517f08c379a000000000000000000000000000000000000000000000000000000000815260040161213390615361565b60405180910390fd5b60016003600082825461214f919061489a565b925050819055506040518060c001604052803373ffffffffffffffffffffffffffffffffffffffff1681526020016000600581111561219157612190613c52565b5b8152602001600081526020018363ffffffff1681526020018263ffffffff1681526020018463ffffffff1681525060066000600354815260200190815260200160002060008201518160000160006101000a81548173ffffffffffffffffffffffffffffffffffffffff021916908373ffffffffffffffffffffffffffffffffffffffff16021790555060208201518160000160146101000a81548160ff0219169083600581111561224657612245613c52565b5b021790555060408201518160010155606082015181600201556080820151816003015560a082015181600401559050503373ffffffffffffffffffffffffffffffffffffffff167fcc9018de05b5f497ee7618d8830568d8ac2d45d0671b73d8f71c67e824122ec76003546040516122be9190613b51565b60405180910390a2505050565b6000801b81565b6122da613270565b6123047f72c3eec1760bf69946625c2d4fb8e44e2c806345041960b434674fb9ab3976cf826132ee565b50565b60608060005b60066000858152602001908152602001600020600401548110156124c057604051806080016040528060086000878152602001908152602001600020600084815260200190815260200160002060000154815260200160086000878152602001908152602001600020600084815260200190815260200160002060010154815260200160086000878152602001908152602001600020600084815260200190815260200160002060020160009054906101000a900460ff1660058111156123d7576123d6613c52565b5b8152602001600860008781526020019081526020016000206000848152602001908152602001600020600301805461240e90614d3f565b80601f016020809104026020016040519081016040528092919081815260200182805461243a90614d3f565b80156124875780601f1061245c57610100808354040283529160200191612487565b820191906000526020600020905b81548152906001019060200180831161246a57829003601f168201915b50505050508152508282815181106124a2576124a1614ddc565b5b602002602001018190525080806124b8906150ae565b91505061230d565b5080915050919050565b60608060005b600354811015612611576040518060c001604052806006600084815260200190815260200160002060000160009054906101000a900473ffffffffffffffffffffffffffffffffffffffff1673ffffffffffffffffffffffffffffffffffffffff1681526020016006600084815260200190815260200160002060000160149054906101000a900460ff16600581111561256d5761256c613c52565b5b815260200160066000848152602001908152602001600020600101548152602001600660008481526020019081526020016000206002015481526020016006600084815260200190815260200160002060030154815260200160066000848152602001908152602001600020600401548152508282815181106125f3576125f2614ddc565b5b60200260200101819052508080612609906150ae565b9150506124d0565b508091505090565b7f72c3eec1760bf69946625c2d4fb8e44e2c806345041960b434674fb9ab3976cf81565b6009602052816000526040600020602052806000526040600020600091509150505481565b61266a613270565b6126947f73e573f9566d61418a34d5de3ff49360f9c51fec37f7486551670290f6285dab826132ee565b50565b7f21702c8af46127c7fa207f89d0b0a8441bb32959a0ac7df790e9ab1a25c9892681565b806005808111156126cf576126ce613c52565b5b6006600083815260200190815260200160002060000160149054906101000a900460ff16600581111561270557612704613c52565b5b14806127585750600360058111156127205761271f613c52565b5b6006600083815260200190815260200160002060000160149054906101000a900460ff16600581111561275657612755613c52565b5b145b612797576040517f08c379a000000000000000000000000000000000000000000000000000000000815260040161278e906153cd565b60405180910390fd5b60006009600084815260200190815260200160002060003373ffffffffffffffffffffffffffffffffffffffff1673ffffffffffffffffffffffffffffffffffffffff168152602001908152602001600020541161282a576040517f08c379a000000000000000000000000000000000000000000000000000000000815260040161282190615439565b60405180910390fd5b60006009600084815260200190815260200160002060003373ffffffffffffffffffffffffffffffffffffffff1673ffffffffffffffffffffffffffffffffffffffff1681526020019081526020016000205490506009600084815260200190815260200160002060003373ffffffffffffffffffffffffffffffffffffffff1673ffffffffffffffffffffffffffffffffffffffff168152602001908152602001600020600090557f000000000000000000000000000000000000000000000000000000000000000073ffffffffffffffffffffffffffffffffffffffff1663a9059cbb33836040518363ffffffff1660e01b815260040161292e929190614a4c565b6020604051808303816000875af115801561294d573d6000803e3d6000fd5b505050506040513d601f19601f820116820180604052508101906129719190614aa1565b6129b0576040517f08c379a00000000000000000000000000000000000000000000000000000000081526004016129a7906154a5565b60405180910390fd5b3373ffffffffffffffffffffffffffffffffffffffff16837f2eeeab891b26a214d1b25749f88a406bdea852bd8c9bfda977e0ef8114c180ba836040516129f79190613b51565b60405180910390a3505050565b612a0d826113da565b612a168161325c565b612a2083836132ee565b505050565b612a2d613270565b600073ffffffffffffffffffffffffffffffffffffffff168173ffffffffffffffffffffffffffffffffffffffff1603612a9c576040517f08c379a0000000000000000000000000000000000000000000000000000000008152600401612a9390615537565b60405180910390fd5b612aa58161351a565b50565b7f73e573f9566d61418a34d5de3ff49360f9c51fec37f7486551670290f6285dab612ad28161325c565b60005b600354811015612e5f5760016005811115612af357612af2613c52565b5b6006600083815260200190815260200160002060000160149054906101000a900460ff166005811115612b2957612b28613c52565b5b03612c0857600554600660008381526020019081526020016000206001015410158015612b5b5750612b5a81613641565b5b15612ba45760026006600083815260200190815260200160002060000160146101000a81548160ff02191690836005811115612b9a57612b99613c52565b5b0217905550612c03565b6006600082815260200190815260200160002060030154421115612c025760036006600083815260200190815260200160002060000160146101000a81548160ff02191690836005811115612bfc57612bfb613c52565b5b02179055505b5b612e4c565b60026005811115612c1c57612c1b613c52565b5b6006600083815260200190815260200160002060000160149054906101000a900460ff166005811115612c5257612c51613c52565b5b03612e4b57612c6081613641565b15612e0a5760016005811115612c7957612c78613c52565b5b60086000838152602001908152602001600020600060016006600086815260200190815260200160002060040154612cb191906146b0565b815260200190815260200160002060020160009054906101000a900460ff166005811115612ce257612ce1613c52565b5b03612d2b5760046006600083815260200190815260200160002060000160146101000a81548160ff02191690836005811115612d2157612d20613c52565b5b0217905550612e05565b60005b6006600083815260200190815260200160002060040154811015612e035760046005811115612d6057612d5f613c52565b5b60086000848152602001908152602001600020600083815260200190815260200160002060020160009054906101000a900460ff166005811115612da757612da6613c52565b5b03612df05760056006600084815260200190815260200160002060000160146101000a81548160ff02191690836005811115612de657612de5613c52565b5b0217905550612e03565b8080612dfb906150ae565b915050612d2e565b505b612e4a565b60036006600083815260200190815260200160002060000160146101000a81548160ff02191690836005811115612e4457612e43613c52565b5b02179055505b5b5b8080612e57906150ae565b915050612ad5565b5050565b7f000000000000000000000000000000000000000000000000000000000000000081565b8160026005811115612e9c57612e9b613c52565b5b6006600083815260200190815260200160002060000160149054906101000a900460ff166005811115612ed257612ed1613c52565b5b14612f12576040517f08c379a0000000000000000000000000000000000000000000000000000000008152600401612f09906145f5565b60405180910390fd5b60026005811115612f2657612f25613c52565b5b6006600085815260200190815260200160002060000160149054906101000a900460ff166005811115612f5c57612f5b613c52565b5b14612f9c576040517f08c379a0000000000000000000000000000000000000000000000000000000008152600401612f93906155a3565b60405180910390fd5b6000341180612fab5750600082115b612fea576040517f08c379a0000000000000000000000000000000000000000000000000000000008152600401612fe19061560f565b60405180910390fd5b81600760008581526020019081526020016000206000016000828254613010919061489a565b92505081905550600034111561304e5734600760008581526020019081526020016000206001016000828254613046919061489a565b925050819055505b60008211156130bf57816009600085815260200190815260200160002060003373ffffffffffffffffffffffffffffffffffffffff1673ffffffffffffffffffffffffffffffffffffffff16815260200190815260200160002060008282546130b7919061489a565b925050819055505b7f000000000000000000000000000000000000000000000000000000000000000073ffffffffffffffffffffffffffffffffffffffff166323b872dd3330856040518463ffffffff1660e01b815260040161311c9392919061562f565b6020604051808303816000875af115801561313b573d6000803e3d6000fd5b505050506040513d601f19601f8201168201806040525081019061315f9190614aa1565b61319e576040517f08c379a0000000000000000000000000000000000000000000000000000000008152600401613195906154a5565b60405180910390fd5b3373ffffffffffffffffffffffffffffffffffffffff16837f06bdb975df800a73232998e71ed585d536222f1dfeaa622d7f62a23ada686c82846040516131e59190613b51565b60405180910390a3505050565b60007f01ffc9a7000000000000000000000000000000000000000000000000000000007bffffffffffffffffffffffffffffffffffffffffffffffffffffffff1916827bffffffffffffffffffffffffffffffffffffffffffffffffffffffff1916149050919050565b61326d816132686134b0565b613686565b50565b6132786134b0565b73ffffffffffffffffffffffffffffffffffffffff16613296611cff565b73ffffffffffffffffffffffffffffffffffffffff16146132ec576040517f08c379a00000000000000000000000000000000000000000000000000000000081526004016132e3906156b2565b60405180910390fd5b565b6132f88282611d28565b156133cc5760006001600084815260200190815260200160002060000160008373ffffffffffffffffffffffffffffffffffffffff1673ffffffffffffffffffffffffffffffffffffffff16815260200190815260200160002060006101000a81548160ff0219169083151502179055506133716134b0565b73ffffffffffffffffffffffffffffffffffffffff168173ffffffffffffffffffffffffffffffffffffffff16837ff6391f5c32d9c69d2a47ea670b442974b53935d1edc7fd64eb21e047a839171b60405160405180910390a45b5050565b6133da8282611d28565b6134ac57600180600084815260200190815260200160002060000160008373ffffffffffffffffffffffffffffffffffffffff1673ffffffffffffffffffffffffffffffffffffffff16815260200190815260200160002060006101000a81548160ff0219169083151502179055506134516134b0565b73ffffffffffffffffffffffffffffffffffffffff168173ffffffffffffffffffffffffffffffffffffffff16837f2f8788117e7eff1d82e926ec794901d17c78024a50270940304540a733656f0d60405160405180910390a45b5050565b600033905090565b6134c061370b565b60008060146101000a81548160ff0219169083151502179055507f5db9ee0a495bf2e6ff9c91a7834c1ba4fdd244a5e8aa4e537bd38aeae4b073aa6135036134b0565b6040516135109190614062565b60405180910390a1565b60008060009054906101000a900473ffffffffffffffffffffffffffffffffffffffff169050816000806101000a81548173ffffffffffffffffffffffffffffffffffffffff021916908373ffffffffffffffffffffffffffffffffffffffff1602179055508173ffffffffffffffffffffffffffffffffffffffff168173ffffffffffffffffffffffffffffffffffffffff167f8be0079c531659141344cd1fd0a4f28419497f9722a3daafe3b4186f6b6457e060405160405180910390a35050565b6135e6613754565b6001600060146101000a81548160ff0219169083151502179055507f62e78cea01bee320cd4e420270b5ea74000d11b0c9f74754ebdbfc544b05a25861362a6134b0565b6040516136379190614062565b60405180910390a1565b60006006600083815260200190815260200160002060030154421115801561367f575060066000838152602001908152602001600020600201544210155b9050919050565b6136908282611d28565b6137075761369d8161379e565b6136ab8360001c60206137cb565b6040516020016136bc9291906157a6565b6040516020818303038152906040526040517f08c379a00000000000000000000000000000000000000000000000000000000081526004016136fe91906157e0565b60405180910390fd5b5050565b613713611826565b613752576040517f08c379a00000000000000000000000000000000000000000000000000000000081526004016137499061584e565b60405180910390fd5b565b61375c611826565b1561379c576040517f08c379a0000000000000000000000000000000000000000000000000000000008152600401613793906158ba565b60405180910390fd5b565b60606137c48273ffffffffffffffffffffffffffffffffffffffff16601460ff166137cb565b9050919050565b6060600060028360026137de9190614858565b6137e8919061489a565b67ffffffffffffffff81111561380157613800614e0b565b5b6040519080825280601f01601f1916602001820160405280156138335781602001600182028036833780820191505090505b5090507f30000000000000000000000000000000000000000000000000000000000000008160008151811061386b5761386a614ddc565b5b60200101907effffffffffffffffffffffffffffffffffffffffffffffffffffffffffffff1916908160001a9053507f7800000000000000000000000000000000000000000000000000000000000000816001815181106138cf576138ce614ddc565b5b60200101907effffffffffffffffffffffffffffffffffffffffffffffffffffffffffffff1916908160001a9053506000600184600261390f9190614858565b613919919061489a565b90505b60018111156139b9577f3031323334353637383961626364656600000000000000000000000000000000600f86166010811061395b5761395a614ddc565b5b1a60f81b82828151811061397257613971614ddc565b5b60200101907effffffffffffffffffffffffffffffffffffffffffffffffffffffffffffff1916908160001a905350600485901c9450806139b2906158da565b905061391c565b50600084146139fd576040517f08c379a00000000000000000000000000000000000000000000000000000000081526004016139f49061594f565b60405180910390fd5b8091505092915050565b600080fd5b600080fd5b60007fffffffff0000000000000000000000000000000000000000000000000000000082169050919050565b613a4681613a11565b8114613a5157600080fd5b50565b600081359050613a6381613a3d565b92915050565b600060208284031215613a7f57613a7e613a07565b5b6000613a8d84828501613a54565b91505092915050565b60008115159050919050565b613aab81613a96565b82525050565b6000602082019050613ac66000830184613aa2565b92915050565b6000819050919050565b613adf81613acc565b8114613aea57600080fd5b50565b600081359050613afc81613ad6565b92915050565b60008060408385031215613b1957613b18613a07565b5b6000613b2785828601613aed565b9250506020613b3885828601613aed565b9150509250929050565b613b4b81613acc565b82525050565b6000602082019050613b666000830184613b42565b92915050565b60068110613b7957600080fd5b50565b600081359050613b8b81613b6c565b92915050565b600080600060608486031215613baa57613ba9613a07565b5b6000613bb886828701613aed565b9350506020613bc986828701613aed565b9250506040613bda86828701613b7c565b9150509250925092565b600060208284031215613bfa57613bf9613a07565b5b6000613c0884828501613aed565b91505092915050565b600073ffffffffffffffffffffffffffffffffffffffff82169050919050565b6000613c3c82613c11565b9050919050565b613c4c81613c31565b82525050565b7f4e487b7100000000000000000000000000000000000000000000000000000000600052602160045260246000fd5b60068110613c9257613c91613c52565b5b50565b6000819050613ca382613c81565b919050565b6000613cb382613c95565b9050919050565b613cc381613ca8565b82525050565b600060c082019050613cde6000830189613c43565b613ceb6020830188613cba565b613cf86040830187613b42565b613d056060830186613b42565b613d126080830185613b42565b613d1f60a0830184613b42565b979650505050505050565b6000819050919050565b613d3d81613d2a565b8114613d4857600080fd5b50565b600081359050613d5a81613d34565b92915050565b600060208284031215613d7657613d75613a07565b5b6000613d8484828501613d4b565b91505092915050565b613d9681613d2a565b82525050565b6000602082019050613db16000830184613d8d565b92915050565b613dc081613c31565b8114613dcb57600080fd5b50565b600081359050613ddd81613db7565b92915050565b600060208284031215613df957613df8613a07565b5b6000613e0784828501613dce565b91505092915050565b60008060408385031215613e2757613e26613a07565b5b6000613e3585828601613d4b565b9250506020613e4685828601613dce565b9150509250929050565b60068110613e6157613e60613c52565b5b50565b6000819050613e7282613e50565b919050565b6000613e8282613e64565b9050919050565b613e9281613e77565b82525050565b600081519050919050565b600082825260208201905092915050565b60005b83811015613ed2578082015181840152602081019050613eb7565b60008484015250505050565b6000601f19601f8301169050919050565b6000613efa82613e98565b613f048185613ea3565b9350613f14818560208601613eb4565b613f1d81613ede565b840191505092915050565b6000608082019050613f3d6000830187613b42565b613f4a6020830186613b42565b613f576040830185613e89565b8181036060830152613f698184613eef565b905095945050505050565b600080fd5b600080fd5b600080fd5b60008083601f840112613f9957613f98613f74565b5b8235905067ffffffffffffffff811115613fb657613fb5613f79565b5b602083019150836040820283011115613fd257613fd1613f7e565b5b9250929050565b600080600060408486031215613ff257613ff1613a07565b5b600061400086828701613aed565b935050602084013567ffffffffffffffff81111561402157614020613a0c565b5b61402d86828701613f83565b92509250509250925092565b600060408201905061404e6000830185613b42565b61405b6020830184613b42565b9392505050565b60006020820190506140776000830184613c43565b92915050565b60008083601f84011261409357614092613f74565b5b8235905067ffffffffffffffff8111156140b0576140af613f79565b5b6020830191508360018202830111156140cc576140cb613f7e565b5b9250929050565b600080600080606085870312156140ed576140ec613a07565b5b60006140fb87828801613aed565b945050602061410c87828801613aed565b935050604085013567ffffffffffffffff81111561412d5761412c613a0c565b5b6141398782880161407d565b925092505092959194509250565b600063ffffffff82169050919050565b61416081614147565b811461416b57600080fd5b50565b60008135905061417d81614157565b92915050565b60008060006060848603121561419c5761419b613a07565b5b60006141aa8682870161416e565b93505060206141bb8682870161416e565b92505060406141cc8682870161416e565b9150509250925092565b600081519050919050565b600082825260208201905092915050565b6000819050602082019050919050565b61420b81613acc565b82525050565b61421a81613e77565b82525050565b600082825260208201905092915050565b600061423c82613e98565b6142468185614220565b9350614256818560208601613eb4565b61425f81613ede565b840191505092915050565b60006080830160008301516142826000860182614202565b5060208301516142956020860182614202565b5060408301516142a86040860182614211565b50606083015184820360608601526142c08282614231565b9150508091505092915050565b60006142d9838361426a565b905092915050565b6000602082019050919050565b60006142f9826141d6565b61430381856141e1565b935083602082028501614315856141f2565b8060005b85811015614351578484038952815161433285826142cd565b945061433d836142e1565b925060208a01995050600181019050614319565b50829750879550505050505092915050565b6000602082019050818103600083015261437d81846142ee565b905092915050565b600081519050919050565b600082825260208201905092915050565b6000819050602082019050919050565b6143ba81613c31565b82525050565b6143c981613ca8565b82525050565b60c0820160008201516143e560008501826143b1565b5060208201516143f860208501826143c0565b50604082015161440b6040850182614202565b50606082015161441e6060850182614202565b5060808201516144316080850182614202565b5060a082015161444460a0850182614202565b50505050565b600061445683836143cf565b60c08301905092915050565b6000602082019050919050565b600061447a82614385565b6144848185614390565b935061448f836143a1565b8060005b838110156144c05781516144a7888261444a565b97506144b283614462565b925050600181019050614493565b5085935050505092915050565b600060208201905081810360008301526144e7818461446f565b905092915050565b6000806040838503121561450657614505613a07565b5b600061451485828601613aed565b925050602061452585828601613dce565b9150509250929050565b6000819050919050565b600061455461454f61454a84613c11565b61452f565b613c11565b9050919050565b600061456682614539565b9050919050565b60006145788261455b565b9050919050565b6145888161456d565b82525050565b60006020820190506145a3600083018461457f565b92915050565b7f43616d706169676e206861736e27742073746172746564207965740000000000600082015250565b60006145df601b83613ea3565b91506145ea826145a9565b602082019050919050565b6000602082019050818103600083015261460e816145d2565b9050919050565b7f596f7520646964206e6f742063726561746520746869732043616d706169676e600082015250565b600061464b602083613ea3565b915061465682614615565b602082019050919050565b6000602082019050818103600083015261467a8161463e565b9050919050565b7f4e487b7100000000000000000000000000000000000000000000000000000000600052601160045260246000fd5b60006146bb82613acc565b91506146c683613acc565b92508282039050818111156146de576146dd614681565b5b92915050565b7f50726576696f757320676f616c20776173206e6f742076616c69646174656400600082015250565b600061471a601f83613ea3565b9150614725826146e4565b602082019050919050565b600060208201905081810360008301526147498161470d565b9050919050565b600069ffffffffffffffffffff82169050919050565b61476f81614750565b811461477a57600080fd5b50565b60008151905061478c81614766565b92915050565b6000819050919050565b6147a581614792565b81146147b057600080fd5b50565b6000815190506147c28161479c565b92915050565b6000815190506147d781613ad6565b92915050565b600080600080600060a086880312156147f9576147f8613a07565b5b60006148078882890161477d565b9550506020614818888289016147b3565b9450506040614829888289016147c8565b935050606061483a888289016147c8565b925050608061484b8882890161477d565b9150509295509295909350565b600061486382613acc565b915061486e83613acc565b925082820261487c81613acc565b9150828204841483151761489357614892614681565b5b5092915050565b60006148a582613acc565b91506148b083613acc565b92508282019050808211156148c8576148c7614681565b5b92915050565b7f4e6f7420656e6f756768206d6f6e657900000000000000000000000000000000600082015250565b6000614904601083613ea3565b915061490f826148ce565b602082019050919050565b60006020820190508181036000830152614933816148f7565b9050919050565b7f4e487b7100000000000000000000000000000000000000000000000000000000600052601260045260246000fd5b600061497482613acc565b915061497f83613acc565b92508261498f5761498e61493a565b5b828204905092915050565b600081905092915050565b50565b60006149b560008361499a565b91506149c0826149a5565b600082019050919050565b60006149d6826149a8565b9150819050919050565b7f457468207472616e73666572206661696c65642e000000000000000000000000600082015250565b6000614a16601483613ea3565b9150614a21826149e0565b602082019050919050565b60006020820190508181036000830152614a4581614a09565b9050919050565b6000604082019050614a616000830185613c43565b614a6e6020830184613b42565b9392505050565b614a7e81613a96565b8114614a8957600080fd5b50565b600081519050614a9b81614a75565b92915050565b600060208284031215614ab757614ab6613a07565b5b6000614ac584828501614a8c565b91505092915050565b7f546f6b656e207472616e73666572206661696c65640000000000000000000000600082015250565b6000614b04601583613ea3565b9150614b0f82614ace565b602082019050919050565b60006020820190508181036000830152614b3381614af7565b9050919050565b7f43616e6e6f742076616c69646174652070726f6f660000000000000000000000600082015250565b6000614b70601583613ea3565b9150614b7b82614b3a565b602082019050919050565b60006020820190508181036000830152614b9f81614b63565b9050919050565b7f496e76616c696420737461746500000000000000000000000000000000000000600082015250565b6000614bdc600d83613ea3565b9150614be782614ba6565b602082019050919050565b60006020820190508181036000830152614c0b81614bcf565b9050919050565b7f416363657373436f6e74726f6c3a2063616e206f6e6c792072656e6f756e636560008201527f20726f6c657320666f722073656c660000000000000000000000000000000000602082015250565b6000614c6e602f83613ea3565b9150614c7982614c12565b604082019050919050565b60006020820190508181036000830152614c9d81614c61565b9050919050565b7f43616e6e6f742063616e63656c00000000000000000000000000000000000000600082015250565b6000614cda600d83613ea3565b9150614ce582614ca4565b602082019050919050565b60006020820190508181036000830152614d0981614ccd565b9050919050565b7f4e487b7100000000000000000000000000000000000000000000000000000000600052602260045260246000fd5b60006002820490506001821680614d5757607f821691505b602082108103614d6a57614d69614d10565b5b50919050565b7f43616d706169676e206973206e6f742063726561746564000000000000000000600082015250565b6000614da6601783613ea3565b9150614db182614d70565b602082019050919050565b60006020820190508181036000830152614dd581614d99565b9050919050565b7f4e487b7100000000000000000000000000000000000000000000000000000000600052603260045260246000fd5b7f4e487b7100000000000000000000000000000000000000000000000000000000600052604160045260246000fd5b60008190508160005260206000209050919050565b60006020601f8301049050919050565b600082821b905092915050565b600060088302614e9c7fffffffffffffffffffffffffffffffffffffffffffffffffffffffffffffffff82614e5f565b614ea68683614e5f565b95508019841693508086168417925050509392505050565b6000614ed9614ed4614ecf84613acc565b61452f565b613acc565b9050919050565b6000819050919050565b614ef383614ebe565b614f07614eff82614ee0565b848454614e6c565b825550505050565b600090565b614f1c614f0f565b614f27818484614eea565b505050565b5b81811015614f4b57614f40600082614f14565b600181019050614f2d565b5050565b601f821115614f9057614f6181614e3a565b614f6a84614e4f565b81016020851015614f79578190505b614f8d614f8585614e4f565b830182614f2c565b50505b505050565b600082821c905092915050565b6000614fb360001984600802614f95565b1980831691505092915050565b6000614fcc8383614fa2565b9150826002028217905092915050565b614fe582613e98565b67ffffffffffffffff811115614ffe57614ffd614e0b565b5b6150088254614d3f565b615013828285614f4f565b600060209050601f8311600181146150465760008415615034578287015190505b61503e8582614fc0565b8655506150a6565b601f19841661505486614e3a565b60005b8281101561507c57848901518255600182019150602085019450602081019050615057565b868310156150995784890151615095601f891682614fa2565b8355505b6001600288020188555050505b505050505050565b60006150b982613acc565b91507fffffffffffffffffffffffffffffffffffffffffffffffffffffffffffffffff82036150eb576150ea614681565b5b600182019050919050565b7f43616e6e6f74206174746163682070726f6f6600000000000000000000000000600082015250565b600061512c601383613ea3565b9150615137826150f6565b602082019050919050565b6000602082019050818103600083015261515b8161511f565b9050919050565b600082905092915050565b6151778383615162565b67ffffffffffffffff8111156151905761518f614e0b565b5b61519a8254614d3f565b6151a5828285614f4f565b6000601f8311600181146151d457600084156151c2578287013590505b6151cc8582614fc0565b865550615234565b601f1984166151e286614e3a565b60005b8281101561520a578489013582556001820191506020850194506020810190506151e5565b868310156152275784890135615223601f891682614fa2565b8355505b6001600288020188555050505b50505050505050565b7f496e76616c696420737461727400000000000000000000000000000000000000600082015250565b6000615273600d83613ea3565b915061527e8261523d565b602082019050919050565b600060208201905081810360008301526152a281615266565b9050919050565b7f496e76616c69642072616e676500000000000000000000000000000000000000600082015250565b60006152df600d83613ea3565b91506152ea826152a9565b602082019050919050565b6000602082019050818103600083015261530e816152d2565b9050919050565b7f496e76616c69642072616e6765206475726174696f6e00000000000000000000600082015250565b600061534b601683613ea3565b915061535682615315565b602082019050919050565b6000602082019050818103600083015261537a8161533e565b9050919050565b7f596f752063616e206e6f7420756e706c65646765000000000000000000000000600082015250565b60006153b7601483613ea3565b91506153c282615381565b602082019050919050565b600060208201905081810360008301526153e6816153aa565b9050919050565b7f4e6f7468696e6720746f20756e706c6564676500000000000000000000000000600082015250565b6000615423601383613ea3565b915061542e826153ed565b602082019050919050565b6000602082019050818103600083015261545281615416565b9050919050565b7f7472616e73666572206661696c65640000000000000000000000000000000000600082015250565b600061548f600f83613ea3565b915061549a82615459565b602082019050919050565b600060208201905081810360008301526154be81615482565b9050919050565b7f4f776e61626c653a206e6577206f776e657220697320746865207a65726f206160008201527f6464726573730000000000000000000000000000000000000000000000000000602082015250565b6000615521602683613ea3565b915061552c826154c5565b604082019050919050565b6000602082019050818103600083015261555081615514565b9050919050565b7f596f752063616e206e6f7420706c656467650000000000000000000000000000600082015250565b600061558d601283613ea3565b915061559882615557565b602082019050919050565b600060208201905081810360008301526155bc81615580565b9050919050565b7f496e76616c69647320616d6f756e747300000000000000000000000000000000600082015250565b60006155f9601083613ea3565b9150615604826155c3565b602082019050919050565b60006020820190508181036000830152615628816155ec565b9050919050565b60006060820190506156446000830186613c43565b6156516020830185613c43565b61565e6040830184613b42565b949350505050565b7f4f776e61626c653a2063616c6c6572206973206e6f7420746865206f776e6572600082015250565b600061569c602083613ea3565b91506156a782615666565b602082019050919050565b600060208201905081810360008301526156cb8161568f565b9050919050565b600081905092915050565b7f416363657373436f6e74726f6c3a206163636f756e7420000000000000000000600082015250565b60006157136017836156d2565b915061571e826156dd565b601782019050919050565b600061573482613e98565b61573e81856156d2565b935061574e818560208601613eb4565b80840191505092915050565b7f206973206d697373696e6720726f6c6520000000000000000000000000000000600082015250565b60006157906011836156d2565b915061579b8261575a565b601182019050919050565b60006157b182615706565b91506157bd8285615729565b91506157c882615783565b91506157d48284615729565b91508190509392505050565b600060208201905081810360008301526157fa8184613eef565b905092915050565b7f5061757361626c653a206e6f7420706175736564000000000000000000000000600082015250565b6000615838601483613ea3565b915061584382615802565b602082019050919050565b600060208201905081810360008301526158678161582b565b9050919050565b7f5061757361626c653a2070617573656400000000000000000000000000000000600082015250565b60006158a4601083613ea3565b91506158af8261586e565b602082019050919050565b600060208201905081810360008301526158d381615897565b9050919050565b60006158e582613acc565b9150600082036158f8576158f7614681565b5b600182039050919050565b7f537472696e67733a20686578206c656e67746820696e73756666696369656e74600082015250565b6000615939602083613ea3565b915061594482615903565b602082019050919050565b600060208201905081810360008301526159688161592c565b905091905056fea2646970667358221220639404f1d55d32175dce80e2eabc4aebcd0bf992a023f7966eb3b841cca80f0664736f6c63430008120033",
  "linkReferences": {},
  "deployedLinkReferences": {}
}